{
  "address": "0x73eA2CB15EE9515371f1135C0512e2F6B71Eb505",
  "abi": [
    {
      "inputs": [
        {
          "internalType": "uint256",
          "name": "timeDifference",
          "type": "uint256"
        }
      ],
      "name": "DistributionEnded",
      "type": "error"
    },
    {
      "inputs": [
        {
          "internalType": "uint256",
          "name": "timeDifference",
          "type": "uint256"
        }
      ],
      "name": "DistributionNotStarted",
      "type": "error"
    },
    {
      "inputs": [
        {
          "internalType": "uint256",
          "name": "scalar",
          "type": "uint256"
        },
        {
          "internalType": "string",
          "name": "comment",
          "type": "string"
        }
      ],
      "name": "InvalidScalar",
      "type": "error"
    },
    {
      "inputs": [
        {
          "internalType": "bytes32",
          "name": "role",
          "type": "bytes32"
        },
        {
          "internalType": "address",
          "name": "entity",
          "type": "address"
        }
      ],
      "name": "NotAuthorized",
      "type": "error"
    },
    {
      "inputs": [
        {
          "internalType": "uint256",
          "name": "provided",
          "type": "uint256"
        },
        {
          "internalType": "uint256",
          "name": "actual",
          "type": "uint256"
        }
      ],
      "name": "NotEnoughRewardToDistribute",
      "type": "error"
    },
    {
      "inputs": [
        {
          "internalType": "uint256",
          "name": "amount",
          "type": "uint256"
        },
        {
          "internalType": "uint256",
          "name": "limit",
          "type": "uint256"
        }
      ],
      "name": "NotEnoughStaked",
      "type": "error"
    },
    {
      "inputs": [
        {
          "internalType": "uint256",
          "name": "amount",
          "type": "uint256"
        },
        {
          "internalType": "uint256",
          "name": "limit",
          "type": "uint256"
        }
      ],
      "name": "TooMuchStaked",
      "type": "error"
    },
    {
      "anonymous": false,
      "inputs": [
        {
          "indexed": true,
          "internalType": "address",
          "name": "user",
          "type": "address"
        },
        {
          "indexed": false,
          "internalType": "uint256",
          "name": "amount",
          "type": "uint256"
        }
      ],
      "name": "EmergencyWithdraw",
      "type": "event"
    },
    {
      "anonymous": false,
      "inputs": [
        {
          "indexed": false,
          "internalType": "uint8",
          "name": "version",
          "type": "uint8"
        }
      ],
      "name": "Initialized",
      "type": "event"
    },
    {
      "anonymous": false,
      "inputs": [
        {
          "indexed": false,
          "internalType": "uint256",
          "name": "partOfTotalRewards",
          "type": "uint256"
        }
      ],
      "name": "PartDistributed",
      "type": "event"
    },
    {
      "anonymous": false,
      "inputs": [
        {
          "indexed": false,
          "internalType": "address",
          "name": "account",
          "type": "address"
        }
      ],
      "name": "Paused",
      "type": "event"
    },
    {
      "anonymous": false,
      "inputs": [
        {
          "indexed": false,
          "internalType": "uint256",
          "name": "reward",
          "type": "uint256"
        }
      ],
      "name": "RewardAdded",
      "type": "event"
    },
    {
      "anonymous": false,
      "inputs": [
        {
          "indexed": true,
          "internalType": "address",
          "name": "user",
          "type": "address"
        },
        {
          "indexed": false,
          "internalType": "uint256",
          "name": "reward",
          "type": "uint256"
        }
      ],
      "name": "RewardPaid",
      "type": "event"
    },
    {
      "anonymous": false,
      "inputs": [
        {
          "indexed": true,
          "internalType": "address",
          "name": "user",
          "type": "address"
        },
        {
          "indexed": false,
          "internalType": "uint256",
          "name": "amount",
          "type": "uint256"
        }
      ],
      "name": "Staked",
      "type": "event"
    },
    {
      "anonymous": false,
      "inputs": [
        {
          "indexed": false,
          "internalType": "address",
          "name": "account",
          "type": "address"
        }
      ],
      "name": "Unpaused",
      "type": "event"
    },
    {
      "anonymous": false,
      "inputs": [
        {
          "indexed": true,
          "internalType": "address",
          "name": "user",
          "type": "address"
        },
        {
          "indexed": false,
          "internalType": "uint256",
          "name": "amount",
          "type": "uint256"
        }
      ],
      "name": "Withdrawn",
      "type": "event"
    },
    {
      "inputs": [],
      "name": "accRewardTokenPerShare",
      "outputs": [
        {
          "internalType": "uint256",
          "name": "",
          "type": "uint256"
        }
      ],
      "stateMutability": "view",
      "type": "function"
    },
    {
      "inputs": [],
      "name": "addExpectedRewardTokensBalanceToDistribute",
      "outputs": [],
      "stateMutability": "nonpayable",
      "type": "function"
    },
    {
      "inputs": [
        {
          "internalType": "uint256[2][]",
          "name": "initialAmounts",
          "type": "uint256[2][]"
        },
        {
          "internalType": "address",
          "name": "fortunnaTokenAddress",
          "type": "address"
        }
      ],
      "name": "calculateFortunnaTokens",
      "outputs": [
        {
          "internalType": "uint256",
          "name": "amountToMint",
          "type": "uint256"
        }
      ],
      "stateMutability": "view",
      "type": "function"
    },
    {
      "inputs": [],
      "name": "emergencyWithdraw",
      "outputs": [],
      "stateMutability": "nonpayable",
      "type": "function"
    },
    {
      "inputs": [],
      "name": "expectedRewardTokensBalanceToDistribute",
      "outputs": [
        {
          "internalType": "uint256",
          "name": "",
          "type": "uint256"
        }
      ],
      "stateMutability": "view",
      "type": "function"
    },
    {
      "inputs": [],
      "name": "factory",
      "outputs": [
        {
          "internalType": "address",
          "name": "",
          "type": "address"
        }
      ],
      "stateMutability": "view",
      "type": "function"
    },
    {
      "inputs": [
        {
          "internalType": "enum FortunnaPool.Fee",
          "name": "fee",
          "type": "uint8"
        }
      ],
      "name": "getAccumulatedFeesAmount",
      "outputs": [
        {
          "internalType": "uint256",
          "name": "",
          "type": "uint256"
        }
      ],
      "stateMutability": "view",
      "type": "function"
    },
    {
      "inputs": [],
      "name": "getReward",
      "outputs": [],
      "stateMutability": "nonpayable",
      "type": "function"
    },
    {
      "inputs": [
        {
          "internalType": "address",
          "name": "poolOwner",
          "type": "address"
        },
        {
          "components": [
            {
              "internalType": "uint256",
              "name": "protoPoolIdx",
              "type": "uint256"
            },
            {
              "internalType": "uint256",
              "name": "startTimestamp",
              "type": "uint256"
            },
            {
              "internalType": "uint256",
              "name": "endTimestamp",
              "type": "uint256"
            },
            {
              "internalType": "uint256",
              "name": "minStakeAmount",
              "type": "uint256"
            },
            {
              "internalType": "uint256",
              "name": "maxStakeAmount",
              "type": "uint256"
            },
            {
              "internalType": "uint256",
              "name": "minLockUpRewardsPeriod",
              "type": "uint256"
            },
            {
              "internalType": "uint256",
              "name": "earlyWithdrawalFeeBasePoints",
              "type": "uint256"
            },
            {
              "internalType": "uint256",
              "name": "depositWithdrawFeeBasePoints",
              "type": "uint256"
            },
            {
              "internalType": "uint256",
              "name": "totalRewardBasePointsPerDistribution",
              "type": "uint256"
            },
            {
              "internalType": "bytes32",
              "name": "stakingTokensMask",
              "type": "bytes32"
            },
            {
              "internalType": "bytes32",
              "name": "rewardTokensMask",
              "type": "bytes32"
            },
            {
              "components": [
                {
                  "internalType": "address",
                  "name": "nonfungiblePositionManager",
                  "type": "address"
                }
              ],
              "internalType": "struct FortunnaLib.CustomPoolParameters",
              "name": "custom",
              "type": "tuple"
            }
          ],
          "internalType": "struct FortunnaLib.PoolParameters",
          "name": "poolParameters",
          "type": "tuple"
        },
        {
          "components": [
            {
              "internalType": "address[]",
              "name": "utilizingTokens",
              "type": "address[]"
            },
            {
              "internalType": "uint256[2][]",
              "name": "initialRewardAmounts",
              "type": "uint256[2][]"
            },
            {
              "internalType": "uint256[2][]",
              "name": "initialDepositAmounts",
              "type": "uint256[2][]"
            }
          ],
          "internalType": "struct FortunnaLib.PoolParametersArrays",
          "name": "poolParametersArrays",
          "type": "tuple"
        }
      ],
      "name": "initialize",
      "outputs": [],
      "stateMutability": "nonpayable",
      "type": "function"
    },
    {
      "inputs": [],
      "name": "lastRewardTimestamp",
      "outputs": [
        {
          "internalType": "uint256",
          "name": "",
          "type": "uint256"
        }
      ],
      "stateMutability": "view",
      "type": "function"
    },
    {
      "inputs": [],
      "name": "pause",
      "outputs": [],
      "stateMutability": "nonpayable",
      "type": "function"
    },
    {
      "inputs": [],
      "name": "paused",
      "outputs": [
        {
          "internalType": "bool",
          "name": "",
          "type": "bool"
        }
      ],
      "stateMutability": "view",
      "type": "function"
    },
    {
      "inputs": [
        {
          "internalType": "address",
          "name": "user",
          "type": "address"
        }
      ],
      "name": "pendingRewards",
      "outputs": [
        {
          "internalType": "uint256",
          "name": "",
          "type": "uint256"
        }
      ],
      "stateMutability": "view",
      "type": "function"
    },
    {
      "inputs": [],
      "name": "providePartOfTotalRewards",
      "outputs": [],
      "stateMutability": "nonpayable",
      "type": "function"
    },
    {
      "inputs": [],
      "name": "providedRewardTokensBalance",
      "outputs": [
        {
          "internalType": "uint256",
          "name": "",
          "type": "uint256"
        }
      ],
      "stateMutability": "view",
      "type": "function"
    },
    {
      "inputs": [],
      "name": "requestedRewardTokensToDistribute",
      "outputs": [
        {
          "internalType": "uint256",
          "name": "",
          "type": "uint256"
        }
      ],
      "stateMutability": "view",
      "type": "function"
    },
    {
      "inputs": [],
      "name": "rewardToken",
      "outputs": [
        {
          "internalType": "contract IFortunnaToken",
          "name": "",
          "type": "address"
        }
      ],
      "stateMutability": "view",
      "type": "function"
    },
    {
      "inputs": [],
      "name": "rewardTokensPerSec",
      "outputs": [
        {
          "internalType": "uint256",
          "name": "",
          "type": "uint256"
        }
      ],
      "stateMutability": "view",
      "type": "function"
    },
    {
      "inputs": [],
      "name": "scalarParams",
      "outputs": [
        {
          "internalType": "uint256",
          "name": "protoPoolIdx",
          "type": "uint256"
        },
        {
          "internalType": "uint256",
          "name": "startTimestamp",
          "type": "uint256"
        },
        {
          "internalType": "uint256",
          "name": "endTimestamp",
          "type": "uint256"
        },
        {
          "internalType": "uint256",
          "name": "minStakeAmount",
          "type": "uint256"
        },
        {
          "internalType": "uint256",
          "name": "maxStakeAmount",
          "type": "uint256"
        },
        {
          "internalType": "uint256",
          "name": "minLockUpRewardsPeriod",
          "type": "uint256"
        },
        {
          "internalType": "uint256",
          "name": "earlyWithdrawalFeeBasePoints",
          "type": "uint256"
        },
        {
          "internalType": "uint256",
          "name": "depositWithdrawFeeBasePoints",
          "type": "uint256"
        },
        {
          "internalType": "uint256",
          "name": "totalRewardBasePointsPerDistribution",
          "type": "uint256"
        },
        {
          "internalType": "bytes32",
          "name": "stakingTokensMask",
          "type": "bytes32"
        },
        {
          "internalType": "bytes32",
          "name": "rewardTokensMask",
          "type": "bytes32"
        },
        {
          "components": [
            {
              "internalType": "address",
              "name": "nonfungiblePositionManager",
              "type": "address"
            }
          ],
          "internalType": "struct FortunnaLib.CustomPoolParameters",
          "name": "custom",
          "type": "tuple"
        }
      ],
      "stateMutability": "view",
      "type": "function"
    },
    {
      "inputs": [
        {
          "internalType": "uint256",
          "name": "amount",
          "type": "uint256"
        }
      ],
      "name": "stake",
      "outputs": [],
      "stateMutability": "nonpayable",
      "type": "function"
    },
    {
      "inputs": [],
      "name": "stakingToken",
      "outputs": [
        {
          "internalType": "contract IFortunnaToken",
          "name": "",
          "type": "address"
        }
      ],
      "stateMutability": "view",
      "type": "function"
    },
    {
      "inputs": [],
      "name": "totalStakedTokensBalance",
      "outputs": [
        {
          "internalType": "uint256",
          "name": "",
          "type": "uint256"
        }
      ],
      "stateMutability": "view",
      "type": "function"
    },
    {
      "inputs": [],
      "name": "unpause",
      "outputs": [],
      "stateMutability": "nonpayable",
      "type": "function"
    },
    {
      "inputs": [],
      "name": "updatePool",
      "outputs": [],
      "stateMutability": "nonpayable",
      "type": "function"
    },
    {
      "inputs": [
        {
          "internalType": "address",
          "name": "",
          "type": "address"
        }
      ],
      "name": "usersInfo",
      "outputs": [
        {
          "internalType": "uint256",
          "name": "amount",
          "type": "uint256"
        },
        {
          "internalType": "uint256",
          "name": "rewardDebt",
          "type": "uint256"
        }
      ],
      "stateMutability": "view",
      "type": "function"
    },
    {
      "inputs": [
        {
          "internalType": "uint256",
          "name": "amount",
          "type": "uint256"
        }
      ],
      "name": "withdraw",
      "outputs": [],
      "stateMutability": "nonpayable",
      "type": "function"
    },
    {
      "inputs": [
        {
          "internalType": "address",
          "name": "receiver",
          "type": "address"
        }
      ],
      "name": "withdrawAllFees",
      "outputs": [],
      "stateMutability": "nonpayable",
      "type": "function"
    },
    {
      "inputs": [
        {
          "internalType": "address",
          "name": "receiver",
          "type": "address"
        },
        {
          "internalType": "enum FortunnaPool.Fee",
          "name": "fee",
          "type": "uint8"
        }
      ],
      "name": "withdrawFee",
      "outputs": [],
      "stateMutability": "nonpayable",
      "type": "function"
    }
  ],
  "transactionHash": "0x5e7f6f2f67d08439e88054066425cf19c20cf01017643786388b2329094467a5",
  "args": [],
  "numDeployments": 1,
  "solcInputHash": "dfc0b4bbd81236be9f16ab2d5a82ad4c",
  "bytecode": "0x60a060405230608052348015610013575f80fd5b505f805462ff0000191690556001805560805161255a6100385f395f505061255a5ff3fe608060405234801561000f575f80fd5b50600436106101bb575f3560e01c806372f702f3116100f3578063c45a015511610093578063dec8a7471161006e578063dec8a7471461040a578063e3161ddd14610413578063f7c618c11461041b578063f8077fae1461042e575f80fd5b8063c45a0155146103e8578063db2e21bc146103f9578063dd69f04f14610401575f80fd5b80638e997622116100ce5780638e997622146103b1578063902c736f146103c457806390aeb57d146103cd578063a694fc3a146103d5575f80fd5b806372f702f31461036b57806373328ce9146103965780638456cb59146103a9575f80fd5b80633813f8751161015e5780634430135a116101395780634430135a146102ef5780634c179042146103025780635c975abb146103155780635d0eaaaf14610330575f80fd5b80633813f875146102d65780633d18b912146102df5780633f4ba83a146102e7575f80fd5b80632e1a7d4d116101995780632e1a7d4d146102945780632fbbb3e5146102a75780633027a704146102ba57806331d7a262146102c3575f80fd5b80630910638a146101bf5780630bbdd007146101db5780631481f800146101e5575b5f80fd5b6101c860175481565b6040519081526020015b60405180910390f35b6101e3610437565b005b600354600454600554600654600754600854600954600a54600b54600c54600d546040805160208101909152600e546001600160a01b031681526102319b9a999897969594939291908c565b604080519c8d5260208d019b909b52998b019890985260608a0196909652608089019490945260a088019290925260c087015260e0860152610100850152610120840152610140830152516001600160a01b0316610160820152610180016101d2565b6101e36102a2366004611bb7565b61052b565b6101c86102b5366004611c60565b6106b9565b6101c860155481565b6101c86102d1366004611d59565b6107a1565b6101c860135481565b6101e361084f565b6101e3610872565b6101e36102fd366004611d7b565b610883565b6101e3610310366004611d59565b610ef5565b5f5462010000900460ff1660405190151581526020016101d2565b61035661033e366004611d59565b60186020525f90815260409020805460019091015482565b604080519283526020830191909152016101d2565b600f5461037e906001600160a01b031681565b6040516001600160a01b0390911681526020016101d2565b6101e36103a4366004611df9565b610f35565b6101e3610ff8565b6101c86103bf366004611e2c565b611009565b6101c860145481565b6101e3611036565b6101e36103e3366004611bb7565b6110ea565b6002546001600160a01b031661037e565b6101e3611266565b6101c860125481565b6101c860165481565b6101e36112f5565b60105461037e906001600160a01b031681565b6101c860115481565b7f508ce835b993083d562083854a88de07ecc701522f232cada7863173dfc40df361046181611372565b6010545f906001600160a01b03166370a08231336040516001600160e01b031960e084901b1681526001600160a01b039091166004820152602401602060405180830381865afa1580156104b7573d5f803e3d5ffd5b505050506040513d601f19601f820116820180604052508101906104db9190611e45565b90508060155f8282546104ee9190611e70565b90915550506040518181527fde88a922e0d3b88b24e9623efeb464919c6bf9f66857a65e2bfcf2ce87a9433d906020015b60405180910390a15050565b610533611418565b61053b611471565b335f81815260186020526040902080548311156105a657826040516333bf2e9f60e01b815260040161059d918152604060208201819052601690820152750c6c2dcdcdee8aed2e8d0c8e4c2eea8d0d2e69aeac6d60531b606082015260800190565b60405180910390fd5b6105ae6114d8565b82815f015f8282546105c09190611e83565b909155505060125481546402540be400916105da91611e96565b6105e49190611ead565b81600101819055508260145f8282546105fd9190611e83565b9091555050600a541561065157600a545f906127109061061d9086611e96565b6106279190611ead565b90508060196002015f82825461063d9190611e70565b9091555061064d90508185611e83565b9350505b600f54610668906001600160a01b03168385611639565b816001600160a01b03167f7084f5476618d8e60b11ef0d7d3f06914655adb8793e28ff7f018d4c76d505d5846040516106a391815260200190565b60405180910390a250506106b660018055565b50565b5f805b835181101561079a575f8482815181106106d8576106d8611ee0565b60200260200101519050806001600281106106f5576106f5611ee0565b60200201515f036107065750610788565b6020810151604051632f9d937f60e01b81526004810184905260248101919091526001600160a01b03851690632f9d937f90604401602060405180830381865afa158015610756573d5f803e3d5ffd5b505050506040513d601f19601f8201168201806040525081019061077a9190611e45565b6107849084611e70565b9250505b8061079281611ef4565b9150506106bc565b5092915050565b6001600160a01b0381165f908152601860205260408120601254601454601154421180156107ce57505f81115b15610819575f601354601154426107e59190611e83565b6107ef9190611e96565b9050816108016402540be40083611e96565b61080b9190611ead565b6108159084611e70565b9250505b600183015483546402540be40090610832908590611e96565b61083c9190611ead565b6108469190611e83565b95945050505050565b610857611418565b61085f611471565b6108676114d8565b61087060018055565b565b61087b5f611372565b6108706116a1565b5f54610100900460ff16158080156108a157505f54600160ff909116105b806108ba5750303b1580156108ba57505f5460ff166001145b61091d5760405162461bcd60e51b815260206004820152602e60248201527f496e697469616c697a61626c653a20636f6e747261637420697320616c72656160448201526d191e481a5b9a5d1a585b1a5e995960921b606482015260840161059d565b5f805460ff19166001179055801561093e575f805461ff0019166101001790555b338084600361094d8282611f35565b50849050601c61095d8282612131565b5050600280546001600160a01b0319166001600160a01b0383161790555f6001826001600160a01b031663ce883cdb6040518163ffffffff1660e01b8152600401602060405180830381865afa1580156109b9573d5f803e3d5ffd5b505050506040513d601f19601f820116820180604052508101906109dd9190611e45565b6109e79190611e83565b90505f826001600160a01b0316631bbb12fc846001600160a01b031663acc9606f6040518163ffffffff1660e01b8152600401602060405180830381865afa158015610a35573d5f803e3d5ffd5b505050506040513d601f19601f82011682018060405250810190610a599190611e45565b6040518263ffffffff1660e01b8152600401610a7791815260200190565b602060405180830381865afa158015610a92573d5f803e3d5ffd5b505050506040513d601f19601f82011682018060405250810190610ab69190612215565b604080516020808201869052600160f81b8284015282516021818403018152604183018452805190820120606183018790525f6081840152835160628185030181526082909301909352815191012091925090610b1c6001600160a01b038416836116f4565b600f80546001600160a01b0319166001600160a01b03928316179055610b44908416826116f4565b601080546001600160a01b0319166001600160a01b03928316179055600f5460405163f436f09360e01b815291169063f436f09390610b8c906001908d908d906004016123a0565b5f604051808303815f87803b158015610ba3575f80fd5b505af1158015610bb5573d5f803e3d5ffd5b505060105460405163f436f09360e01b81526001600160a01b03909116925063f436f0939150610bed905f908d908d906004016123a0565b5f604051808303815f87803b158015610c04575f80fd5b505af1158015610c16573d5f803e3d5ffd5b505f9250610c2891508a905080611fb1565b905067ffffffffffffffff811115610c4257610c42611bce565b604051908082528060200260200182016040528015610c6b578160200160208202803683370190505b5090505f5b610c7d60408b018b612012565b9050811015610d2757610c9360408b018b612012565b82818110610ca357610ca3611ee0565b905060400201600160028110610cbb57610cbb611ee0565b602002013582610cce60408d018d612012565b84818110610cde57610cde611ee0565b9050604002015f60028110610cf557610cf5611ee0565b602002013581518110610d0a57610d0a611ee0565b602090810291909101015280610d1f81611ef4565b915050610c70565b50600f5460405163de836ebd60e01b81526001600160a01b039091169063de836ebd90610d5a908e908590600401612441565b5f604051808303815f87803b158015610d71575f80fd5b505af1158015610d83573d5f803e3d5ffd5b505050505f5b610d9660208b018b612012565b9050811015610e4357610dac60208b018b612012565b82818110610dbc57610dbc611ee0565b905060400201600160028110610dd457610dd4611ee0565b6020020135828b8060200190610dea9190612012565b84818110610dfa57610dfa611ee0565b9050604002015f60028110610e1157610e11611ee0565b602002013581518110610e2657610e26611ee0565b602090810291909101015280610e3b81611ef4565b915050610d89565b5060105460405163de836ebd60e01b81526001600160a01b039091169063de836ebd90610e76908e908590600401612441565b5f604051808303815f87803b158015610e8d575f80fd5b505af1158015610e9f573d5f803e3d5ffd5b50505050505050505050508015610eef575f805461ff0019169055604051600181527f7f26b83ff96e1f2b6a682f133852f6798a09c465da95921460cefb38474024989060200160405180910390a15b50505050565b610efe5f611372565b5f5b6003811015610f3157610f1f828260028111156103a4576103a4611ecc565b80610f2981611ef4565b915050610f00565b5050565b610f3e5f611372565b5f816002811115610f5157610f51611ecc565b03610f8557610f85826019836002811115610f6e57610f6e611ecc565b60038110610f7e57610f7e611ee0565b0154611794565b6001816002811115610f9957610f99611ecc565b1480610fb657506002816002811115610fb457610fb4611ecc565b145b15610f3157610f31826019836002811115610fd357610fd3611ecc565b60038110610fe357610fe3611ee0565b0154600f546001600160a01b03169190611639565b6110015f611372565b6108706117dd565b5f601982600281111561101e5761101e611ecc565b6003811061102e5761102e611ee0565b015492915050565b7f508ce835b993083d562083854a88de07ecc701522f232cada7863173dfc40df361106081611372565b5f6127106003600801546015546110779190611e96565b6110819190611ead565b905061109b336010546001600160a01b031690308461181d565b8060175f8282546110ac9190611e70565b909155506110ba9050611855565b6040518181527fd2904f4877df3057e76c2da3130bd597114a6d0ff8b9952f7c99915a429e73709060200161051f565b6110f2611418565b600754811115611123576007546040516363038b1d60e11b815261059d918391600401918252602082015260400190565b6006548110156111545760065460405163b8d4634360e01b815261059d918391600401918252602082015260400190565b61115c611471565b335f8181526018602052604090206111726114d8565b600f5461118a906001600160a01b031683308661181d565b600a54156111d957600a545f90612710906111a59086611e96565b6111af9190611ead565b90508060196001015f8282546111c59190611e70565b909155506111d590508185611e83565b9350505b8260145f8282546111ea9190611e70565b90915550508054839082905f90611202908490611e70565b909155505060125481546402540be4009161121c91611e96565b6112269190611ead565b60018201556040518381526001600160a01b038316907f9e71bc8eea02a63969f509818f2dafb9254532904319f9dbda79b67bd34a5f3d906020016106a3565b335f8181526018602052604090208054600f54611290916001600160a01b03909116908490611639565b80546040519081526001600160a01b038316907f5fafa99d0643513820be26656b45130b01e1c03062e1266bf36f88cbd3bd96959060200160405180910390a28054601480545f906112e3908490611e83565b90915550505f80825560019091015550565b601154421161130057565b6014545f0361130f5742601155565b5f601354601154426113219190611e83565b61132b9190611e96565b905061133681611877565b6014546402540be40060135461134c9190611e96565b6113569190611ead565b60125f8282546113669190611e70565b90915550504260115550565b5f33600254604051632474521560e21b8152600481018590526001600160a01b0380841660248301529293509116906391d1485490604401602060405180830381865afa1580156113c5573d5f803e3d5ffd5b505050506040513d601f19601f820116820180604052508101906113e99190612496565b610f315760405163a78e4aa560e01b8152600481018390526001600160a01b038216602482015260440161059d565b60026001540361146a5760405162461bcd60e51b815260206004820152601f60248201527f5265656e7472616e637947756172643a207265656e7472616e742063616c6c00604482015260640161059d565b6002600155565b6004544210156114a557600454611489904290611e83565b60405163147fdec360e01b815260040161059d91815260200190565b600554421115610870576005546114bc9042611e83565b604051633652a8cb60e21b815260040161059d91815260200190565b335f8181526018602052604090206114ee6112f5565b5f81600101546402540be400601254845f015461150b9190611e96565b6115159190611ead565b61151f9190611e83565b6004549091505f821580159061153457508142115b801561154b57506008546115489083611e70565b42105b8015611558575060095415155b156115a0576009546127109061156e9085611e96565b6115789190611ead565b90508060195f015f82825461158d9190611e70565b9091555061159d90508184611e83565b92505b6115aa8584611794565b846001600160a01b03167fe2403640ba68fed3a2f88b7557551d1993f84b99bb10ff833f0cf8db0c5e0486846040516115e591815260200190565b60405180910390a25f6115f88285611e70565b90508060165f82825461160b9190611e83565b925050819055508060175f8282546116239190611e83565b909155506116319050611855565b505050505050565b6040516001600160a01b03831660248201526044810182905261169c90849063a9059cbb60e01b906064015b60408051601f198184030181529190526020810180516001600160e01b03166001600160e01b0319909316929092179091526118c1565b505050565b6116a9611994565b5f805462ff0000191690557f5db9ee0a495bf2e6ff9c91a7834c1ba4fdd244a5e8aa4e537bd38aeae4b073aa335b6040516001600160a01b03909116815260200160405180910390a1565b5f763d602d80600a3d3981f3363d3d373d3d3d363d730000008360601b60e81c175f526e5af43d82803e903d91602b57fd5bf38360781b1760205281603760095ff590506001600160a01b03811661178e5760405162461bcd60e51b815260206004820152601760248201527f455243313136373a2063726561746532206661696c6564000000000000000000604482015260640161059d565b92915050565b805f0361179f575050565b6016548111156117c657601654601054610f31916001600160a01b03909116908490611639565b601054610f31906001600160a01b03168383611639565b6117e56119e2565b5f805462ff00001916620100001790557f62e78cea01bee320cd4e420270b5ea74000d11b0c9f74754ebdbfc544b05a2586116d73390565b6040516001600160a01b0380851660248301528316604482015260648101829052610eef9085906323b872dd60e01b90608401611665565b6004546005546118659190611e83565b6017546118729190611ead565b601355565b8060165f8282546118889190611e70565b909155505060175460165411156106b65760175460165460405163c006882b60e01b81526004810192909252602482015260440161059d565b5f611915826040518060400160405280602081526020017f5361666545524332303a206c6f772d6c6576656c2063616c6c206661696c6564815250856001600160a01b0316611a2d9092919063ffffffff16565b905080515f14806119355750808060200190518101906119359190612496565b61169c5760405162461bcd60e51b815260206004820152602a60248201527f5361666545524332303a204552433230206f7065726174696f6e20646964206e6044820152691bdd081cdd58d8d9595960b21b606482015260840161059d565b5f5462010000900460ff166108705760405162461bcd60e51b815260206004820152601460248201527314185d5cd8589b194e881b9bdd081c185d5cd95960621b604482015260640161059d565b5f5462010000900460ff16156108705760405162461bcd60e51b815260206004820152601060248201526f14185d5cd8589b194e881c185d5cd95960821b604482015260640161059d565b6060611a3b84845f85611a43565b949350505050565b606082471015611aa45760405162461bcd60e51b815260206004820152602660248201527f416464726573733a20696e73756666696369656e742062616c616e636520666f6044820152651c8818d85b1b60d21b606482015260840161059d565b5f80866001600160a01b03168587604051611abf91906124d7565b5f6040518083038185875af1925050503d805f8114611af9576040519150601f19603f3d011682016040523d82523d5f602084013e611afe565b606091505b5091509150611b0f87838387611b1a565b979650505050505050565b60608315611b885782515f03611b81576001600160a01b0385163b611b815760405162461bcd60e51b815260206004820152601d60248201527f416464726573733a2063616c6c20746f206e6f6e2d636f6e7472616374000000604482015260640161059d565b5081611a3b565b611a3b8383815115611b9d5781518083602001fd5b8060405162461bcd60e51b815260040161059d91906124f2565b5f60208284031215611bc7575f80fd5b5035919050565b634e487b7160e01b5f52604160045260245ffd5b6040805190810167ffffffffffffffff81118282101715611c0557611c05611bce565b60405290565b604051601f8201601f1916810167ffffffffffffffff81118282101715611c3457611c34611bce565b604052919050565b6001600160a01b03811681146106b6575f80fd5b8035611c5b81611c3c565b919050565b5f806040808486031215611c72575f80fd5b833567ffffffffffffffff80821115611c89575f80fd5b8186019150601f8781840112611c9d575f80fd5b8235602083821115611cb157611cb1611bce565b611cbf818360051b01611c0b565b828152818101945060069290921b85018101918a831115611cde575f80fd5b948101945b82861015611d3d578a84870112611cf9575f8081fd5b611d01611be2565b808888018d811115611d12575f8081fd5b885b81811015611d2b5780358452928501928501611d14565b50508652509486019493810193611ce3565b9750611d4a898201611c50565b96505050505050509250929050565b5f60208284031215611d69575f80fd5b8135611d7481611c3c565b9392505050565b5f805f8385036101c0811215611d8f575f80fd5b8435611d9a81611c3c565b9350610180601f1982011215611dae575f80fd5b506020840191506101a084013567ffffffffffffffff811115611dcf575f80fd5b840160608187031215611de0575f80fd5b809150509250925092565b803560038110611c5b575f80fd5b5f8060408385031215611e0a575f80fd5b8235611e1581611c3c565b9150611e2360208401611deb565b90509250929050565b5f60208284031215611e3c575f80fd5b611d7482611deb565b5f60208284031215611e55575f80fd5b5051919050565b634e487b7160e01b5f52601160045260245ffd5b8082018082111561178e5761178e611e5c565b8181038181111561178e5761178e611e5c565b808202811582820484141761178e5761178e611e5c565b5f82611ec757634e487b7160e01b5f52601260045260245ffd5b500490565b634e487b7160e01b5f52602160045260245ffd5b634e487b7160e01b5f52603260045260245ffd5b5f60018201611f0557611f05611e5c565b5060010190565b8135611f1781611c3c565b81546001600160a01b0319166001600160a01b039190911617905550565b813581556020820135600182015560408201356002820155606082013560038201556080820135600482015560a0820135600582015560c0820135600682015560e0820135600782015561010082013560088201556101208201356009820155610140820135600a820155610f316101608301600b8301611f0c565b5f808335601e19843603018112611fc6575f80fd5b83018035915067ffffffffffffffff821115611fe0575f80fd5b6020019150600581901b3603821315611ff7575f80fd5b9250929050565b5b81811015610f31575f8155600101611fff565b5f808335601e19843603018112612027575f80fd5b83018035915067ffffffffffffffff821115612041575f80fd5b6020019150600681901b3603821315611ff7575f80fd5b815f5b6002811015610eef5781358382015560209091019060010161205b565b600160401b83111561208c5761208c611bce565b8054838255808410156120fd576001600160ff1b0381811682146120b2576120b2611e5c565b80851685146120c3576120c3611e5c565b50815f5260205f208160011b81018560011b820191505b808210156120fa576120ef6002830183611ffe565b6002820191506120da565b50505b505f8181526020812083915b858110156116315761211b8383612058565b6040929092019160029190910190600101612109565b8135601e19833603018112612144575f80fd5b8201803567ffffffffffffffff81111561215c575f80fd5b602080830192508160051b3603831315612174575f80fd5b600160401b82111561218857612188611bce565b8354828555808310156121ab57845f52815f206121a9828201858301611ffe565b505b50835f52805f205f5b838110156121d75784356121c781611c3c565b82820155938201936001016121b4565b50506121e581860186612012565b93509150506121f8828260018601612078565b50506122076040830183612012565b610eef818360028601612078565b5f60208284031215612225575f80fd5b8151611d7481611c3c565b803561223b81611c3c565b6001600160a01b031690915250565b5f808335601e1984360301811261225f575f80fd5b830160208101925035905067ffffffffffffffff81111561227e575f80fd5b8060061b3603821315611ff7575f80fd5b8183526020830192505f815f5b848110156122bb5760408083883795860195919091019060010161229c565b5093949350505050565b5f606083018235601e198436030181126122dd575f80fd5b8301602081810191359067ffffffffffffffff8211156122fb575f80fd5b8160051b360383131561230c575f80fd5b606087529281905290915f9190608087015b8284101561234e57843561233181611c3c565b6001600160a01b031681529381019360019390930192810161231e565b61235a8288018861224a565b955093508781038289015261237081868661228f565b945050505050612383604084018461224a565b858303604087015261239683828461228f565b9695505050505050565b5f6101c0851515835284356020840152602085013560408401526040850135606084015260608501356080840152608085013560a084015260a085013560c084015260c085013560e084015261010060e08601358185015261012081870135818601526101409150808701358286015250610160818701358186015261242c6101808601828901612230565b5050806101a0840152612396818401856122c5565b6001600160a01b03831681526040602080830182905283519183018290525f9184820191906060850190845b818110156124895784518352938301939183019160010161246d565b5090979650505050505050565b5f602082840312156124a6575f80fd5b81518015158114611d74575f80fd5b5f5b838110156124cf5781810151838201526020016124b7565b50505f910152565b5f82516124e88184602087016124b5565b9190910192915050565b602081525f82518060208401526125108160408501602087016124b5565b601f01601f1916919091016040019291505056fea26469706673582212205bc18d8d9a7a93dc3095c75f6dc48a15dcf4564907fbc81a4e892e937f0fe8ff64736f6c63430008140033",
  "libraries": {
    "FortunnaLib": "0x35BB379Afe0bDA7B3DeC5f7E9ccEc2218aA5FDAe",
    "FortunnaErrorsLib": "0x2d263395545cDBB611EF39B649497ff2191Ad05D",
    "FortunnaBitMaskLib": "0x3Cb90a598cB93bc72467a50898a27dc09043Fdec"
  },
  "devdoc": {
    "author": "Fortunna Team",
    "errors": {
      "DistributionEnded(uint256)": [
        {
          "details": "An error to be reverted if the pool expired.",
          "params": {
            "timeDifference": "A time how long the pool is expired."
          }
        }
      ],
      "DistributionNotStarted(uint256)": [
        {
          "details": "An error to be reverted if the pool has not yet been started.",
          "params": {
            "timeDifference": "A time how long befire the pool is starting to work."
          }
        }
      ],
      "InvalidScalar(uint256,string)": [
        {
          "details": "An error to be reverted if some scalar property of the data structure was addressed wrongly.",
          "params": {
            "comment": "Some comment as to what kind of a data structure property this is.",
            "scalar": "A scalar."
          }
        }
      ],
      "NotAuthorized(bytes32,address)": [
        {
          "details": "An error to be reverted if an `entity` does not possess the `role`.",
          "params": {
            "entity": "An entity violating authorization.",
            "role": "A role an entity doesn't posess."
          }
        }
      ],
      "NotEnoughRewardToDistribute(uint256,uint256)": [
        {
          "details": "An error to be reverted if the pool lacks the rewards amount to distribute."
        }
      ],
      "NotEnoughStaked(uint256,uint256)": [
        {
          "details": "An error to be reverted if some staker did not satisfy minimum limitations for the stake operation.",
          "params": {
            "amount": "An actual stake amount provided.",
            "limit": "A minimum limit to be satisfied."
          }
        }
      ],
      "TooMuchStaked(uint256,uint256)": [
        {
          "details": "An error to be reverted if some staker did not satisfy maximum limitations for the stake operation.",
          "params": {
            "amount": "An actual stake amount provided.",
            "limit": "A maximum limit to be satisfied."
          }
        }
      ]
    },
    "events": {
      "EmergencyWithdraw(address,uint256)": {
        "params": {
          "amount": "An amount of Fortuna Dust to be withdrawn.",
          "user": "A user (staker) address."
        }
      },
      "Initialized(uint8)": {
        "details": "Triggered when the contract has been initialized or reinitialized."
      },
      "PartDistributed(uint256)": {
        "params": {
          "partOfTotalRewards": "An exact amount of the part."
        }
      },
      "Paused(address)": {
        "details": "Emitted when the pause is triggered by `account`."
      },
      "RewardAdded(uint256)": {
        "params": {
          "reward": "An exact amount of the total rewards."
        }
      },
      "RewardPaid(address,uint256)": {
        "params": {
          "reward": "A reward Fortuna Dust paid to the user.",
          "user": "A user (staker) address."
        }
      },
      "Staked(address,uint256)": {
        "params": {
          "amount": "Amount of the Fortuna Dust staked.",
          "user": "A user (staker) address."
        }
      },
      "Unpaused(address)": {
        "details": "Emitted when the pause is lifted by `account`."
      },
      "Withdrawn(address,uint256)": {
        "params": {
          "amount": "An amount of the Fortuna Dust to be withdrawn.",
          "user": "A user (staker) address."
        }
      }
    },
    "kind": "dev",
    "methods": {
      "calculateFortunnaTokens(uint256[2][],address)": {
        "params": {
          "fortunnaTokenAddress": "A corresponding Fortuna Dust contract.",
          "initialAmounts": "A set of pairs of <index of the underlying token, an amount of this token>. "
        },
        "returns": {
          "amountToMint": "An amount of the Fortuna Dust minted."
        }
      },
      "getAccumulatedFeesAmount(uint8)": {
        "params": {
          "fee": "A type of the fees."
        },
        "returns": {
          "_0": "An amount claimable for the admin."
        }
      },
      "initialize(address,(uint256,uint256,uint256,uint256,uint256,uint256,uint256,uint256,uint256,bytes32,bytes32,(address)),(address[],uint256[2][],uint256[2][]))": {
        "params": {
          "poolOwner": "An owner of the pool address.",
          "poolParameters": "A scalar parameters of the pool.",
          "poolParametersArrays": "A vector parameters of the pool."
        }
      },
      "pause()": {
        "details": "Could be called only by the admin."
      },
      "paused()": {
        "details": "Returns true if the contract is paused, and false otherwise."
      },
      "pendingRewards(address)": {
        "params": {
          "user": "A user (staker) address."
        },
        "returns": {
          "_0": "An amount of rewards that belongs to the `user`."
        }
      },
      "stake(uint256)": {
        "params": {
          "amount": "An amount of the Fortuna Dust to be staked."
        }
      },
      "unpause()": {
        "details": "Could be called only by the admin."
      },
      "withdraw(uint256)": {
        "params": {
          "amount": "An amount of Fortuna Dust to be withdrawn."
        }
      },
      "withdrawAllFees(address)": {
        "params": {
          "receiver": "A receiver of the claimed fees."
        }
      },
      "withdrawFee(address,uint8)": {
        "params": {
          "fee": "A type of the fees.",
          "receiver": "A receiver of the claimed fees."
        }
      }
    },
    "stateVariables": {
      "_FEE_LENGTH": {
        "details": "A constant that equals to the `type(Fee).max`."
      },
      "_accumulatedFees": {
        "details": "An internal list of an accumulated fees amounts."
      },
      "vectorParams": {
        "details": "An internal container of vector parameters of the pool."
      }
    },
    "title": "Classic Fortunna Yield Farming pool",
    "version": 1
  },
  "userdoc": {
    "events": {
      "EmergencyWithdraw(address,uint256)": {
        "notice": "An event to be emitted when a user performs an emergency withdraw of their staked Fortuna Dust."
      },
      "PartDistributed(uint256)": {
        "notice": "An event to be emitted when the part of the total reward is set to be distributed."
      },
      "RewardAdded(uint256)": {
        "notice": "An event to be emitted when the total reward is set up."
      },
      "RewardPaid(address,uint256)": {
        "notice": "An event to be emitted when a user receives a reward Fortuna Dust."
      },
      "Staked(address,uint256)": {
        "notice": "An event to be emitted when a user performs the stake."
      },
      "Withdrawn(address,uint256)": {
        "notice": "An event to be emitted when a user withdraws their staked Fortuna Dust."
      }
    },
    "kind": "user",
    "methods": {
      "accRewardTokenPerShare()": {
        "notice": "A getter function for the accrued rewards amount per share (deposit)."
      },
      "addExpectedRewardTokensBalanceToDistribute()": {
        "notice": "A function that only callable by the bearer of the `POOL_REWARDS_PROVIDER` role. It sets an expected total amount of reward Fortuna Dust to be distributed."
      },
      "calculateFortunnaTokens(uint256[2][],address)": {
        "notice": "A helper function is to calculate the Fortuna Dust that would be minted when an initial amounts provided."
      },
      "emergencyWithdraw()": {
        "notice": "One of the main functions - only called when necessary by the staker, it withdraws senders (stakers) funds without getting the reward, so the funds would be returned safely."
      },
      "expectedRewardTokensBalanceToDistribute()": {
        "notice": "A getter for the variable that stores the total expected amount of Fortuna Dust to be distributed."
      },
      "factory()": {
        "notice": "A getter function that returns a FortunnaFactory instance address."
      },
      "getAccumulatedFeesAmount(uint8)": {
        "notice": "An information function for the admin and the public to acquire an accumulated fees."
      },
      "getReward()": {
        "notice": "One of the main functions - so that the staker could acquire the rewards without having to withdraw his funds."
      },
      "initialize(address,(uint256,uint256,uint256,uint256,uint256,uint256,uint256,uint256,uint256,bytes32,bytes32,(address)),(address[],uint256[2][],uint256[2][]))": {
        "notice": "A function that is to be called when the pool is created by the factory."
      },
      "lastRewardTimestamp()": {
        "notice": "A getter function for the timestamp when the pool was updated last."
      },
      "pause()": {
        "notice": "Triggers paused state."
      },
      "pendingRewards(address)": {
        "notice": "A view function that could get a reward amount belongs to the user."
      },
      "providePartOfTotalRewards()": {
        "notice": "A function that only callable by the bearer of the `POOL_REWARDS_PROVIDER` role. It provides an actual part of the expected total reward Fortuna Dust to the pool and starts distributing."
      },
      "providedRewardTokensBalance()": {
        "notice": "A getter for the variable that stores the total provided Fortuna Dust tokens provided by the admin."
      },
      "requestedRewardTokensToDistribute()": {
        "notice": "A getter for the variable that stores the total requested amount of Fortuna Dust to be distrubted."
      },
      "rewardToken()": {
        "notice": "A getter function for reward Fortuna Dust token address."
      },
      "rewardTokensPerSec()": {
        "notice": "A getter for the amount of reward Fortuna Dust per second."
      },
      "scalarParams()": {
        "notice": "A scalar params of the pool;"
      },
      "stake(uint256)": {
        "notice": "One of the main functions - so the sender could stake the Fortuna Dust."
      },
      "stakingToken()": {
        "notice": "A getter function for staking Fortuna Dust token address."
      },
      "totalStakedTokensBalance()": {
        "notice": "A getter for the total staked Fortuna Dust amount."
      },
      "unpause()": {
        "notice": "Returns to normal state."
      },
      "updatePool()": {
        "notice": "A function that updates the pool info. Rewards per seconds, accumulative variables."
      },
      "usersInfo(address)": {
        "notice": "A getter for the users info struct. (Parameter: A user (staker) address.)"
      },
      "withdraw(uint256)": {
        "notice": "One of the main functions - so the staker could withdraw his staked amounts."
      },
      "withdrawAllFees(address)": {
        "notice": "An analogical function like `withdrawFee`. But it claims all types of the fees."
      },
      "withdrawFee(address,uint8)": {
        "notice": "A function that callable only by the admin. It claims an accumulated fees."
      }
    },
    "notice": "Deploys Classic Fortunna Yield Farming pool.",
    "version": 1
  },
  "storageLayout": {
    "storage": [
      {
        "astId": 588,
        "contract": "contracts/FortunnaPool.sol:FortunnaPool",
        "label": "_initialized",
        "offset": 0,
        "slot": "0",
        "type": "t_uint8"
      },
      {
        "astId": 591,
        "contract": "contracts/FortunnaPool.sol:FortunnaPool",
        "label": "_initializing",
        "offset": 1,
        "slot": "0",
        "type": "t_bool"
      },
      {
        "astId": 768,
        "contract": "contracts/FortunnaPool.sol:FortunnaPool",
        "label": "_paused",
        "offset": 2,
        "slot": "0",
        "type": "t_bool"
      },
      {
        "astId": 869,
        "contract": "contracts/FortunnaPool.sol:FortunnaPool",
        "label": "_status",
        "offset": 0,
        "slot": "1",
        "type": "t_uint256"
      },
      {
        "astId": 4450,
        "contract": "contracts/FortunnaPool.sol:FortunnaPool",
        "label": "_factory",
        "offset": 0,
        "slot": "2",
        "type": "t_address"
      },
      {
        "astId": 5384,
        "contract": "contracts/FortunnaPool.sol:FortunnaPool",
        "label": "scalarParams",
        "offset": 0,
        "slot": "3",
        "type": "t_struct(PoolParameters)8121_storage"
      },
      {
        "astId": 5388,
        "contract": "contracts/FortunnaPool.sol:FortunnaPool",
        "label": "stakingToken",
        "offset": 0,
        "slot": "15",
        "type": "t_contract(IFortunnaToken)7786"
      },
      {
        "astId": 5392,
        "contract": "contracts/FortunnaPool.sol:FortunnaPool",
        "label": "rewardToken",
        "offset": 0,
        "slot": "16",
        "type": "t_contract(IFortunnaToken)7786"
      },
      {
        "astId": 5395,
        "contract": "contracts/FortunnaPool.sol:FortunnaPool",
        "label": "lastRewardTimestamp",
        "offset": 0,
        "slot": "17",
        "type": "t_uint256"
      },
      {
        "astId": 5398,
        "contract": "contracts/FortunnaPool.sol:FortunnaPool",
        "label": "accRewardTokenPerShare",
        "offset": 0,
        "slot": "18",
        "type": "t_uint256"
      },
      {
        "astId": 5401,
        "contract": "contracts/FortunnaPool.sol:FortunnaPool",
        "label": "rewardTokensPerSec",
        "offset": 0,
        "slot": "19",
        "type": "t_uint256"
      },
      {
        "astId": 5404,
        "contract": "contracts/FortunnaPool.sol:FortunnaPool",
        "label": "totalStakedTokensBalance",
        "offset": 0,
        "slot": "20",
        "type": "t_uint256"
      },
      {
        "astId": 5407,
        "contract": "contracts/FortunnaPool.sol:FortunnaPool",
        "label": "expectedRewardTokensBalanceToDistribute",
        "offset": 0,
        "slot": "21",
        "type": "t_uint256"
      },
      {
        "astId": 5410,
        "contract": "contracts/FortunnaPool.sol:FortunnaPool",
        "label": "requestedRewardTokensToDistribute",
        "offset": 0,
        "slot": "22",
        "type": "t_uint256"
      },
      {
        "astId": 5413,
        "contract": "contracts/FortunnaPool.sol:FortunnaPool",
        "label": "providedRewardTokensBalance",
        "offset": 0,
        "slot": "23",
        "type": "t_uint256"
      },
      {
        "astId": 5419,
        "contract": "contracts/FortunnaPool.sol:FortunnaPool",
        "label": "usersInfo",
        "offset": 0,
        "slot": "24",
        "type": "t_mapping(t_address,t_struct(UserInfo)5371_storage)"
      },
      {
        "astId": 5424,
        "contract": "contracts/FortunnaPool.sol:FortunnaPool",
        "label": "_accumulatedFees",
        "offset": 0,
        "slot": "25",
        "type": "t_array(t_uint256)3_storage"
      },
      {
        "astId": 5428,
        "contract": "contracts/FortunnaPool.sol:FortunnaPool",
        "label": "vectorParams",
        "offset": 0,
        "slot": "28",
        "type": "t_struct(PoolParametersArrays)8136_storage"
      }
    ],
    "types": {
      "t_address": {
        "encoding": "inplace",
        "label": "address",
        "numberOfBytes": "20"
      },
      "t_array(t_address)dyn_storage": {
        "base": "t_address",
        "encoding": "dynamic_array",
        "label": "address[]",
        "numberOfBytes": "32"
      },
      "t_array(t_array(t_uint256)2_storage)dyn_storage": {
        "base": "t_array(t_uint256)2_storage",
        "encoding": "dynamic_array",
        "label": "uint256[2][]",
        "numberOfBytes": "32"
      },
      "t_array(t_uint256)2_storage": {
        "base": "t_uint256",
        "encoding": "inplace",
        "label": "uint256[2]",
        "numberOfBytes": "64"
      },
      "t_array(t_uint256)3_storage": {
        "base": "t_uint256",
        "encoding": "inplace",
        "label": "uint256[3]",
        "numberOfBytes": "96"
      },
      "t_bool": {
        "encoding": "inplace",
        "label": "bool",
        "numberOfBytes": "1"
      },
      "t_bytes32": {
        "encoding": "inplace",
        "label": "bytes32",
        "numberOfBytes": "32"
      },
      "t_contract(IFortunnaToken)7786": {
        "encoding": "inplace",
        "label": "contract IFortunnaToken",
        "numberOfBytes": "20"
      },
      "t_mapping(t_address,t_struct(UserInfo)5371_storage)": {
        "encoding": "mapping",
        "key": "t_address",
        "label": "mapping(address => struct FortunnaPool.UserInfo)",
        "numberOfBytes": "32",
        "value": "t_struct(UserInfo)5371_storage"
      },
      "t_struct(CustomPoolParameters)8094_storage": {
        "encoding": "inplace",
        "label": "struct FortunnaLib.CustomPoolParameters",
        "members": [
          {
            "astId": 8093,
            "contract": "contracts/FortunnaPool.sol:FortunnaPool",
            "label": "nonfungiblePositionManager",
            "offset": 0,
            "slot": "0",
            "type": "t_address"
          }
        ],
        "numberOfBytes": "32"
      },
      "t_struct(PoolParameters)8121_storage": {
        "encoding": "inplace",
        "label": "struct FortunnaLib.PoolParameters",
        "members": [
          {
            "astId": 8097,
            "contract": "contracts/FortunnaPool.sol:FortunnaPool",
            "label": "protoPoolIdx",
            "offset": 0,
            "slot": "0",
            "type": "t_uint256"
          },
          {
            "astId": 8099,
            "contract": "contracts/FortunnaPool.sol:FortunnaPool",
            "label": "startTimestamp",
            "offset": 0,
            "slot": "1",
            "type": "t_uint256"
          },
          {
            "astId": 8101,
            "contract": "contracts/FortunnaPool.sol:FortunnaPool",
            "label": "endTimestamp",
            "offset": 0,
            "slot": "2",
            "type": "t_uint256"
          },
          {
            "astId": 8103,
            "contract": "contracts/FortunnaPool.sol:FortunnaPool",
            "label": "minStakeAmount",
            "offset": 0,
            "slot": "3",
            "type": "t_uint256"
          },
          {
            "astId": 8105,
            "contract": "contracts/FortunnaPool.sol:FortunnaPool",
            "label": "maxStakeAmount",
            "offset": 0,
            "slot": "4",
            "type": "t_uint256"
          },
          {
            "astId": 8107,
            "contract": "contracts/FortunnaPool.sol:FortunnaPool",
            "label": "minLockUpRewardsPeriod",
            "offset": 0,
            "slot": "5",
            "type": "t_uint256"
          },
          {
            "astId": 8109,
            "contract": "contracts/FortunnaPool.sol:FortunnaPool",
            "label": "earlyWithdrawalFeeBasePoints",
            "offset": 0,
            "slot": "6",
            "type": "t_uint256"
          },
          {
            "astId": 8111,
            "contract": "contracts/FortunnaPool.sol:FortunnaPool",
            "label": "depositWithdrawFeeBasePoints",
            "offset": 0,
            "slot": "7",
            "type": "t_uint256"
          },
          {
            "astId": 8113,
            "contract": "contracts/FortunnaPool.sol:FortunnaPool",
            "label": "totalRewardBasePointsPerDistribution",
            "offset": 0,
            "slot": "8",
            "type": "t_uint256"
          },
          {
            "astId": 8115,
            "contract": "contracts/FortunnaPool.sol:FortunnaPool",
            "label": "stakingTokensMask",
            "offset": 0,
            "slot": "9",
            "type": "t_bytes32"
          },
          {
            "astId": 8117,
            "contract": "contracts/FortunnaPool.sol:FortunnaPool",
            "label": "rewardTokensMask",
            "offset": 0,
            "slot": "10",
            "type": "t_bytes32"
          },
          {
            "astId": 8120,
            "contract": "contracts/FortunnaPool.sol:FortunnaPool",
            "label": "custom",
            "offset": 0,
            "slot": "11",
            "type": "t_struct(CustomPoolParameters)8094_storage"
          }
        ],
        "numberOfBytes": "384"
      },
      "t_struct(PoolParametersArrays)8136_storage": {
        "encoding": "inplace",
        "label": "struct FortunnaLib.PoolParametersArrays",
        "members": [
          {
            "astId": 8125,
            "contract": "contracts/FortunnaPool.sol:FortunnaPool",
            "label": "utilizingTokens",
            "offset": 0,
            "slot": "0",
            "type": "t_array(t_address)dyn_storage"
          },
          {
            "astId": 8130,
            "contract": "contracts/FortunnaPool.sol:FortunnaPool",
            "label": "initialRewardAmounts",
            "offset": 0,
            "slot": "1",
            "type": "t_array(t_array(t_uint256)2_storage)dyn_storage"
          },
          {
            "astId": 8135,
            "contract": "contracts/FortunnaPool.sol:FortunnaPool",
            "label": "initialDepositAmounts",
            "offset": 0,
            "slot": "2",
            "type": "t_array(t_array(t_uint256)2_storage)dyn_storage"
          }
        ],
        "numberOfBytes": "96"
      },
      "t_struct(UserInfo)5371_storage": {
        "encoding": "inplace",
        "label": "struct FortunnaPool.UserInfo",
        "members": [
          {
            "astId": 5368,
            "contract": "contracts/FortunnaPool.sol:FortunnaPool",
            "label": "amount",
            "offset": 0,
            "slot": "0",
            "type": "t_uint256"
          },
          {
            "astId": 5370,
            "contract": "contracts/FortunnaPool.sol:FortunnaPool",
            "label": "rewardDebt",
            "offset": 0,
            "slot": "1",
            "type": "t_uint256"
          }
        ],
        "numberOfBytes": "64"
      },
      "t_uint256": {
        "encoding": "inplace",
        "label": "uint256",
        "numberOfBytes": "32"
      },
      "t_uint8": {
        "encoding": "inplace",
        "label": "uint8",
        "numberOfBytes": "1"
      }
    }
  }
}