{
  "address": "0x9C1b0AA8062a09C7f8cf312ff3Cc197833D74487",
  "abi": [
    {
      "inputs": [],
      "name": "ALLOWED_EXTERNAL_TOKEN_ROLE",
      "outputs": [
        {
          "internalType": "bytes32",
          "name": "",
          "type": "bytes32"
        }
      ],
      "stateMutability": "view",
      "type": "function"
    },
    {
      "inputs": [],
      "name": "ALLOWED_PAYMENT_TOKEN_ROLE",
      "outputs": [
        {
          "internalType": "bytes32",
          "name": "",
          "type": "bytes32"
        }
      ],
      "stateMutability": "view",
      "type": "function"
    },
    {
      "inputs": [],
      "name": "ALLOWED_REWARD_TOKEN_ROLE",
      "outputs": [
        {
          "internalType": "bytes32",
          "name": "",
          "type": "bytes32"
        }
      ],
      "stateMutability": "view",
      "type": "function"
    },
    {
      "inputs": [],
      "name": "ALLOWED_STAKING_TOKEN_ROLE",
      "outputs": [
        {
          "internalType": "bytes32",
          "name": "",
          "type": "bytes32"
        }
      ],
      "stateMutability": "view",
      "type": "function"
    },
    {
      "inputs": [],
      "name": "BANNED_ROLE",
      "outputs": [
        {
          "internalType": "bytes32",
          "name": "",
          "type": "bytes32"
        }
      ],
      "stateMutability": "view",
      "type": "function"
    },
    {
      "inputs": [],
      "name": "BASE_POINTS_MAX",
      "outputs": [
        {
          "internalType": "uint256",
          "name": "",
          "type": "uint256"
        }
      ],
      "stateMutability": "view",
      "type": "function"
    },
    {
      "inputs": [],
      "name": "DEAD_ADDRESS",
      "outputs": [
        {
          "internalType": "address",
          "name": "",
          "type": "address"
        }
      ],
      "stateMutability": "view",
      "type": "function"
    },
    {
      "inputs": [],
      "name": "LP_MINTER_BURNER_ROLE",
      "outputs": [
        {
          "internalType": "bytes32",
          "name": "",
          "type": "bytes32"
        }
      ],
      "stateMutability": "view",
      "type": "function"
    },
    {
      "inputs": [],
      "name": "POOL_REWARDS_PROVIDER",
      "outputs": [
        {
          "internalType": "bytes32",
          "name": "",
          "type": "bytes32"
        }
      ],
      "stateMutability": "view",
      "type": "function"
    },
    {
      "inputs": [],
      "name": "PRECISION",
      "outputs": [
        {
          "internalType": "uint256",
          "name": "",
          "type": "uint256"
        }
      ],
      "stateMutability": "view",
      "type": "function"
    }
  ],
  "transactionHash": "0x15936a9bbd5f401ae4a66738498f1b6626f11ac553f5fa985b79975a5a41ff2f",
  "args": [],
  "numDeployments": 1,
  "solcInputHash": "dfc0b4bbd81236be9f16ab2d5a82ad4c",
  "bytecode": "0x61023a610035600b8282823980515f1a60731461002957634e487b7160e01b5f525f60045260245ffd5b305f52607381538281f3fe73000000000000000000000000000000000000000030146080604052600436106100a6575f3560e01c8063aaf5eb681161006e578063aaf5eb681461017a578063afd4138c14610186578063dcb6b0d01461018f578063f86b8d55146101b6578063feedbbd0146101dd575f80fd5b806319c3c90c146100aa5780632a07c57c146100e45780632e9c39431461010b5780633d0c4c0f146101325780634e6fd6c414610159575b5f80fd5b6100d17f508ce835b993083d562083854a88de07ecc701522f232cada7863173dfc40df381565b6040519081526020015b60405180910390f35b6100d17ff2006e6ab5b724adc71b981e8b898a8359b6397c6778f9a7aa161ce3e24fee4481565b6100d17fa13b5fd39f62a16c47923a1b238b123e180d525e88a29febb32fa41cabad579881565b6100d17f8e7eec3a91568ea051efb6d35e7514ef01e4807481274e632bc3d6a704427c5881565b61016261dead81565b6040516001600160a01b0390911681526020016100db565b6100d16402540be40081565b6100d161271081565b6100d17f185fa0fa3354ff548ee95bc7375967e5e2cdbd00e7211f15ee5ea68c1d5dbae581565b6100d17f3735310f7cbb434a4412bb30a00c71d49f056e4bfe5a28c0b8c295a228fbbbde81565b6100d17f887501d93d651d0c9fdbe85f9da87d0d1fd1b1e2fa77767b6129c0bf474923ac8156fea2646970667358221220493109fb832e890f66d1dfddcd5e78e525a212d00a9329370001887085d5d27e64736f6c63430008140033",
  "devdoc": {
    "author": "Fortunna Team",
    "kind": "dev",
    "methods": {},
    "title": "Canonical Fortunna Yield Farming pools lib",
    "version": 1
  },
  "userdoc": {
    "kind": "user",
    "methods": {
      "ALLOWED_EXTERNAL_TOKEN_ROLE()": {
        "notice": "A role hash to mark addresses to be held as external reward tokens from another protocols."
      },
      "ALLOWED_PAYMENT_TOKEN_ROLE()": {
        "notice": "A role hash to mark addresses to be held as payment for pool deploy tokens."
      },
      "ALLOWED_REWARD_TOKEN_ROLE()": {
        "notice": "A role hash to mark addresses to be held as reward tokens."
      },
      "ALLOWED_STAKING_TOKEN_ROLE()": {
        "notice": "A role hash to mark addresses to be held as staking tokens."
      },
      "BANNED_ROLE()": {
        "notice": "A role hash to mark addresses to be held as banned users."
      },
      "BASE_POINTS_MAX()": {
        "notice": "A max of base points. (ex. Like 100 in percents)"
      },
      "DEAD_ADDRESS()": {
        "notice": "A dead address for floor tokens to be minted"
      },
      "LP_MINTER_BURNER_ROLE()": {
        "notice": "A role hash to indicate who can mint and burn the `FortunnaToken`'s."
      },
      "POOL_REWARDS_PROVIDER()": {
        "notice": "A role hash to indicate who can mint and burn the `FortunnaToken`'s."
      },
      "PRECISION()": {
        "notice": "A given precision for math operations;"
      }
    },
    "notice": "A lib holding default errors, helpers functions and constants.",
    "version": 1
  },
  "storageLayout": {
    "storage": [],
    "types": null
  }
}