{
  "address": "0x9D0aE0DF7372B5eeD94e0d32ca0BAf41001f7E41",
  "abi": [
    {
      "inputs": [
        {
          "internalType": "uint256",
          "name": "timeDifference",
          "type": "uint256"
        }
      ],
      "name": "DistributionEnded",
      "type": "error"
    },
    {
      "inputs": [
        {
          "internalType": "uint256",
          "name": "timeDifference",
          "type": "uint256"
        }
      ],
      "name": "DistributionNotStarted",
      "type": "error"
    },
    {
      "inputs": [
        {
          "internalType": "uint256",
          "name": "scalar",
          "type": "uint256"
        },
        {
          "internalType": "string",
          "name": "comment",
          "type": "string"
        }
      ],
      "name": "InvalidScalar",
      "type": "error"
    },
    {
      "inputs": [
        {
          "internalType": "bytes32",
          "name": "role",
          "type": "bytes32"
        },
        {
          "internalType": "address",
          "name": "entity",
          "type": "address"
        }
      ],
      "name": "NotAuthorized",
      "type": "error"
    },
    {
      "inputs": [
        {
          "internalType": "uint256",
          "name": "provided",
          "type": "uint256"
        },
        {
          "internalType": "uint256",
          "name": "actual",
          "type": "uint256"
        }
      ],
      "name": "NotEnoughRewardToDistribute",
      "type": "error"
    },
    {
      "inputs": [
        {
          "internalType": "uint256",
          "name": "amount",
          "type": "uint256"
        },
        {
          "internalType": "uint256",
          "name": "limit",
          "type": "uint256"
        }
      ],
      "name": "NotEnoughStaked",
      "type": "error"
    },
    {
      "inputs": [
        {
          "internalType": "uint256",
          "name": "amount",
          "type": "uint256"
        },
        {
          "internalType": "uint256",
          "name": "limit",
          "type": "uint256"
        }
      ],
      "name": "TooMuchStaked",
      "type": "error"
    },
    {
      "anonymous": false,
      "inputs": [
        {
          "indexed": true,
          "internalType": "address",
          "name": "user",
          "type": "address"
        },
        {
          "indexed": false,
          "internalType": "uint256",
          "name": "reward",
          "type": "uint256"
        }
      ],
      "name": "EmergencyWithdraw",
      "type": "event"
    },
    {
      "anonymous": false,
      "inputs": [
        {
          "indexed": false,
          "internalType": "uint8",
          "name": "version",
          "type": "uint8"
        }
      ],
      "name": "Initialized",
      "type": "event"
    },
    {
      "anonymous": false,
      "inputs": [
        {
          "indexed": false,
          "internalType": "uint256",
          "name": "partOfTotalRewards",
          "type": "uint256"
        }
      ],
      "name": "PartDistributed",
      "type": "event"
    },
    {
      "anonymous": false,
      "inputs": [
        {
          "indexed": false,
          "internalType": "address",
          "name": "account",
          "type": "address"
        }
      ],
      "name": "Paused",
      "type": "event"
    },
    {
      "anonymous": false,
      "inputs": [
        {
          "indexed": false,
          "internalType": "uint256",
          "name": "reward",
          "type": "uint256"
        }
      ],
      "name": "RewardAdded",
      "type": "event"
    },
    {
      "anonymous": false,
      "inputs": [
        {
          "indexed": true,
          "internalType": "address",
          "name": "user",
          "type": "address"
        },
        {
          "indexed": false,
          "internalType": "uint256",
          "name": "reward",
          "type": "uint256"
        }
      ],
      "name": "RewardPaid",
      "type": "event"
    },
    {
      "anonymous": false,
      "inputs": [
        {
          "indexed": true,
          "internalType": "address",
          "name": "user",
          "type": "address"
        },
        {
          "indexed": false,
          "internalType": "uint256",
          "name": "amount",
          "type": "uint256"
        }
      ],
      "name": "Staked",
      "type": "event"
    },
    {
      "anonymous": false,
      "inputs": [
        {
          "indexed": false,
          "internalType": "address",
          "name": "account",
          "type": "address"
        }
      ],
      "name": "Unpaused",
      "type": "event"
    },
    {
      "anonymous": false,
      "inputs": [
        {
          "indexed": true,
          "internalType": "address",
          "name": "user",
          "type": "address"
        },
        {
          "indexed": false,
          "internalType": "uint256",
          "name": "amount",
          "type": "uint256"
        }
      ],
      "name": "Withdrawn",
      "type": "event"
    },
    {
      "inputs": [],
      "name": "accRewardTokenPerShare",
      "outputs": [
        {
          "internalType": "uint256",
          "name": "",
          "type": "uint256"
        }
      ],
      "stateMutability": "view",
      "type": "function"
    },
    {
      "inputs": [],
      "name": "addExpectedRewardTokensBalanceToDistribute",
      "outputs": [],
      "stateMutability": "nonpayable",
      "type": "function"
    },
    {
      "inputs": [
        {
          "internalType": "uint256[2][]",
          "name": "initialDepositAmounts",
          "type": "uint256[2][]"
        },
        {
          "internalType": "address",
          "name": "fortunnaTokenAddress",
          "type": "address"
        }
      ],
      "name": "calculateFortunnaTokens",
      "outputs": [
        {
          "internalType": "uint256",
          "name": "amountToMint",
          "type": "uint256"
        }
      ],
      "stateMutability": "view",
      "type": "function"
    },
    {
      "inputs": [],
      "name": "distributionCycleDuration",
      "outputs": [
        {
          "internalType": "uint256",
          "name": "",
          "type": "uint256"
        }
      ],
      "stateMutability": "view",
      "type": "function"
    },
    {
      "inputs": [],
      "name": "emergencyWithdraw",
      "outputs": [],
      "stateMutability": "nonpayable",
      "type": "function"
    },
    {
      "inputs": [],
      "name": "expectedRewardTokensBalanceToDistribute",
      "outputs": [
        {
          "internalType": "uint256",
          "name": "",
          "type": "uint256"
        }
      ],
      "stateMutability": "view",
      "type": "function"
    },
    {
      "inputs": [],
      "name": "factory",
      "outputs": [
        {
          "internalType": "address",
          "name": "",
          "type": "address"
        }
      ],
      "stateMutability": "view",
      "type": "function"
    },
    {
      "inputs": [
        {
          "internalType": "enum FortunnaPool.Fee",
          "name": "fee",
          "type": "uint8"
        }
      ],
      "name": "getAccumulatedFeesAmount",
      "outputs": [
        {
          "internalType": "uint256",
          "name": "",
          "type": "uint256"
        }
      ],
      "stateMutability": "view",
      "type": "function"
    },
    {
      "inputs": [],
      "name": "getReward",
      "outputs": [],
      "stateMutability": "nonpayable",
      "type": "function"
    },
    {
      "inputs": [
        {
          "internalType": "address",
          "name": "poolOwner",
          "type": "address"
        },
        {
          "components": [
            {
              "internalType": "uint256",
              "name": "protoPoolIdx",
              "type": "uint256"
            },
            {
              "internalType": "uint256",
              "name": "startTimestamp",
              "type": "uint256"
            },
            {
              "internalType": "uint256",
              "name": "endTimestamp",
              "type": "uint256"
            },
            {
              "internalType": "uint256",
              "name": "minStakeAmount",
              "type": "uint256"
            },
            {
              "internalType": "uint256",
              "name": "maxStakeAmount",
              "type": "uint256"
            },
            {
              "internalType": "uint256",
              "name": "minLockUpRewardsPeriod",
              "type": "uint256"
            },
            {
              "internalType": "uint256",
              "name": "earlyWithdrawalFeeBasePoints",
              "type": "uint256"
            },
            {
              "internalType": "uint256",
              "name": "depositWithdrawFeeBasePoints",
              "type": "uint256"
            },
            {
              "internalType": "uint256",
              "name": "totalRewardBasePointsPerDistribution",
              "type": "uint256"
            },
            {
              "internalType": "bytes32",
              "name": "stakingTokensMask",
              "type": "bytes32"
            },
            {
              "internalType": "bytes32",
              "name": "rewardTokensMask",
              "type": "bytes32"
            },
            {
              "components": [
                {
                  "internalType": "address",
                  "name": "nonfungiblePositionManager",
                  "type": "address"
                }
              ],
              "internalType": "struct FortunnaLib.CustomPoolParameters",
              "name": "custom",
              "type": "tuple"
            }
          ],
          "internalType": "struct FortunnaLib.PoolParameters",
          "name": "poolParameters",
          "type": "tuple"
        },
        {
          "components": [
            {
              "internalType": "address[]",
              "name": "utilizingTokens",
              "type": "address[]"
            },
            {
              "internalType": "uint256[2][]",
              "name": "initialRewardAmounts",
              "type": "uint256[2][]"
            },
            {
              "internalType": "uint256[2][]",
              "name": "initialDepositAmounts",
              "type": "uint256[2][]"
            }
          ],
          "internalType": "struct FortunnaLib.PoolParametersArrays",
          "name": "poolParametersArrays",
          "type": "tuple"
        }
      ],
      "name": "initialize",
      "outputs": [],
      "stateMutability": "nonpayable",
      "type": "function"
    },
    {
      "inputs": [],
      "name": "lastRewardTimestamp",
      "outputs": [
        {
          "internalType": "uint256",
          "name": "",
          "type": "uint256"
        }
      ],
      "stateMutability": "view",
      "type": "function"
    },
    {
      "inputs": [],
      "name": "pause",
      "outputs": [],
      "stateMutability": "nonpayable",
      "type": "function"
    },
    {
      "inputs": [],
      "name": "paused",
      "outputs": [
        {
          "internalType": "bool",
          "name": "",
          "type": "bool"
        }
      ],
      "stateMutability": "view",
      "type": "function"
    },
    {
      "inputs": [
        {
          "internalType": "address",
          "name": "user",
          "type": "address"
        }
      ],
      "name": "pendingRewards",
      "outputs": [
        {
          "internalType": "uint256",
          "name": "",
          "type": "uint256"
        }
      ],
      "stateMutability": "view",
      "type": "function"
    },
    {
      "inputs": [],
      "name": "providePartOfTotalRewards",
      "outputs": [],
      "stateMutability": "nonpayable",
      "type": "function"
    },
    {
      "inputs": [],
      "name": "providedRewardTokensBalance",
      "outputs": [
        {
          "internalType": "uint256",
          "name": "",
          "type": "uint256"
        }
      ],
      "stateMutability": "view",
      "type": "function"
    },
    {
      "inputs": [],
      "name": "requestedRewardTokensToDistribute",
      "outputs": [
        {
          "internalType": "uint256",
          "name": "",
          "type": "uint256"
        }
      ],
      "stateMutability": "view",
      "type": "function"
    },
    {
      "inputs": [],
      "name": "rewardToken",
      "outputs": [
        {
          "internalType": "contract IFortunnaToken",
          "name": "",
          "type": "address"
        }
      ],
      "stateMutability": "view",
      "type": "function"
    },
    {
      "inputs": [],
      "name": "rewardTokensPerSec",
      "outputs": [
        {
          "internalType": "uint256",
          "name": "",
          "type": "uint256"
        }
      ],
      "stateMutability": "view",
      "type": "function"
    },
    {
      "inputs": [],
      "name": "scalarParams",
      "outputs": [
        {
          "internalType": "uint256",
          "name": "protoPoolIdx",
          "type": "uint256"
        },
        {
          "internalType": "uint256",
          "name": "startTimestamp",
          "type": "uint256"
        },
        {
          "internalType": "uint256",
          "name": "endTimestamp",
          "type": "uint256"
        },
        {
          "internalType": "uint256",
          "name": "minStakeAmount",
          "type": "uint256"
        },
        {
          "internalType": "uint256",
          "name": "maxStakeAmount",
          "type": "uint256"
        },
        {
          "internalType": "uint256",
          "name": "minLockUpRewardsPeriod",
          "type": "uint256"
        },
        {
          "internalType": "uint256",
          "name": "earlyWithdrawalFeeBasePoints",
          "type": "uint256"
        },
        {
          "internalType": "uint256",
          "name": "depositWithdrawFeeBasePoints",
          "type": "uint256"
        },
        {
          "internalType": "uint256",
          "name": "totalRewardBasePointsPerDistribution",
          "type": "uint256"
        },
        {
          "internalType": "bytes32",
          "name": "stakingTokensMask",
          "type": "bytes32"
        },
        {
          "internalType": "bytes32",
          "name": "rewardTokensMask",
          "type": "bytes32"
        },
        {
          "components": [
            {
              "internalType": "address",
              "name": "nonfungiblePositionManager",
              "type": "address"
            }
          ],
          "internalType": "struct FortunnaLib.CustomPoolParameters",
          "name": "custom",
          "type": "tuple"
        }
      ],
      "stateMutability": "view",
      "type": "function"
    },
    {
      "inputs": [
        {
          "internalType": "uint256",
          "name": "amount",
          "type": "uint256"
        }
      ],
      "name": "stake",
      "outputs": [],
      "stateMutability": "nonpayable",
      "type": "function"
    },
    {
      "inputs": [],
      "name": "stakingToken",
      "outputs": [
        {
          "internalType": "contract IFortunnaToken",
          "name": "",
          "type": "address"
        }
      ],
      "stateMutability": "view",
      "type": "function"
    },
    {
      "inputs": [],
      "name": "totalStakedTokensBalance",
      "outputs": [
        {
          "internalType": "uint256",
          "name": "",
          "type": "uint256"
        }
      ],
      "stateMutability": "view",
      "type": "function"
    },
    {
      "inputs": [],
      "name": "unpause",
      "outputs": [],
      "stateMutability": "nonpayable",
      "type": "function"
    },
    {
      "inputs": [],
      "name": "updatePool",
      "outputs": [],
      "stateMutability": "nonpayable",
      "type": "function"
    },
    {
      "inputs": [
        {
          "internalType": "address",
          "name": "",
          "type": "address"
        }
      ],
      "name": "usersInfo",
      "outputs": [
        {
          "internalType": "uint256",
          "name": "amount",
          "type": "uint256"
        },
        {
          "internalType": "uint256",
          "name": "rewardDebt",
          "type": "uint256"
        }
      ],
      "stateMutability": "view",
      "type": "function"
    },
    {
      "inputs": [
        {
          "internalType": "uint256",
          "name": "amount",
          "type": "uint256"
        }
      ],
      "name": "withdraw",
      "outputs": [],
      "stateMutability": "nonpayable",
      "type": "function"
    },
    {
      "inputs": [
        {
          "internalType": "address",
          "name": "receiver",
          "type": "address"
        }
      ],
      "name": "withdrawAllFees",
      "outputs": [],
      "stateMutability": "nonpayable",
      "type": "function"
    },
    {
      "inputs": [
        {
          "internalType": "address",
          "name": "receiver",
          "type": "address"
        },
        {
          "internalType": "enum FortunnaPool.Fee",
          "name": "fee",
          "type": "uint8"
        }
      ],
      "name": "withdrawFee",
      "outputs": [],
      "stateMutability": "nonpayable",
      "type": "function"
    }
  ],
  "transactionHash": "0x7983613d696a2b00fa2acfbe928d6b431076c20fee18b4dba72605a29c25ff04",
  "args": [],
  "numDeployments": 1,
  "solcInputHash": "c606527edc352ff35406216236e37da4",
  "bytecode": "0x60a060405230608052348015610013575f80fd5b505f805462ff0000191690556001805560805161248b6100385f395f505061248b5ff3fe608060405234801561000f575f80fd5b50600436106101c6575f3560e01c80635d0eaaaf116100fe578063a694fc3a1161009e578063dec8a7471161006e578063dec8a7471461041e578063e3161ddd14610427578063f7c618c11461042f578063f8077fae14610442575f80fd5b8063a694fc3a146103e9578063c45a0155146103fc578063db2e21bc1461040d578063dd69f04f14610415575f80fd5b80638456cb59116100d95780638456cb59146103bd5780638e997622146103c5578063902c736f146103d857806390aeb57d146103e1575f80fd5b80635d0eaaaf1461034457806372f702f31461037f57806373328ce9146103aa575f80fd5b80633813f875116101695780634430135a116101445780634430135a146102fa578063457b15751461030d5780634c179042146103165780635c975abb14610329575f80fd5b80633813f875146102e15780633d18b912146102ea5780633f4ba83a146102f2575f80fd5b80632e1a7d4d116101a45780632e1a7d4d1461029f5780632fbbb3e5146102b25780633027a704146102c557806331d7a262146102ce575f80fd5b80630910638a146101ca5780630bbdd007146101e65780631481f800146101f0575b5f80fd5b6101d360185481565b6040519081526020015b60405180910390f35b6101ee61044b565b005b600354600454600554600654600754600854600954600a54600b54600c54600d546040805160208101909152600e546001600160a01b0316815261023c9b9a999897969594939291908c565b604080519c8d5260208d019b909b52998b019890985260608a0196909652608089019490945260a088019290925260c087015260e0860152610100850152610120840152610140830152516001600160a01b0316610160820152610180016101dd565b6101ee6102ad366004611b83565b61053f565b6101d36102c0366004611c2c565b6106e4565b6101d360165481565b6101d36102dc366004611d25565b6107cc565b6101d360145481565b6101ee61087a565b6101ee61089d565b6101ee610308366004611d47565b6108ae565b6101d360135481565b6101ee610324366004611d25565b610e7a565b5f5462010000900460ff1660405190151581526020016101dd565b61036a610352366004611d25565b60196020525f90815260409020805460019091015482565b604080519283526020830191909152016101dd565b600f54610392906001600160a01b031681565b6040516001600160a01b0390911681526020016101dd565b6101ee6103b8366004611dc5565b610ebb565b6101ee610f8e565b6101d36103d3366004611df8565b610f9f565b6101d360155481565b6101ee610fd4565b6101ee6103f7366004611b83565b611088565b6002546001600160a01b0316610392565b6101ee61121b565b6101d360125481565b6101d360175481565b6101ee6112aa565b601054610392906001600160a01b031681565b6101d360115481565b7f508ce835b993083d562083854a88de07ecc701522f232cada7863173dfc40df361047581611327565b6010545f906001600160a01b03166370a08231336040516001600160e01b031960e084901b1681526001600160a01b039091166004820152602401602060405180830381865afa1580156104cb573d5f803e3d5ffd5b505050506040513d601f19601f820116820180604052508101906104ef9190611e11565b90508060165f8282546105029190611e3c565b90915550506040518181527fde88a922e0d3b88b24e9623efeb464919c6bf9f66857a65e2bfcf2ce87a9433d906020015b60405180910390a15050565b6105476113cd565b61054f611426565b335f81815260196020526040902080548311156105ba57826040516333bf2e9f60e01b81526004016105b1918152604060208201819052601690820152750c6c2dcdcdee8aed2e8d0c8e4c2eea8d0d2e69aeac6d60531b606082015260800190565b60405180910390fd5b6105c261148d565b82815f015f8282546105d49190611e4f565b909155505060125481546402540be400916105ee91611e62565b6105f89190611e79565b81600101819055508260155f8282546106119190611e4f565b9091555050600a541561067c57600a545f90612710906106319086611e62565b61063b9190611e79565b905080601a60028154811061065257610652611eac565b905f5260205f20015f8282546106689190611e3c565b9091555061067890508185611e4f565b9350505b600f54610693906001600160a01b03168385611605565b816001600160a01b03167f7084f5476618d8e60b11ef0d7d3f06914655adb8793e28ff7f018d4c76d505d5846040516106ce91815260200190565b60405180910390a250506106e160018055565b50565b5f805b83518110156107c5575f84828151811061070357610703611eac565b602002602001015190508060016002811061072057610720611eac565b60200201515f0361073157506107b3565b6020810151604051632f9d937f60e01b81526004810184905260248101919091526001600160a01b03851690632f9d937f90604401602060405180830381865afa158015610781573d5f803e3d5ffd5b505050506040513d601f19601f820116820180604052508101906107a59190611e11565b6107af9084611e3c565b9250505b806107bd81611ec0565b9150506106e7565b5092915050565b6001600160a01b0381165f908152601960205260408120601254601554601154421180156107f957505f81115b15610844575f601454601154426108109190611e4f565b61081a9190611e62565b90508161082c6402540be40083611e62565b6108369190611e79565b6108409084611e3c565b9250505b600183015483546402540be4009061085d908590611e62565b6108679190611e79565b6108719190611e4f565b95945050505050565b6108826113cd565b61088a611426565b61089261148d565b61089b60018055565b565b6108a65f611327565b61089b61166d565b5f54610100900460ff16158080156108cc57505f54600160ff909116105b806108e55750303b1580156108e557505f5460ff166001145b6109485760405162461bcd60e51b815260206004820152602e60248201527f496e697469616c697a61626c653a20636f6e747261637420697320616c72656160448201526d191e481a5b9a5d1a585b1a5e995960921b60648201526084016105b1565b5f805460ff191660011790558015610969575f805461ff0019166101001790555b33808460036109788282611f01565b50849050601b61098882826120b7565b5050600280546001600160a01b0319166001600160a01b0383161790555f6001826001600160a01b031663ce883cdb6040518163ffffffff1660e01b8152600401602060405180830381865afa1580156109e4573d5f803e3d5ffd5b505050506040513d601f19601f82011682018060405250810190610a089190611e11565b610a129190611e4f565b90505f826001600160a01b0316631bbb12fc846001600160a01b031663acc9606f6040518163ffffffff1660e01b8152600401602060405180830381865afa158015610a60573d5f803e3d5ffd5b505050506040513d601f19601f82011682018060405250810190610a849190611e11565b6040518263ffffffff1660e01b8152600401610aa291815260200190565b602060405180830381865afa158015610abd573d5f803e3d5ffd5b505050506040513d601f19601f82011682018060405250810190610ae1919061219b565b604080516020808201869052600160f81b8284015282516021818403018152604183018452805190820120606183018790525f6081840152835160628185030181526082909301909352815191012091925090610b476001600160a01b038416836116c0565b600f80546001600160a01b0319166001600160a01b03928316179055610b6f908416826116c0565b601080546001600160a01b0319166001600160a01b03928316179055600f5460405163f436f09360e01b815291169063f436f09390610bb7906001908d908d90600401612326565b5f604051808303815f87803b158015610bce575f80fd5b505af1158015610be0573d5f803e3d5ffd5b505060105460405163f436f09360e01b81526001600160a01b03909116925063f436f0939150610c18905f908d908d90600401612326565b5f604051808303815f87803b158015610c2f575f80fd5b505af1158015610c41573d5f803e3d5ffd5b505050505f610ccd898060400190610c599190611f91565b808060200260200160405190810160405280939291908181526020015f905b82821015610cb5576040805180820182529080840287019060029083908390808284375f9201919091525050508152600190910190602001610c78565b5050600f546001600160a01b031692506106e4915050565b90508015610d3a57600f546040516340c10f1960e01b81526001600160a01b038d8116600483015260248201849052909116906340c10f19906044015f604051808303815f87803b158015610d20575f80fd5b505af1158015610d32573d5f803e3d5ffd5b505050505f90505b610dbe610d4a60208b018b611f91565b808060200260200160405190810160405280939291908181526020015f905b82821015610da6576040805180820182529080840287019060029083908390808284375f9201919091525050508152600190910190602001610d69565b50506010546001600160a01b031692506106e4915050565b90508015610e28576010546040516340c10f1960e01b81526001600160a01b038d8116600483015260248201849052909116906340c10f19906044015f604051808303815f87803b158015610e11575f80fd5b505af1158015610e23573d5f803e3d5ffd5b505050505b505050505050508015610e74575f805461ff0019169055604051600181527f7f26b83ff96e1f2b6a682f133852f6798a09c465da95921460cefb38474024989060200160405180910390a15b50505050565b610e835f611327565b5f5b601a54811015610eb757610ea5828260028111156103b8576103b8611e98565b80610eaf81611ec0565b915050610e85565b5050565b610ec45f611327565b5f816002811115610ed757610ed7611e98565b03610f1257610f1282601a836002811115610ef457610ef4611e98565b81548110610f0457610f04611eac565b905f5260205f200154611760565b6001816002811115610f2657610f26611e98565b1480610f4357506002816002811115610f4157610f41611e98565b145b15610eb757610eb782601a836002811115610f6057610f60611e98565b81548110610f7057610f70611eac565b5f91825260209091200154600f546001600160a01b03169190611605565b610f975f611327565b61089b6117a9565b5f601a826002811115610fb457610fb4611e98565b81548110610fc457610fc4611eac565b905f5260205f2001549050919050565b7f508ce835b993083d562083854a88de07ecc701522f232cada7863173dfc40df3610ffe81611327565b5f6127106003600801546016546110159190611e62565b61101f9190611e79565b9050611039336010546001600160a01b03169030846117e9565b8060185f82825461104a9190611e3c565b909155506110589050611821565b6040518181527fd2904f4877df3057e76c2da3130bd597114a6d0ff8b9952f7c99915a429e737090602001610533565b6110906113cd565b6007548111156110c1576007546040516363038b1d60e11b81526105b1918391600401918252602082015260400190565b6006548110156110f25760065460405163b8d4634360e01b81526105b1918391600401918252602082015260400190565b6110fa611426565b335f81815260196020526040902061111061148d565b600f54611128906001600160a01b03168330866117e9565b600a541561118e57600a545f90612710906111439086611e62565b61114d9190611e79565b905080601a60018154811061116457611164611eac565b905f5260205f20015f82825461117a9190611e3c565b9091555061118a90508185611e4f565b9350505b8260155f82825461119f9190611e3c565b90915550508054839082905f906111b7908490611e3c565b909155505060125481546402540be400916111d191611e62565b6111db9190611e79565b60018201556040518381526001600160a01b038316907f9e71bc8eea02a63969f509818f2dafb9254532904319f9dbda79b67bd34a5f3d906020016106ce565b335f8181526019602052604090208054600f54611245916001600160a01b03909116908490611605565b80546040519081526001600160a01b038316907f5fafa99d0643513820be26656b45130b01e1c03062e1266bf36f88cbd3bd96959060200160405180910390a28054601580545f90611298908490611e4f565b90915550505f80825560019091015550565b60115442116112b557565b6015545f036112c45742601155565b5f601454601154426112d69190611e4f565b6112e09190611e62565b90506112eb81611843565b6015546402540be4006014546113019190611e62565b61130b9190611e79565b60125f82825461131b9190611e3c565b90915550504260115550565b5f33600254604051632474521560e21b8152600481018590526001600160a01b0380841660248301529293509116906391d1485490604401602060405180830381865afa15801561137a573d5f803e3d5ffd5b505050506040513d601f19601f8201168201806040525081019061139e91906123c7565b610eb75760405163a78e4aa560e01b8152600481018390526001600160a01b03821660248201526044016105b1565b60026001540361141f5760405162461bcd60e51b815260206004820152601f60248201527f5265656e7472616e637947756172643a207265656e7472616e742063616c6c0060448201526064016105b1565b6002600155565b60045442101561145a5760045461143e904290611e4f565b60405163147fdec360e01b81526004016105b191815260200190565b60055442111561089b576005546114719042611e4f565b604051633652a8cb60e21b81526004016105b191815260200190565b335f8181526019602052604090206114a36112aa565b5f81600101546402540be400601254845f01546114c09190611e62565b6114ca9190611e79565b6114d49190611e4f565b6004549091505f82158015906114e957508142115b801561150057506008546114fd9083611e3c565b42105b801561150d575060095415155b1561156c57600954612710906115239085611e62565b61152d9190611e79565b905080601a5f8154811061154357611543611eac565b905f5260205f20015f8282546115599190611e3c565b9091555061156990508184611e4f565b92505b6115768584611760565b846001600160a01b03167fe2403640ba68fed3a2f88b7557551d1993f84b99bb10ff833f0cf8db0c5e0486846040516115b191815260200190565b60405180910390a25f6115c48285611e3c565b90508060175f8282546115d79190611e4f565b925050819055508060185f8282546115ef9190611e4f565b909155506115fd9050611821565b505050505050565b6040516001600160a01b03831660248201526044810182905261166890849063a9059cbb60e01b906064015b60408051601f198184030181529190526020810180516001600160e01b03166001600160e01b03199093169290921790915261188d565b505050565b611675611960565b5f805462ff0000191690557f5db9ee0a495bf2e6ff9c91a7834c1ba4fdd244a5e8aa4e537bd38aeae4b073aa335b6040516001600160a01b03909116815260200160405180910390a1565b5f763d602d80600a3d3981f3363d3d373d3d3d363d730000008360601b60e81c175f526e5af43d82803e903d91602b57fd5bf38360781b1760205281603760095ff590506001600160a01b03811661175a5760405162461bcd60e51b815260206004820152601760248201527f455243313136373a2063726561746532206661696c656400000000000000000060448201526064016105b1565b92915050565b805f0361176b575050565b60175481111561179257601754601054610eb7916001600160a01b03909116908490611605565b601054610eb7906001600160a01b03168383611605565b6117b16119ae565b5f805462ff00001916620100001790557f62e78cea01bee320cd4e420270b5ea74000d11b0c9f74754ebdbfc544b05a2586116a33390565b6040516001600160a01b0380851660248301528316604482015260648101829052610e749085906323b872dd60e01b90608401611631565b6004546005546118319190611e4f565b60185461183e9190611e79565b601455565b8060175f8282546118549190611e3c565b909155505060185460175411156106e15760185460175460405163c006882b60e01b8152600481019290925260248201526044016105b1565b5f6118e1826040518060400160405280602081526020017f5361666545524332303a206c6f772d6c6576656c2063616c6c206661696c6564815250856001600160a01b03166119f99092919063ffffffff16565b905080515f148061190157508080602001905181019061190191906123c7565b6116685760405162461bcd60e51b815260206004820152602a60248201527f5361666545524332303a204552433230206f7065726174696f6e20646964206e6044820152691bdd081cdd58d8d9595960b21b60648201526084016105b1565b5f5462010000900460ff1661089b5760405162461bcd60e51b815260206004820152601460248201527314185d5cd8589b194e881b9bdd081c185d5cd95960621b60448201526064016105b1565b5f5462010000900460ff161561089b5760405162461bcd60e51b815260206004820152601060248201526f14185d5cd8589b194e881c185d5cd95960821b60448201526064016105b1565b6060611a0784845f85611a0f565b949350505050565b606082471015611a705760405162461bcd60e51b815260206004820152602660248201527f416464726573733a20696e73756666696369656e742062616c616e636520666f6044820152651c8818d85b1b60d21b60648201526084016105b1565b5f80866001600160a01b03168587604051611a8b9190612408565b5f6040518083038185875af1925050503d805f8114611ac5576040519150601f19603f3d011682016040523d82523d5f602084013e611aca565b606091505b5091509150611adb87838387611ae6565b979650505050505050565b60608315611b545782515f03611b4d576001600160a01b0385163b611b4d5760405162461bcd60e51b815260206004820152601d60248201527f416464726573733a2063616c6c20746f206e6f6e2d636f6e747261637400000060448201526064016105b1565b5081611a07565b611a078383815115611b695781518083602001fd5b8060405162461bcd60e51b81526004016105b19190612423565b5f60208284031215611b93575f80fd5b5035919050565b634e487b7160e01b5f52604160045260245ffd5b6040805190810167ffffffffffffffff81118282101715611bd157611bd1611b9a565b60405290565b604051601f8201601f1916810167ffffffffffffffff81118282101715611c0057611c00611b9a565b604052919050565b6001600160a01b03811681146106e1575f80fd5b8035611c2781611c08565b919050565b5f806040808486031215611c3e575f80fd5b833567ffffffffffffffff80821115611c55575f80fd5b8186019150601f8781840112611c69575f80fd5b8235602083821115611c7d57611c7d611b9a565b611c8b818360051b01611bd7565b828152818101945060069290921b85018101918a831115611caa575f80fd5b948101945b82861015611d09578a84870112611cc5575f8081fd5b611ccd611bae565b808888018d811115611cde575f8081fd5b885b81811015611cf75780358452928501928501611ce0565b50508652509486019493810193611caf565b9750611d16898201611c1c565b96505050505050509250929050565b5f60208284031215611d35575f80fd5b8135611d4081611c08565b9392505050565b5f805f8385036101c0811215611d5b575f80fd5b8435611d6681611c08565b9350610180601f1982011215611d7a575f80fd5b506020840191506101a084013567ffffffffffffffff811115611d9b575f80fd5b840160608187031215611dac575f80fd5b809150509250925092565b803560038110611c27575f80fd5b5f8060408385031215611dd6575f80fd5b8235611de181611c08565b9150611def60208401611db7565b90509250929050565b5f60208284031215611e08575f80fd5b611d4082611db7565b5f60208284031215611e21575f80fd5b5051919050565b634e487b7160e01b5f52601160045260245ffd5b8082018082111561175a5761175a611e28565b8181038181111561175a5761175a611e28565b808202811582820484141761175a5761175a611e28565b5f82611e9357634e487b7160e01b5f52601260045260245ffd5b500490565b634e487b7160e01b5f52602160045260245ffd5b634e487b7160e01b5f52603260045260245ffd5b5f60018201611ed157611ed1611e28565b5060010190565b8135611ee381611c08565b81546001600160a01b0319166001600160a01b039190911617905550565b813581556020820135600182015560408201356002820155606082013560038201556080820135600482015560a0820135600582015560c0820135600682015560e0820135600782015561010082013560088201556101208201356009820155610140820135600a820155610eb76101608301600b8301611ed8565b5b81811015610eb7575f8155600101611f7e565b5f808335601e19843603018112611fa6575f80fd5b83018035915067ffffffffffffffff821115611fc0575f80fd5b6020019150600681901b3603821315611fd7575f80fd5b9250929050565b815f5b6002811015610e7457813583820155602090910190600101611fe1565b600160401b83111561201257612012611b9a565b805483825580841015612083576001600160ff1b03818116821461203857612038611e28565b808516851461204957612049611e28565b50815f5260205f208160011b81018560011b820191505b80821015612080576120756002830183611f7d565b600282019150612060565b50505b505f8181526020812083915b858110156115fd576120a18383611fde565b604092909201916002919091019060010161208f565b8135601e198336030181126120ca575f80fd5b8201803567ffffffffffffffff8111156120e2575f80fd5b602080830192508160051b36038313156120fa575f80fd5b600160401b82111561210e5761210e611b9a565b83548285558083101561213157845f52815f2061212f828201858301611f7d565b505b50835f52805f205f5b8381101561215d57843561214d81611c08565b828201559382019360010161213a565b505061216b81860186611f91565b935091505061217e828260018601611ffe565b505061218d6040830183611f91565b610e74818360028601611ffe565b5f602082840312156121ab575f80fd5b8151611d4081611c08565b80356121c181611c08565b6001600160a01b031690915250565b5f808335601e198436030181126121e5575f80fd5b830160208101925035905067ffffffffffffffff811115612204575f80fd5b8060061b3603821315611fd7575f80fd5b8183526020830192505f815f5b8481101561224157604080838837958601959190910190600101612222565b5093949350505050565b5f606083018235601e19843603018112612263575f80fd5b8301602081810191359067ffffffffffffffff821115612281575f80fd5b8160051b3603831315612292575f80fd5b606087529281905290915f9190608087015b828410156122d45784356122b781611c08565b6001600160a01b03168152938101936001939093019281016122a4565b6122e0828801886121d0565b95509350878103828901526122f6818686612215565b94505050505061230960408401846121d0565b858303604087015261231c838284612215565b9695505050505050565b5f6101c0851515835284356020840152602085013560408401526040850135606084015260608501356080840152608085013560a084015260a085013560c084015260c085013560e084015261010060e0860135818501526101208187013581860152610140915080870135828601525061016081870135818601526123b261018086018289016121b6565b5050806101a084015261231c8184018561224b565b5f602082840312156123d7575f80fd5b81518015158114611d40575f80fd5b5f5b838110156124005781810151838201526020016123e8565b50505f910152565b5f82516124198184602087016123e6565b9190910192915050565b602081525f82518060208401526124418160408501602087016123e6565b601f01601f1916919091016040019291505056fea26469706673582212203c167c4b897e4c2a3632c90fca7cc4732cb199c6bcd85694ab54975bc4b7a16c64736f6c63430008140033",
  "libraries": {
    "FortunnaLib": "0x2475181E30FcFFA7A636eDc469BE56d9080F4A8c",
    "FortunnaErrorsLib": "0xC96e03cdB3CF495f1Bc063A1D161507Db5791542",
    "FortunnaBitMaskLib": "0x31F92547ABA932e60bC424116f2BB33a8e3EE429"
  },
  "devdoc": {
    "errors": {
      "InvalidScalar(uint256,string)": [
        {
          "details": "An error to be reverted if some scalar property of the data structure was addressed wrongly.",
          "params": {
            "comment": "Some comment as to what kind of a data structure property this is.",
            "scalar": "A scalar."
          }
        }
      ],
      "NotAuthorized(bytes32,address)": [
        {
          "details": "An error to be reverted if an `entity` does not possess the `role`.",
          "params": {
            "entity": "An entity violating authorization.",
            "role": "A role an entity doesn't posess."
          }
        }
      ]
    },
    "events": {
      "Initialized(uint8)": {
        "details": "Triggered when the contract has been initialized or reinitialized."
      },
      "Paused(address)": {
        "details": "Emitted when the pause is triggered by `account`."
      },
      "Unpaused(address)": {
        "details": "Emitted when the pause is lifted by `account`."
      }
    },
    "kind": "dev",
    "methods": {
      "pause()": {
        "details": "Could be called only by the admin."
      },
      "paused()": {
        "details": "Returns true if the contract is paused, and false otherwise."
      },
      "unpause()": {
        "details": "Could be called only by the admin."
      }
    },
    "version": 1
  },
  "userdoc": {
    "kind": "user",
    "methods": {
      "pause()": {
        "notice": "Triggers paused state."
      },
      "unpause()": {
        "notice": "Returns to normal state."
      }
    },
    "version": 1
  },
  "storageLayout": {
    "storage": [
      {
        "astId": 588,
        "contract": "contracts/FortunnaPool.sol:FortunnaPool",
        "label": "_initialized",
        "offset": 0,
        "slot": "0",
        "type": "t_uint8"
      },
      {
        "astId": 591,
        "contract": "contracts/FortunnaPool.sol:FortunnaPool",
        "label": "_initializing",
        "offset": 1,
        "slot": "0",
        "type": "t_bool"
      },
      {
        "astId": 768,
        "contract": "contracts/FortunnaPool.sol:FortunnaPool",
        "label": "_paused",
        "offset": 2,
        "slot": "0",
        "type": "t_bool"
      },
      {
        "astId": 869,
        "contract": "contracts/FortunnaPool.sol:FortunnaPool",
        "label": "_status",
        "offset": 0,
        "slot": "1",
        "type": "t_uint256"
      },
      {
        "astId": 4447,
        "contract": "contracts/FortunnaPool.sol:FortunnaPool",
        "label": "_factory",
        "offset": 0,
        "slot": "2",
        "type": "t_address"
      },
      {
        "astId": 5366,
        "contract": "contracts/FortunnaPool.sol:FortunnaPool",
        "label": "scalarParams",
        "offset": 0,
        "slot": "3",
        "type": "t_struct(PoolParameters)7881_storage"
      },
      {
        "astId": 5369,
        "contract": "contracts/FortunnaPool.sol:FortunnaPool",
        "label": "stakingToken",
        "offset": 0,
        "slot": "15",
        "type": "t_contract(IFortunnaToken)7545"
      },
      {
        "astId": 5372,
        "contract": "contracts/FortunnaPool.sol:FortunnaPool",
        "label": "rewardToken",
        "offset": 0,
        "slot": "16",
        "type": "t_contract(IFortunnaToken)7545"
      },
      {
        "astId": 5374,
        "contract": "contracts/FortunnaPool.sol:FortunnaPool",
        "label": "lastRewardTimestamp",
        "offset": 0,
        "slot": "17",
        "type": "t_uint256"
      },
      {
        "astId": 5376,
        "contract": "contracts/FortunnaPool.sol:FortunnaPool",
        "label": "accRewardTokenPerShare",
        "offset": 0,
        "slot": "18",
        "type": "t_uint256"
      },
      {
        "astId": 5378,
        "contract": "contracts/FortunnaPool.sol:FortunnaPool",
        "label": "distributionCycleDuration",
        "offset": 0,
        "slot": "19",
        "type": "t_uint256"
      },
      {
        "astId": 5380,
        "contract": "contracts/FortunnaPool.sol:FortunnaPool",
        "label": "rewardTokensPerSec",
        "offset": 0,
        "slot": "20",
        "type": "t_uint256"
      },
      {
        "astId": 5382,
        "contract": "contracts/FortunnaPool.sol:FortunnaPool",
        "label": "totalStakedTokensBalance",
        "offset": 0,
        "slot": "21",
        "type": "t_uint256"
      },
      {
        "astId": 5384,
        "contract": "contracts/FortunnaPool.sol:FortunnaPool",
        "label": "expectedRewardTokensBalanceToDistribute",
        "offset": 0,
        "slot": "22",
        "type": "t_uint256"
      },
      {
        "astId": 5386,
        "contract": "contracts/FortunnaPool.sol:FortunnaPool",
        "label": "requestedRewardTokensToDistribute",
        "offset": 0,
        "slot": "23",
        "type": "t_uint256"
      },
      {
        "astId": 5388,
        "contract": "contracts/FortunnaPool.sol:FortunnaPool",
        "label": "providedRewardTokensBalance",
        "offset": 0,
        "slot": "24",
        "type": "t_uint256"
      },
      {
        "astId": 5393,
        "contract": "contracts/FortunnaPool.sol:FortunnaPool",
        "label": "usersInfo",
        "offset": 0,
        "slot": "25",
        "type": "t_mapping(t_address,t_struct(UserInfo)5359_storage)"
      },
      {
        "astId": 5396,
        "contract": "contracts/FortunnaPool.sol:FortunnaPool",
        "label": "_accumulatedFees",
        "offset": 0,
        "slot": "26",
        "type": "t_array(t_uint256)dyn_storage"
      },
      {
        "astId": 5399,
        "contract": "contracts/FortunnaPool.sol:FortunnaPool",
        "label": "vectorParams",
        "offset": 0,
        "slot": "27",
        "type": "t_struct(PoolParametersArrays)7896_storage"
      }
    ],
    "types": {
      "t_address": {
        "encoding": "inplace",
        "label": "address",
        "numberOfBytes": "20"
      },
      "t_array(t_address)dyn_storage": {
        "base": "t_address",
        "encoding": "dynamic_array",
        "label": "address[]",
        "numberOfBytes": "32"
      },
      "t_array(t_array(t_uint256)2_storage)dyn_storage": {
        "base": "t_array(t_uint256)2_storage",
        "encoding": "dynamic_array",
        "label": "uint256[2][]",
        "numberOfBytes": "32"
      },
      "t_array(t_uint256)2_storage": {
        "base": "t_uint256",
        "encoding": "inplace",
        "label": "uint256[2]",
        "numberOfBytes": "64"
      },
      "t_array(t_uint256)dyn_storage": {
        "base": "t_uint256",
        "encoding": "dynamic_array",
        "label": "uint256[]",
        "numberOfBytes": "32"
      },
      "t_bool": {
        "encoding": "inplace",
        "label": "bool",
        "numberOfBytes": "1"
      },
      "t_bytes32": {
        "encoding": "inplace",
        "label": "bytes32",
        "numberOfBytes": "32"
      },
      "t_contract(IFortunnaToken)7545": {
        "encoding": "inplace",
        "label": "contract IFortunnaToken",
        "numberOfBytes": "20"
      },
      "t_mapping(t_address,t_struct(UserInfo)5359_storage)": {
        "encoding": "mapping",
        "key": "t_address",
        "label": "mapping(address => struct FortunnaPool.UserInfo)",
        "numberOfBytes": "32",
        "value": "t_struct(UserInfo)5359_storage"
      },
      "t_struct(CustomPoolParameters)7854_storage": {
        "encoding": "inplace",
        "label": "struct FortunnaLib.CustomPoolParameters",
        "members": [
          {
            "astId": 7853,
            "contract": "contracts/FortunnaPool.sol:FortunnaPool",
            "label": "nonfungiblePositionManager",
            "offset": 0,
            "slot": "0",
            "type": "t_address"
          }
        ],
        "numberOfBytes": "32"
      },
      "t_struct(PoolParameters)7881_storage": {
        "encoding": "inplace",
        "label": "struct FortunnaLib.PoolParameters",
        "members": [
          {
            "astId": 7857,
            "contract": "contracts/FortunnaPool.sol:FortunnaPool",
            "label": "protoPoolIdx",
            "offset": 0,
            "slot": "0",
            "type": "t_uint256"
          },
          {
            "astId": 7859,
            "contract": "contracts/FortunnaPool.sol:FortunnaPool",
            "label": "startTimestamp",
            "offset": 0,
            "slot": "1",
            "type": "t_uint256"
          },
          {
            "astId": 7861,
            "contract": "contracts/FortunnaPool.sol:FortunnaPool",
            "label": "endTimestamp",
            "offset": 0,
            "slot": "2",
            "type": "t_uint256"
          },
          {
            "astId": 7863,
            "contract": "contracts/FortunnaPool.sol:FortunnaPool",
            "label": "minStakeAmount",
            "offset": 0,
            "slot": "3",
            "type": "t_uint256"
          },
          {
            "astId": 7865,
            "contract": "contracts/FortunnaPool.sol:FortunnaPool",
            "label": "maxStakeAmount",
            "offset": 0,
            "slot": "4",
            "type": "t_uint256"
          },
          {
            "astId": 7867,
            "contract": "contracts/FortunnaPool.sol:FortunnaPool",
            "label": "minLockUpRewardsPeriod",
            "offset": 0,
            "slot": "5",
            "type": "t_uint256"
          },
          {
            "astId": 7869,
            "contract": "contracts/FortunnaPool.sol:FortunnaPool",
            "label": "earlyWithdrawalFeeBasePoints",
            "offset": 0,
            "slot": "6",
            "type": "t_uint256"
          },
          {
            "astId": 7871,
            "contract": "contracts/FortunnaPool.sol:FortunnaPool",
            "label": "depositWithdrawFeeBasePoints",
            "offset": 0,
            "slot": "7",
            "type": "t_uint256"
          },
          {
            "astId": 7873,
            "contract": "contracts/FortunnaPool.sol:FortunnaPool",
            "label": "totalRewardBasePointsPerDistribution",
            "offset": 0,
            "slot": "8",
            "type": "t_uint256"
          },
          {
            "astId": 7875,
            "contract": "contracts/FortunnaPool.sol:FortunnaPool",
            "label": "stakingTokensMask",
            "offset": 0,
            "slot": "9",
            "type": "t_bytes32"
          },
          {
            "astId": 7877,
            "contract": "contracts/FortunnaPool.sol:FortunnaPool",
            "label": "rewardTokensMask",
            "offset": 0,
            "slot": "10",
            "type": "t_bytes32"
          },
          {
            "astId": 7880,
            "contract": "contracts/FortunnaPool.sol:FortunnaPool",
            "label": "custom",
            "offset": 0,
            "slot": "11",
            "type": "t_struct(CustomPoolParameters)7854_storage"
          }
        ],
        "numberOfBytes": "384"
      },
      "t_struct(PoolParametersArrays)7896_storage": {
        "encoding": "inplace",
        "label": "struct FortunnaLib.PoolParametersArrays",
        "members": [
          {
            "astId": 7885,
            "contract": "contracts/FortunnaPool.sol:FortunnaPool",
            "label": "utilizingTokens",
            "offset": 0,
            "slot": "0",
            "type": "t_array(t_address)dyn_storage"
          },
          {
            "astId": 7890,
            "contract": "contracts/FortunnaPool.sol:FortunnaPool",
            "label": "initialRewardAmounts",
            "offset": 0,
            "slot": "1",
            "type": "t_array(t_array(t_uint256)2_storage)dyn_storage"
          },
          {
            "astId": 7895,
            "contract": "contracts/FortunnaPool.sol:FortunnaPool",
            "label": "initialDepositAmounts",
            "offset": 0,
            "slot": "2",
            "type": "t_array(t_array(t_uint256)2_storage)dyn_storage"
          }
        ],
        "numberOfBytes": "96"
      },
      "t_struct(UserInfo)5359_storage": {
        "encoding": "inplace",
        "label": "struct FortunnaPool.UserInfo",
        "members": [
          {
            "astId": 5356,
            "contract": "contracts/FortunnaPool.sol:FortunnaPool",
            "label": "amount",
            "offset": 0,
            "slot": "0",
            "type": "t_uint256"
          },
          {
            "astId": 5358,
            "contract": "contracts/FortunnaPool.sol:FortunnaPool",
            "label": "rewardDebt",
            "offset": 0,
            "slot": "1",
            "type": "t_uint256"
          }
        ],
        "numberOfBytes": "64"
      },
      "t_uint256": {
        "encoding": "inplace",
        "label": "uint256",
        "numberOfBytes": "32"
      },
      "t_uint8": {
        "encoding": "inplace",
        "label": "uint8",
        "numberOfBytes": "1"
      }
    }
  }
}