{
  "address": "0x8426a9718874F5B37c238Eb55eF7b89b7Beec86F",
  "abi": [
    {
      "inputs": [],
      "stateMutability": "nonpayable",
      "type": "constructor"
    },
    {
      "inputs": [
        {
          "internalType": "uint256",
          "name": "scalar",
          "type": "uint256"
        },
        {
          "internalType": "string",
          "name": "comment",
          "type": "string"
        }
      ],
      "name": "InvalidScalar",
      "type": "error"
    },
    {
      "inputs": [
        {
          "internalType": "bytes32",
          "name": "role",
          "type": "bytes32"
        },
        {
          "internalType": "address",
          "name": "entity",
          "type": "address"
        }
      ],
      "name": "NotAuthorized",
      "type": "error"
    },
    {
      "inputs": [
        {
          "internalType": "uint256",
          "name": "amount",
          "type": "uint256"
        }
      ],
      "name": "NotEnoughtPayment",
      "type": "error"
    },
    {
      "inputs": [],
      "name": "NotInitialized",
      "type": "error"
    },
    {
      "anonymous": false,
      "inputs": [
        {
          "indexed": true,
          "internalType": "address",
          "name": "owner",
          "type": "address"
        },
        {
          "indexed": true,
          "internalType": "address",
          "name": "spender",
          "type": "address"
        },
        {
          "indexed": false,
          "internalType": "uint256",
          "name": "value",
          "type": "uint256"
        }
      ],
      "name": "Approval",
      "type": "event"
    },
    {
      "anonymous": false,
      "inputs": [
        {
          "indexed": false,
          "internalType": "uint8",
          "name": "version",
          "type": "uint8"
        }
      ],
      "name": "Initialized",
      "type": "event"
    },
    {
      "anonymous": false,
      "inputs": [
        {
          "indexed": true,
          "internalType": "uint256",
          "name": "amount",
          "type": "uint256"
        }
      ],
      "name": "NativeTokenReceived",
      "type": "event"
    },
    {
      "anonymous": false,
      "inputs": [
        {
          "indexed": false,
          "internalType": "address",
          "name": "account",
          "type": "address"
        }
      ],
      "name": "Paused",
      "type": "event"
    },
    {
      "anonymous": false,
      "inputs": [
        {
          "indexed": true,
          "internalType": "address",
          "name": "from",
          "type": "address"
        },
        {
          "indexed": true,
          "internalType": "address",
          "name": "to",
          "type": "address"
        },
        {
          "indexed": false,
          "internalType": "uint256",
          "name": "value",
          "type": "uint256"
        }
      ],
      "name": "Transfer",
      "type": "event"
    },
    {
      "anonymous": false,
      "inputs": [
        {
          "indexed": false,
          "internalType": "address",
          "name": "account",
          "type": "address"
        }
      ],
      "name": "Unpaused",
      "type": "event"
    },
    {
      "inputs": [
        {
          "internalType": "address",
          "name": "owner",
          "type": "address"
        },
        {
          "internalType": "address",
          "name": "spender",
          "type": "address"
        }
      ],
      "name": "allowance",
      "outputs": [
        {
          "internalType": "uint256",
          "name": "",
          "type": "uint256"
        }
      ],
      "stateMutability": "view",
      "type": "function"
    },
    {
      "inputs": [
        {
          "internalType": "address",
          "name": "spender",
          "type": "address"
        },
        {
          "internalType": "uint256",
          "name": "amount",
          "type": "uint256"
        }
      ],
      "name": "approve",
      "outputs": [
        {
          "internalType": "bool",
          "name": "",
          "type": "bool"
        }
      ],
      "stateMutability": "nonpayable",
      "type": "function"
    },
    {
      "inputs": [
        {
          "internalType": "address",
          "name": "account",
          "type": "address"
        }
      ],
      "name": "balanceOf",
      "outputs": [
        {
          "internalType": "uint256",
          "name": "",
          "type": "uint256"
        }
      ],
      "stateMutability": "view",
      "type": "function"
    },
    {
      "inputs": [
        {
          "internalType": "address payable",
          "name": "user",
          "type": "address"
        },
        {
          "internalType": "uint256",
          "name": "amount",
          "type": "uint256"
        }
      ],
      "name": "burn",
      "outputs": [],
      "stateMutability": "nonpayable",
      "type": "function"
    },
    {
      "inputs": [
        {
          "internalType": "uint256",
          "name": "underlyingTokenIdx",
          "type": "uint256"
        },
        {
          "internalType": "uint256",
          "name": "underlyingTokenAmountInOrOut",
          "type": "uint256"
        }
      ],
      "name": "calcFortunnaTokensInOrOutPerUnderlyingToken",
      "outputs": [
        {
          "internalType": "uint256",
          "name": "fortunnaTokensAmountInOrOut",
          "type": "uint256"
        }
      ],
      "stateMutability": "view",
      "type": "function"
    },
    {
      "inputs": [
        {
          "internalType": "uint256",
          "name": "underlyingTokenIdx",
          "type": "uint256"
        },
        {
          "internalType": "uint256",
          "name": "amountToMintOrBurn",
          "type": "uint256"
        }
      ],
      "name": "calcUnderlyingTokensInOrOutPerFortunnaToken",
      "outputs": [
        {
          "internalType": "uint256",
          "name": "underlyingTokensInOrOut",
          "type": "uint256"
        }
      ],
      "stateMutability": "view",
      "type": "function"
    },
    {
      "inputs": [],
      "name": "decimals",
      "outputs": [
        {
          "internalType": "uint8",
          "name": "",
          "type": "uint8"
        }
      ],
      "stateMutability": "view",
      "type": "function"
    },
    {
      "inputs": [
        {
          "internalType": "address",
          "name": "spender",
          "type": "address"
        },
        {
          "internalType": "uint256",
          "name": "subtractedValue",
          "type": "uint256"
        }
      ],
      "name": "decreaseAllowance",
      "outputs": [
        {
          "internalType": "bool",
          "name": "",
          "type": "bool"
        }
      ],
      "stateMutability": "nonpayable",
      "type": "function"
    },
    {
      "inputs": [
        {
          "internalType": "uint256",
          "name": "",
          "type": "uint256"
        }
      ],
      "name": "getReserve",
      "outputs": [
        {
          "internalType": "uint256",
          "name": "",
          "type": "uint256"
        }
      ],
      "stateMutability": "view",
      "type": "function"
    },
    {
      "inputs": [
        {
          "internalType": "address",
          "name": "spender",
          "type": "address"
        },
        {
          "internalType": "uint256",
          "name": "addedValue",
          "type": "uint256"
        }
      ],
      "name": "increaseAllowance",
      "outputs": [
        {
          "internalType": "bool",
          "name": "",
          "type": "bool"
        }
      ],
      "stateMutability": "nonpayable",
      "type": "function"
    },
    {
      "inputs": [
        {
          "internalType": "bool",
          "name": "_stakingOrRewardTokens",
          "type": "bool"
        },
        {
          "components": [
            {
              "internalType": "uint256",
              "name": "protoPoolIdx",
              "type": "uint256"
            },
            {
              "internalType": "uint256",
              "name": "startTimestamp",
              "type": "uint256"
            },
            {
              "internalType": "uint256",
              "name": "endTimestamp",
              "type": "uint256"
            },
            {
              "internalType": "uint256",
              "name": "minStakeAmount",
              "type": "uint256"
            },
            {
              "internalType": "uint256",
              "name": "maxStakeAmount",
              "type": "uint256"
            },
            {
              "internalType": "uint256",
              "name": "minLockUpRewardsPeriod",
              "type": "uint256"
            },
            {
              "internalType": "uint256",
              "name": "earlyWithdrawalFeeBasePoints",
              "type": "uint256"
            },
            {
              "internalType": "uint256",
              "name": "depositWithdrawFeeBasePoints",
              "type": "uint256"
            },
            {
              "internalType": "uint256",
              "name": "totalRewardBasePointsPerDistribution",
              "type": "uint256"
            },
            {
              "internalType": "bytes32",
              "name": "stakingTokensMask",
              "type": "bytes32"
            },
            {
              "internalType": "bytes32",
              "name": "rewardTokensMask",
              "type": "bytes32"
            },
            {
              "components": [
                {
                  "internalType": "address",
                  "name": "nonfungiblePositionManager",
                  "type": "address"
                }
              ],
              "internalType": "struct FortunnaLib.CustomPoolParameters",
              "name": "custom",
              "type": "tuple"
            }
          ],
          "internalType": "struct FortunnaLib.PoolParameters",
          "name": "poolParameters",
          "type": "tuple"
        },
        {
          "components": [
            {
              "internalType": "address[]",
              "name": "utilizingTokens",
              "type": "address[]"
            },
            {
              "internalType": "uint256[2][]",
              "name": "initialRewardAmounts",
              "type": "uint256[2][]"
            },
            {
              "internalType": "uint256[2][]",
              "name": "initialDepositAmounts",
              "type": "uint256[2][]"
            }
          ],
          "internalType": "struct FortunnaLib.PoolParametersArrays",
          "name": "poolParametersArrays",
          "type": "tuple"
        }
      ],
      "name": "initialize",
      "outputs": [],
      "stateMutability": "nonpayable",
      "type": "function"
    },
    {
      "inputs": [],
      "name": "isStakingOrRewardToken",
      "outputs": [
        {
          "internalType": "bool",
          "name": "",
          "type": "bool"
        }
      ],
      "stateMutability": "view",
      "type": "function"
    },
    {
      "inputs": [
        {
          "internalType": "address",
          "name": "user",
          "type": "address"
        },
        {
          "internalType": "uint256",
          "name": "amountToMint",
          "type": "uint256"
        }
      ],
      "name": "mint",
      "outputs": [],
      "stateMutability": "payable",
      "type": "function"
    },
    {
      "inputs": [
        {
          "internalType": "address",
          "name": "user",
          "type": "address"
        },
        {
          "internalType": "uint256[]",
          "name": "amounts",
          "type": "uint256[]"
        }
      ],
      "name": "mint",
      "outputs": [],
      "stateMutability": "payable",
      "type": "function"
    },
    {
      "inputs": [],
      "name": "name",
      "outputs": [
        {
          "internalType": "string",
          "name": "result",
          "type": "string"
        }
      ],
      "stateMutability": "view",
      "type": "function"
    },
    {
      "inputs": [],
      "name": "pause",
      "outputs": [],
      "stateMutability": "nonpayable",
      "type": "function"
    },
    {
      "inputs": [],
      "name": "paused",
      "outputs": [
        {
          "internalType": "bool",
          "name": "",
          "type": "bool"
        }
      ],
      "stateMutability": "view",
      "type": "function"
    },
    {
      "inputs": [],
      "name": "pool",
      "outputs": [
        {
          "internalType": "address",
          "name": "",
          "type": "address"
        }
      ],
      "stateMutability": "view",
      "type": "function"
    },
    {
      "inputs": [],
      "name": "symbol",
      "outputs": [
        {
          "internalType": "string",
          "name": "result",
          "type": "string"
        }
      ],
      "stateMutability": "view",
      "type": "function"
    },
    {
      "inputs": [],
      "name": "totalSupply",
      "outputs": [
        {
          "internalType": "uint256",
          "name": "",
          "type": "uint256"
        }
      ],
      "stateMutability": "view",
      "type": "function"
    },
    {
      "inputs": [
        {
          "internalType": "address",
          "name": "to",
          "type": "address"
        },
        {
          "internalType": "uint256",
          "name": "amount",
          "type": "uint256"
        }
      ],
      "name": "transfer",
      "outputs": [
        {
          "internalType": "bool",
          "name": "",
          "type": "bool"
        }
      ],
      "stateMutability": "nonpayable",
      "type": "function"
    },
    {
      "inputs": [
        {
          "internalType": "address",
          "name": "from",
          "type": "address"
        },
        {
          "internalType": "address",
          "name": "to",
          "type": "address"
        },
        {
          "internalType": "uint256",
          "name": "amount",
          "type": "uint256"
        }
      ],
      "name": "transferFrom",
      "outputs": [
        {
          "internalType": "bool",
          "name": "",
          "type": "bool"
        }
      ],
      "stateMutability": "nonpayable",
      "type": "function"
    },
    {
      "inputs": [
        {
          "internalType": "uint256",
          "name": "",
          "type": "uint256"
        }
      ],
      "name": "underlyingTokens",
      "outputs": [
        {
          "internalType": "address",
          "name": "",
          "type": "address"
        }
      ],
      "stateMutability": "view",
      "type": "function"
    },
    {
      "inputs": [],
      "name": "unpause",
      "outputs": [],
      "stateMutability": "nonpayable",
      "type": "function"
    },
    {
      "stateMutability": "payable",
      "type": "receive"
    }
  ],
  "transactionHash": "0x6661cc8bfe91876d23a62ab3f48c47c18460982e9c0faa713cf6070a7cab39b0",
  "args": [],
  "numDeployments": 1,
  "solcInputHash": "056d3cf6fcc685d178302c8b75c65c06",
  "bytecode": "0x3060805260c06040525f60a0908152600a906200001d908262000146565b503480156200002a575f80fd5b506040518060400160405280600e81526020016d2337b93a3ab73730902a37b5b2b760911b8152506040518060400160405280600381526020016246544160e81b81525081600490816200007f919062000146565b5060056200008e828262000146565b50506006805460ff191690555060016007556200020e565b634e487b7160e01b5f52604160045260245ffd5b600181811c90821680620000cf57607f821691505b602082108103620000ee57634e487b7160e01b5f52602260045260245ffd5b50919050565b601f82111562000141575f81815260208120601f850160051c810160208610156200011c5750805b601f850160051c820191505b818110156200013d5782815560010162000128565b5050505b505050565b81516001600160401b03811115620001625762000162620000a6565b6200017a81620001738454620000ba565b84620000f4565b602080601f831160018114620001b0575f8415620001985750858301515b5f19600386901b1c1916600185901b1785556200013d565b5f85815260208120601f198616915b82811015620001e057888601518255948401946001909101908401620001bf565b5085821015620001fe57878501515f19600388901b60f8161c191681555b5050505050600190811b01905550565b608051612284620002355f395f818161060a0152818161080d0152610a1d01526122845ff3fe60806040526004361061014a575f3560e01c806370a08231116100b3578063a3bf224b1161006d578063a3bf224b146103ce578063a457c2d7146103ed578063a9059cbb1461040c578063dd62ed3e1461042b578063de836ebd1461044a578063f436f0931461045d575f80fd5b806370a082311461030857806377778db31461033c5780637c27a3c6146103675780638456cb591461038757806395d89b411461039b5780639dc29fac146103af575f80fd5b80632f9d937f116101045780632f9d937f1461026f578063313ce5671461028e57806339509351146102a95780633f4ba83a146102c857806340c10f19146102de5780635c975abb146102f1575f80fd5b806306fdde031461017f578063095ea7b3146101a95780630f1954fe146101d857806316f0115b1461020557806318160ddd1461023c57806323b872dd14610250575f80fd5b3661017b5760405134907f347c40822e6eef789530725ec7aa62355b81752377bc28795820ab63d9bc2bf9905f90a2005b5f80fd5b34801561018a575f80fd5b5061019361047c565b6040516101a09190611b9b565b60405180910390f35b3480156101b4575f80fd5b506101c86101c3366004611be4565b61050b565b60405190151581526020016101a0565b3480156101e3575f80fd5b506101f76101f2366004611c0e565b610524565b6040519081526020016101a0565b348015610210575f80fd5b50600954610224906001600160a01b031681565b6040516001600160a01b0390911681526020016101a0565b348015610247575f80fd5b506003546101f7565b34801561025b575f80fd5b506101c861026a366004611c2e565b610578565b34801561027a575f80fd5b506101f7610289366004611c0e565b61059b565b348015610299575f80fd5b50604051601281526020016101a0565b3480156102b4575f80fd5b506101c86102c3366004611be4565b6105c4565b3480156102d3575f80fd5b506102dc6105e5565b005b6102dc6102ec366004611be4565b6105f8565b3480156102fc575f80fd5b5060065460ff166101c8565b348015610313575f80fd5b506101f7610322366004611c6c565b6001600160a01b03165f9081526001602052604090205490565b348015610347575f80fd5b506101f7610356366004611c87565b600c6020525f908152604090205481565b348015610372575f80fd5b506008546101c890600160a01b900460ff1681565b348015610392575f80fd5b506102dc610785565b3480156103a6575f80fd5b50610193610796565b3480156103ba575f80fd5b506102dc6103c9366004611be4565b6107fb565b3480156103d9575f80fd5b506102246103e8366004611c87565b610932565b3480156103f8575f80fd5b506101c8610407366004611be4565b61095a565b348015610417575f80fd5b506101c8610426366004611be4565b6109d4565b348015610436575f80fd5b506101f7610445366004611c9e565b6109e1565b6102dc610458366004611cd5565b610a0b565b348015610468575f80fd5b506102dc610477366004611d63565b610c56565b600854606090600160a01b900460ff166104bc576040518060400160405280600e81526020016d08199bdc881c995dd85c991cc80f60921b8152506104e4565b6040518060400160405280600e81526020016d08199bdc881cdd185ada5b99c80f60921b8152505b600a6040516020016104f7929190611e7a565b604051602081830303815290604052905090565b5f33610518818585611024565b60019150505b92915050565b5f6402540be40061053460035490565b5f858152600c60205260409020546402540be400906105539086611edb565b61055d9190611edb565b6105679190611ef2565b6105719190611ef2565b9392505050565b5f33610585858285611147565b6105908585856111e2565b506001949350505050565b5f828152600c60205260408120546402540be40090816105ba60035490565b6105539086611edb565b5f336105188185856105d683836109e1565b6105e09190611f11565b611024565b6105ee5f61138b565b6105f6611431565b565b5f54610100900460ff168061063557507f00000000000000000000000000000000000000000000000000000000000000006001600160a01b031630145b15610653576040516321c4e35760e21b815260040160405180910390fd5b600854600160a01b900460ff1661068d5761068d7f8e7eec3a91568ea051efb6d35e7514ef01e4807481274e632bc3d6a704427c5861138b565b5f5b600b54811015610776575f6106a48284610524565b90505f6001600160a01b0316600b83815481106106c3576106c3611f24565b5f918252602090912001546001600160a01b03161461071657610711843083600b86815481106106f5576106f5611f24565b5f918252602090912001546001600160a01b0316929190611483565b61073f565b3481111561073f57604051630336cc6d60e51b8152600481018290526024015b60405180910390fd5b5f828152600c60205260408120805483929061075c908490611f11565b9091555082915061076e905081611f38565b91505061068f565b5061078182826114ee565b5050565b61078e5f61138b565b6105f66115ad565b600854606090600160a01b900460ff166107cb5760405180604001604052806003815260200162333a3960e91b8152506107e8565b6040518060400160405280600381526020016266747360e81b8152505b600a6040516020016104f7929190611f50565b5f54610100900460ff168061083857507f00000000000000000000000000000000000000000000000000000000000000006001600160a01b031630145b15610856576040516321c4e35760e21b815260040160405180910390fd5b5f5b600b54811015610927575f61086d8284610524565b90505f6001600160a01b0316600b838154811061088c5761088c611f24565b5f918252602090912001546001600160a01b0316146108dd576108d88482600b85815481106108bd576108bd611f24565b5f918252602090912001546001600160a01b031691906115ea565b6108f0565b6108f06001600160a01b0385168261161f565b5f828152600c60205260408120805483929061090d908490611f76565b9091555082915061091f905081611f38565b915050610858565b506107818282611734565b600b8181548110610941575f80fd5b5f918252602090912001546001600160a01b0316905081565b5f338161096782866109e1565b9050838110156109c75760405162461bcd60e51b815260206004820152602560248201527f45524332303a2064656372656173656420616c6c6f77616e63652062656c6f77604482015264207a65726f60d81b6064820152608401610736565b6105908286868403611024565b5f336105188185856111e2565b6001600160a01b039182165f90815260026020908152604080832093909416825291909152205490565b5f54610100900460ff1680610a4857507f00000000000000000000000000000000000000000000000000000000000000006001600160a01b031630145b15610a66576040516321c4e35760e21b815260040160405180910390fd5b600854600160a01b900460ff16610aa057610aa07f8e7eec3a91568ea051efb6d35e7514ef01e4807481274e632bc3d6a704427c5861138b565b600b548114610afb57604080516333bf2e9f60e01b8152600481018390526024810191909152602060448201527f6d7573744265457175616c546f556e6465726c79696e67546f6b656e734c656e6064820152608401610736565b5f805b82811015610c4557610b2881858584818110610b1c57610b1c611f24565b9050602002013561059b565b610b329083611f11565b91505f6001600160a01b0316600b8281548110610b5157610b51611f24565b5f918252602090912001546001600160a01b031614610ba057610b9b8530868685818110610b8157610b81611f24565b90506020020135600b85815481106106f5576106f5611f24565b610bf5565b34848483818110610bb357610bb3611f24565b905060200201351115610bf557838382818110610bd257610bd2611f24565b90506020020135604051630336cc6d60e51b815260040161073691815260200190565b838382818110610c0757610c07611f24565b90506020020135600c5f8381526020019081526020015f205f828254610c2d9190611f11565b90915550819050610c3d81611f38565b915050610afe565b50610c5084826114ee565b50505050565b5f54610100900460ff1615808015610c7457505f54600160ff909116105b80610c8d5750303b158015610c8d57505f5460ff166001145b610cf05760405162461bcd60e51b815260206004820152602e60248201527f496e697469616c697a61626c653a20636f6e747261637420697320616c72656160448201526d191e481a5b9a5d1a585b1a5e995960921b6064820152608401610736565b5f805460ff191660011790558015610d11575f805461ff0019166101001790555b600980546001600160a01b031916339081179091556040805163c45a015560e01b81529051610dab91839163c45a0155916004808201926020929091908290030181865afa158015610d65573d5f803e3d5ffd5b505050506040513d601f19601f82011682018060405250810190610d899190611f89565b600880546001600160a01b0319166001600160a01b0392909216919091179055565b6008805460ff60a01b1916600160a01b87151502179055610dcf61dead60016114ee565b5f5b610ddb8480611fa4565b90508160ff161015610fd85760ff81165f908152600c602052604090206001905585610e1557610e1061014086013582611866565b610e24565b610e2461012086013582611866565b15610fc657600b610e358580611fa4565b8360ff16818110610e4857610e48611f24565b9050602002016020810190610e5d9190611c6c565b81546001810183555f928352602083200180546001600160a01b0319166001600160a01b0392909216919091179055610e968580611fa4565b8360ff16818110610ea957610ea9611f24565b9050602002016020810190610ebe9190611c6c565b6001600160a01b031614610f9557600a610ed88580611fa4565b8360ff16818110610eeb57610eeb611f24565b9050602002016020810190610f009190611c6c565b6001600160a01b03166395d89b416040518163ffffffff1660e01b81526004015f60405180830381865afa158015610f3a573d5f803e3d5ffd5b505050506040513d5f823e601f3d908101601f19168201604052610f619190810190612005565b604051602001610f729291906120a2565b604051602081830303815290604052600a9081610f8f919061211f565b50610fc6565b600a604051602001610fa791906121db565b604051602081830303815290604052600a9081610fc4919061211f565b505b80610fd0816121fa565b915050610dd1565b50508015610c50575f805461ff0019169055604051600181527f7f26b83ff96e1f2b6a682f133852f6798a09c465da95921460cefb38474024989060200160405180910390a150505050565b6001600160a01b0383166110865760405162461bcd60e51b8152602060048201526024808201527f45524332303a20617070726f76652066726f6d20746865207a65726f206164646044820152637265737360e01b6064820152608401610736565b6001600160a01b0382166110e75760405162461bcd60e51b815260206004820152602260248201527f45524332303a20617070726f766520746f20746865207a65726f206164647265604482015261737360f01b6064820152608401610736565b6001600160a01b038381165f8181526002602090815260408083209487168084529482529182902085905590518481527f8c5be1e5ebec7d5bd14f71427d1e84f3dd0314c0f7b2291e5b200ac8c7c3b925910160405180910390a3505050565b5f61115284846109e1565b6009549091506001600160a01b039081169084160361116f57505f195b5f198114610c5057818110156111d55760405162461bcd60e51b815260206004820152602560248201527f466f7274756e6e61546f6b656e3a20696e73756666696369656e7420616c6c6f60448201526477616e636560d81b6064820152608401610736565b610c508484848403611024565b6001600160a01b0383166112465760405162461bcd60e51b815260206004820152602560248201527f45524332303a207472616e736665722066726f6d20746865207a65726f206164604482015264647265737360d81b6064820152608401610736565b6001600160a01b0382166112a85760405162461bcd60e51b815260206004820152602360248201527f45524332303a207472616e7366657220746f20746865207a65726f206164647260448201526265737360e81b6064820152608401610736565b6001600160a01b0383165f908152600160205260409020548181101561131f5760405162461bcd60e51b815260206004820152602660248201527f45524332303a207472616e7366657220616d6f756e7420657863656564732062604482015265616c616e636560d01b6064820152608401610736565b6001600160a01b038085165f8181526001602052604080822086860390559286168082529083902080548601905591517fddf252ad1be2c89b69c2b068fc378daa952ba7f163c4a11628f55a4df523b3ef9061137e9086815260200190565b60405180910390a3610c50565b5f33600854604051632474521560e21b8152600481018590526001600160a01b0380841660248301529293509116906391d1485490604401602060405180830381865afa1580156113de573d5f803e3d5ffd5b505050506040513d601f19601f820116820180604052508101906114029190612218565b6107815760405163a78e4aa560e01b8152600481018390526001600160a01b0382166024820152604401610736565b61143961188d565b6006805460ff191690557f5db9ee0a495bf2e6ff9c91a7834c1ba4fdd244a5e8aa4e537bd38aeae4b073aa335b6040516001600160a01b03909116815260200160405180910390a1565b6040516001600160a01b0380851660248301528316604482015260648101829052610c509085906323b872dd60e01b906084015b60408051601f198184030181529190526020810180516001600160e01b03166001600160e01b0319909316929092179091526118d6565b6001600160a01b0382166115445760405162461bcd60e51b815260206004820152601f60248201527f45524332303a206d696e7420746f20746865207a65726f2061646472657373006044820152606401610736565b8060035f8282546115559190611f11565b90915550506001600160a01b0382165f818152600160209081526040808320805486019055518481527fddf252ad1be2c89b69c2b068fc378daa952ba7f163c4a11628f55a4df523b3ef910160405180910390a35050565b6115b56119a9565b6006805460ff191660011790557f62e78cea01bee320cd4e420270b5ea74000d11b0c9f74754ebdbfc544b05a2586114663390565b6040516001600160a01b03831660248201526044810182905261161a90849063a9059cbb60e01b906064016114b7565b505050565b8047101561166f5760405162461bcd60e51b815260206004820152601d60248201527f416464726573733a20696e73756666696369656e742062616c616e63650000006044820152606401610736565b5f826001600160a01b0316826040515f6040518083038185875af1925050503d805f81146116b8576040519150601f19603f3d011682016040523d82523d5f602084013e6116bd565b606091505b505090508061161a5760405162461bcd60e51b815260206004820152603a60248201527f416464726573733a20756e61626c6520746f2073656e642076616c75652c207260448201527f6563697069656e74206d617920686176652072657665727465640000000000006064820152608401610736565b6001600160a01b0382166117945760405162461bcd60e51b815260206004820152602160248201527f45524332303a206275726e2066726f6d20746865207a65726f206164647265736044820152607360f81b6064820152608401610736565b6001600160a01b0382165f90815260016020526040902054818110156118075760405162461bcd60e51b815260206004820152602260248201527f45524332303a206275726e20616d6f756e7420657863656564732062616c616e604482015261636560f01b6064820152608401610736565b6001600160a01b0383165f8181526001602090815260408083208686039055600380548790039055518581529192917fddf252ad1be2c89b69c2b068fc378daa952ba7f163c4a11628f55a4df523b3ef910160405180910390a3505050565b5f8060ff83161561187d57600160ff84161b611880565b60015b8481161491505092915050565b60065460ff166105f65760405162461bcd60e51b815260206004820152601460248201527314185d5cd8589b194e881b9bdd081c185d5cd95960621b6044820152606401610736565b5f61192a826040518060400160405280602081526020017f5361666545524332303a206c6f772d6c6576656c2063616c6c206661696c6564815250856001600160a01b03166119ef9092919063ffffffff16565b905080515f148061194a57508080602001905181019061194a9190612218565b61161a5760405162461bcd60e51b815260206004820152602a60248201527f5361666545524332303a204552433230206f7065726174696f6e20646964206e6044820152691bdd081cdd58d8d9595960b21b6064820152608401610736565b60065460ff16156105f65760405162461bcd60e51b815260206004820152601060248201526f14185d5cd8589b194e881c185d5cd95960821b6044820152606401610736565b60606119fd84845f85611a05565b949350505050565b606082471015611a665760405162461bcd60e51b815260206004820152602660248201527f416464726573733a20696e73756666696369656e742062616c616e636520666f6044820152651c8818d85b1b60d21b6064820152608401610736565b5f80866001600160a01b03168587604051611a819190612233565b5f6040518083038185875af1925050503d805f8114611abb576040519150601f19603f3d011682016040523d82523d5f602084013e611ac0565b606091505b5091509150611ad187838387611adc565b979650505050505050565b60608315611b4a5782515f03611b43576001600160a01b0385163b611b435760405162461bcd60e51b815260206004820152601d60248201527f416464726573733a2063616c6c20746f206e6f6e2d636f6e74726163740000006044820152606401610736565b50816119fd565b6119fd8383815115611b5f5781518083602001fd5b8060405162461bcd60e51b81526004016107369190611b9b565b5f5b83811015611b93578181015183820152602001611b7b565b50505f910152565b602081525f8251806020840152611bb9816040850160208701611b79565b601f01601f19169190910160400192915050565b6001600160a01b0381168114611be1575f80fd5b50565b5f8060408385031215611bf5575f80fd5b8235611c0081611bcd565b946020939093013593505050565b5f8060408385031215611c1f575f80fd5b50508035926020909101359150565b5f805f60608486031215611c40575f80fd5b8335611c4b81611bcd565b92506020840135611c5b81611bcd565b929592945050506040919091013590565b5f60208284031215611c7c575f80fd5b813561057181611bcd565b5f60208284031215611c97575f80fd5b5035919050565b5f8060408385031215611caf575f80fd5b8235611cba81611bcd565b91506020830135611cca81611bcd565b809150509250929050565b5f805f60408486031215611ce7575f80fd5b8335611cf281611bcd565b9250602084013567ffffffffffffffff80821115611d0e575f80fd5b818601915086601f830112611d21575f80fd5b813581811115611d2f575f80fd5b8760208260051b8501011115611d43575f80fd5b6020830194508093505050509250925092565b8015158114611be1575f80fd5b5f805f8385036101c0811215611d77575f80fd5b8435611d8281611d56565b9350610180601f1982011215611d96575f80fd5b506020840191506101a084013567ffffffffffffffff811115611db7575f80fd5b840160608187031215611dc8575f80fd5b809150509250925092565b600181811c90821680611de757607f821691505b602082108103611e0557634e487b7160e01b5f52602260045260245ffd5b50919050565b5f8154611e1781611dd3565b60018281168015611e2f5760018114611e4457611e70565b60ff1984168752821515830287019450611e70565b855f526020805f205f5b85811015611e675781548a820152908401908201611e4e565b50505082870194505b5050505092915050565b702337b93a3ab73730902628103a37b5b2b760791b81525f8351611ea5816011850160208801611b79565b611eb460118285010185611e0b565b601f60f91b815260010195945050505050565b634e487b7160e01b5f52601160045260245ffd5b808202811582820484141761051e5761051e611ec7565b5f82611f0c57634e487b7160e01b5f52601260045260245ffd5b500490565b8082018082111561051e5761051e611ec7565b634e487b7160e01b5f52603260045260245ffd5b5f60018201611f4957611f49611ec7565b5060010190565b5f8351611f61818460208801611b79565b611f6d81840185611e0b565b95945050505050565b8181038181111561051e5761051e611ec7565b5f60208284031215611f99575f80fd5b815161057181611bcd565b5f808335601e19843603018112611fb9575f80fd5b83018035915067ffffffffffffffff821115611fd3575f80fd5b6020019150600581901b3603821315611fea575f80fd5b9250929050565b634e487b7160e01b5f52604160045260245ffd5b5f60208284031215612015575f80fd5b815167ffffffffffffffff8082111561202c575f80fd5b818401915084601f83011261203f575f80fd5b81518181111561205157612051611ff1565b604051601f8201601f19908116603f0116810190838211818310171561207957612079611ff1565b81604052828152876020848701011115612091575f80fd5b611ad1836020830160208801611b79565b5f6120ad8285611e0b565b83516120bd818360208801611b79565b600f60fb1b9101908152600101949350505050565b601f82111561161a575f81815260208120601f850160051c810160208610156120f85750805b601f850160051c820191505b8181101561211757828155600101612104565b505050505050565b815167ffffffffffffffff81111561213957612139611ff1565b61214d816121478454611dd3565b846120d2565b602080601f831160018114612180575f84156121695750858301515b5f19600386901b1c1916600185901b178555612117565b5f85815260208120601f198616915b828110156121ae5788860151825594840194600190910190840161218f565b50858210156121cb57878501515f19600388901b60f8161c191681555b5050505050600190811b01905550565b5f6121e68284611e0b565b6308aa890f60e31b81526004019392505050565b5f60ff821660ff810361220f5761220f611ec7565b60010192915050565b5f60208284031215612228575f80fd5b815161057181611d56565b5f8251612244818460208701611b79565b919091019291505056fea2646970667358221220e5afa4d23a15bcace12ba04465126112bb54bc16e35eaf53b4b9175968e3c69764736f6c63430008140033",
  "libraries": {
    "FortunnaLib": "0x2808890e5EAB2680FDd31434b97b783E5E27F4A4",
    "FortunnaErrorsLib": "0x2eE3dcDf0c19ac2BFD9b5EeaA0e0ed0Ea7CE3D2c",
    "FortunnaBitMaskLib": "0x72226562778C615fB510Dbf00DB467adF76134E0"
  },
  "devdoc": {
    "author": "Fortunna Team",
    "errors": {
      "InvalidScalar(uint256,string)": [
        {
          "details": "An error to be reverted if some scalar property of the data structure was addressed wrongly.",
          "params": {
            "comment": "Some comment as to what kind of a data structure property this is.",
            "scalar": "A scalar."
          }
        }
      ],
      "NotAuthorized(bytes32,address)": [
        {
          "details": "An error to be reverted if an `entity` does not possess the `role`.",
          "params": {
            "entity": "An entity violating authorization.",
            "role": "A role an entity doesn't posess."
          }
        }
      ],
      "NotEnoughtPayment(uint256)": [
        {
          "details": "An error to be reverted if the pool deployer didn't payed enough for it.",
          "params": {
            "amount": "An actual amount the deployer sent."
          }
        }
      ],
      "NotInitialized()": [
        {
          "details": "An error to be reverted if the contract was being called before the initialization."
        }
      ]
    },
    "events": {
      "Approval(address,address,uint256)": {
        "details": "Emitted when the allowance of a `spender` for an `owner` is set by a call to {approve}. `value` is the new allowance."
      },
      "Initialized(uint8)": {
        "details": "Triggered when the contract has been initialized or reinitialized."
      },
      "NativeTokenReceived(uint256)": {
        "params": {
          "amount": "An exact amount of the tokens arrived."
        }
      },
      "Paused(address)": {
        "details": "Emitted when the pause is triggered by `account`."
      },
      "Transfer(address,address,uint256)": {
        "details": "Emitted when `value` tokens are moved from one account (`from`) to another (`to`). Note that `value` may be zero."
      },
      "Unpaused(address)": {
        "details": "Emitted when the pause is lifted by `account`."
      }
    },
    "kind": "dev",
    "methods": {
      "allowance(address,address)": {
        "details": "See {IERC20-allowance}."
      },
      "approve(address,uint256)": {
        "details": "See {IERC20-approve}. NOTE: If `amount` is the maximum `uint256`, the allowance is not updated on `transferFrom`. This is semantically equivalent to an infinite approval. Requirements: - `spender` cannot be the zero address."
      },
      "balanceOf(address)": {
        "details": "See {IERC20-balanceOf}."
      },
      "burn(address,uint256)": {
        "params": {
          "amount": "An amount to be burned.",
          "user": "A user (burner) address."
        }
      },
      "calcFortunnaTokensInOrOutPerUnderlyingToken(uint256,uint256)": {
        "params": {
          "underlyingTokenAmountInOrOut": "An amount of the collateral token to be placed in or out.",
          "underlyingTokenIdx": "A collateral token index."
        },
        "returns": {
          "fortunnaTokensAmountInOrOut": "An amount of Fortuna Dust minted or burned."
        }
      },
      "calcUnderlyingTokensInOrOutPerFortunnaToken(uint256,uint256)": {
        "params": {
          "amountToMintOrBurn": "An amount of the Fortuna Dust to be minted or burned.",
          "underlyingTokenIdx": "A collateral token index in the factory."
        },
        "returns": {
          "underlyingTokensInOrOut": "An amount of collateral token to be placed in or taken out."
        }
      },
      "decimals()": {
        "details": "Returns the number of decimals used to get its user representation. For example, if `decimals` equals `2`, a balance of `505` tokens should be displayed to a user as `5.05` (`505 / 10 ** 2`). Tokens usually opt for a value of 18, imitating the relationship between Ether and Wei. This is the default value returned by this function, unless it's overridden. NOTE: This information is only used for _display_ purposes: it in no way affects any of the arithmetic of the contract, including {IERC20-balanceOf} and {IERC20-transfer}."
      },
      "decreaseAllowance(address,uint256)": {
        "details": "Atomically decreases the allowance granted to `spender` by the caller. This is an alternative to {approve} that can be used as a mitigation for problems described in {IERC20-approve}. Emits an {Approval} event indicating the updated allowance. Requirements: - `spender` cannot be the zero address. - `spender` must have allowance for the caller of at least `subtractedValue`."
      },
      "increaseAllowance(address,uint256)": {
        "details": "Atomically increases the allowance granted to `spender` by the caller. This is an alternative to {approve} that can be used as a mitigation for problems described in {IERC20-approve}. Emits an {Approval} event indicating the updated allowance. Requirements: - `spender` cannot be the zero address."
      },
      "initialize(bool,(uint256,uint256,uint256,uint256,uint256,uint256,uint256,uint256,uint256,bytes32,bytes32,(address)),(address[],uint256[2][],uint256[2][]))": {
        "params": {
          "poolParameters": "The scalar parameters.",
          "poolParametersArrays": "The vector parameters. ",
          "stakingOrRewardTokens": "Decide whether the Fortuna Dust token is staking or reward."
        }
      },
      "mint(address,uint256)": {
        "params": {
          "amount": "An amount to be minted.",
          "user": "A user (minter) address."
        }
      },
      "name()": {
        "details": "Returns the name of the token."
      },
      "pause()": {
        "details": "Could be called only by the admin."
      },
      "paused()": {
        "details": "Returns true if the contract is paused, and false otherwise."
      },
      "symbol()": {
        "details": "Returns the symbol of the token, usually a shorter version of the name."
      },
      "totalSupply()": {
        "details": "See {IERC20-totalSupply}."
      },
      "transfer(address,uint256)": {
        "details": "See {IERC20-transfer}. Requirements: - `to` cannot be the zero address. - the caller must have a balance of at least `amount`."
      },
      "transferFrom(address,address,uint256)": {
        "details": "See {IERC20-transferFrom}. Emits an {Approval} event indicating the updated allowance. This is not required by the EIP. See the note at the beginning of {ERC20}. NOTE: Does not update the allowance if the current allowance is the maximum `uint256`. Requirements: - `from` and `to` cannot be the zero address. - `from` must have a balance of at least `amount`. - the caller must have allowance for ``from``'s tokens of at least `amount`."
      },
      "unpause()": {
        "details": "Could be called only by the admin."
      }
    },
    "title": "Fortunna Yield Farming Fortunna Token - Fortuna Dust.",
    "version": 1
  },
  "userdoc": {
    "events": {
      "NativeTokenReceived(uint256)": {
        "notice": "An event to be fired when native tokens arrive to the fabric."
      }
    },
    "kind": "user",
    "methods": {
      "burn(address,uint256)": {
        "notice": "A burn function that could be called either by anyone or only by an admin. Depends if the token is initialized as staking or reward token."
      },
      "calcFortunnaTokensInOrOutPerUnderlyingToken(uint256,uint256)": {
        "notice": "A helper function to calculate an amount of Fortuna Dust to be minted/burned if this amount of an underlying token is placed/taken as a collateral. "
      },
      "calcUnderlyingTokensInOrOutPerFortunnaToken(uint256,uint256)": {
        "notice": "A helper function to calculate an amount of collateral tokens to be gotten out or placed in if a specified amount of Fortuna Dust provided."
      },
      "constructor": {
        "notice": "A classic OZ ERC20 constructor."
      },
      "getReserve(uint256)": {
        "notice": "A getter with 1 parameter - get an amount of an underlying token on the contract."
      },
      "initialize(bool,(uint256,uint256,uint256,uint256,uint256,uint256,uint256,uint256,uint256,bytes32,bytes32,(address)),(address[],uint256[2][],uint256[2][]))": {
        "notice": "An initializing function that could be called only once and only by the Pool contract."
      },
      "isStakingOrRewardToken()": {
        "notice": "A getter function of boolean variable that indicares either the token was meant for staking or rewards providing."
      },
      "mint(address,uint256)": {
        "notice": "A mint function that could be called either by anyone or only by an admin. Depends if the token is initialized as staking or reward token."
      },
      "pause()": {
        "notice": "Triggers paused state."
      },
      "pool()": {
        "notice": "A getter for the corresponding pool address that the contract is tied to."
      },
      "underlyingTokens(uint256)": {
        "notice": "A getter for the list of an underlying tokens."
      },
      "unpause()": {
        "notice": "Returns to normal state."
      }
    },
    "notice": "Deploys FortunnaToken either for staking or rewards providing.",
    "version": 1
  },
  "storageLayout": {
    "storage": [
      {
        "astId": 79,
        "contract": "contracts/FortunnaToken.sol:FortunnaToken",
        "label": "_initialized",
        "offset": 0,
        "slot": "0",
        "type": "t_uint8"
      },
      {
        "astId": 82,
        "contract": "contracts/FortunnaToken.sol:FortunnaToken",
        "label": "_initializing",
        "offset": 1,
        "slot": "0",
        "type": "t_bool"
      },
      {
        "astId": 430,
        "contract": "contracts/FortunnaToken.sol:FortunnaToken",
        "label": "_balances",
        "offset": 0,
        "slot": "1",
        "type": "t_mapping(t_address,t_uint256)"
      },
      {
        "astId": 436,
        "contract": "contracts/FortunnaToken.sol:FortunnaToken",
        "label": "_allowances",
        "offset": 0,
        "slot": "2",
        "type": "t_mapping(t_address,t_mapping(t_address,t_uint256))"
      },
      {
        "astId": 438,
        "contract": "contracts/FortunnaToken.sol:FortunnaToken",
        "label": "_totalSupply",
        "offset": 0,
        "slot": "3",
        "type": "t_uint256"
      },
      {
        "astId": 440,
        "contract": "contracts/FortunnaToken.sol:FortunnaToken",
        "label": "_name",
        "offset": 0,
        "slot": "4",
        "type": "t_string_storage"
      },
      {
        "astId": 442,
        "contract": "contracts/FortunnaToken.sol:FortunnaToken",
        "label": "_symbol",
        "offset": 0,
        "slot": "5",
        "type": "t_string_storage"
      },
      {
        "astId": 259,
        "contract": "contracts/FortunnaToken.sol:FortunnaToken",
        "label": "_paused",
        "offset": 0,
        "slot": "6",
        "type": "t_bool"
      },
      {
        "astId": 360,
        "contract": "contracts/FortunnaToken.sol:FortunnaToken",
        "label": "_status",
        "offset": 0,
        "slot": "7",
        "type": "t_uint256"
      },
      {
        "astId": 1893,
        "contract": "contracts/FortunnaToken.sol:FortunnaToken",
        "label": "_factory",
        "offset": 0,
        "slot": "8",
        "type": "t_address"
      },
      {
        "astId": 2029,
        "contract": "contracts/FortunnaToken.sol:FortunnaToken",
        "label": "isStakingOrRewardToken",
        "offset": 20,
        "slot": "8",
        "type": "t_bool"
      },
      {
        "astId": 2032,
        "contract": "contracts/FortunnaToken.sol:FortunnaToken",
        "label": "pool",
        "offset": 0,
        "slot": "9",
        "type": "t_address"
      },
      {
        "astId": 2039,
        "contract": "contracts/FortunnaToken.sol:FortunnaToken",
        "label": "underlyingTokensSymbols",
        "offset": 0,
        "slot": "10",
        "type": "t_bytes_storage"
      },
      {
        "astId": 2043,
        "contract": "contracts/FortunnaToken.sol:FortunnaToken",
        "label": "underlyingTokens",
        "offset": 0,
        "slot": "11",
        "type": "t_array(t_address)dyn_storage"
      },
      {
        "astId": 2048,
        "contract": "contracts/FortunnaToken.sol:FortunnaToken",
        "label": "getReserve",
        "offset": 0,
        "slot": "12",
        "type": "t_mapping(t_uint256,t_uint256)"
      }
    ],
    "types": {
      "t_address": {
        "encoding": "inplace",
        "label": "address",
        "numberOfBytes": "20"
      },
      "t_array(t_address)dyn_storage": {
        "base": "t_address",
        "encoding": "dynamic_array",
        "label": "address[]",
        "numberOfBytes": "32"
      },
      "t_bool": {
        "encoding": "inplace",
        "label": "bool",
        "numberOfBytes": "1"
      },
      "t_bytes_storage": {
        "encoding": "bytes",
        "label": "bytes",
        "numberOfBytes": "32"
      },
      "t_mapping(t_address,t_mapping(t_address,t_uint256))": {
        "encoding": "mapping",
        "key": "t_address",
        "label": "mapping(address => mapping(address => uint256))",
        "numberOfBytes": "32",
        "value": "t_mapping(t_address,t_uint256)"
      },
      "t_mapping(t_address,t_uint256)": {
        "encoding": "mapping",
        "key": "t_address",
        "label": "mapping(address => uint256)",
        "numberOfBytes": "32",
        "value": "t_uint256"
      },
      "t_mapping(t_uint256,t_uint256)": {
        "encoding": "mapping",
        "key": "t_uint256",
        "label": "mapping(uint256 => uint256)",
        "numberOfBytes": "32",
        "value": "t_uint256"
      },
      "t_string_storage": {
        "encoding": "bytes",
        "label": "string",
        "numberOfBytes": "32"
      },
      "t_uint256": {
        "encoding": "inplace",
        "label": "uint256",
        "numberOfBytes": "32"
      },
      "t_uint8": {
        "encoding": "inplace",
        "label": "uint8",
        "numberOfBytes": "1"
      }
    }
  }
}