{
  "address": "0x1f06d1A5b2D9d0ad45DBcf91CafAB6A5d9329419",
  "abi": [
    {
      "inputs": [],
      "stateMutability": "nonpayable",
      "type": "constructor"
    },
    {
      "inputs": [
        {
          "internalType": "bytes32",
          "name": "role",
          "type": "bytes32"
        },
        {
          "internalType": "address",
          "name": "entity",
          "type": "address"
        }
      ],
      "name": "NotAuthorized",
      "type": "error"
    },
    {
      "inputs": [
        {
          "internalType": "uint256",
          "name": "amount",
          "type": "uint256"
        }
      ],
      "name": "NotEnoughtPayment",
      "type": "error"
    },
    {
      "inputs": [],
      "name": "NotInitialized",
      "type": "error"
    },
    {
      "anonymous": false,
      "inputs": [
        {
          "indexed": true,
          "internalType": "address",
          "name": "owner",
          "type": "address"
        },
        {
          "indexed": true,
          "internalType": "address",
          "name": "spender",
          "type": "address"
        },
        {
          "indexed": false,
          "internalType": "uint256",
          "name": "value",
          "type": "uint256"
        }
      ],
      "name": "Approval",
      "type": "event"
    },
    {
      "anonymous": false,
      "inputs": [
        {
          "indexed": false,
          "internalType": "uint8",
          "name": "version",
          "type": "uint8"
        }
      ],
      "name": "Initialized",
      "type": "event"
    },
    {
      "anonymous": false,
      "inputs": [
        {
          "indexed": true,
          "internalType": "uint256",
          "name": "amount",
          "type": "uint256"
        }
      ],
      "name": "NativeTokenReceived",
      "type": "event"
    },
    {
      "anonymous": false,
      "inputs": [
        {
          "indexed": false,
          "internalType": "address",
          "name": "account",
          "type": "address"
        }
      ],
      "name": "Paused",
      "type": "event"
    },
    {
      "anonymous": false,
      "inputs": [
        {
          "indexed": true,
          "internalType": "address",
          "name": "from",
          "type": "address"
        },
        {
          "indexed": true,
          "internalType": "address",
          "name": "to",
          "type": "address"
        },
        {
          "indexed": false,
          "internalType": "uint256",
          "name": "value",
          "type": "uint256"
        }
      ],
      "name": "Transfer",
      "type": "event"
    },
    {
      "anonymous": false,
      "inputs": [
        {
          "indexed": false,
          "internalType": "address",
          "name": "account",
          "type": "address"
        }
      ],
      "name": "Unpaused",
      "type": "event"
    },
    {
      "inputs": [
        {
          "internalType": "address",
          "name": "owner",
          "type": "address"
        },
        {
          "internalType": "address",
          "name": "spender",
          "type": "address"
        }
      ],
      "name": "allowance",
      "outputs": [
        {
          "internalType": "uint256",
          "name": "",
          "type": "uint256"
        }
      ],
      "stateMutability": "view",
      "type": "function"
    },
    {
      "inputs": [
        {
          "internalType": "address",
          "name": "spender",
          "type": "address"
        },
        {
          "internalType": "uint256",
          "name": "amount",
          "type": "uint256"
        }
      ],
      "name": "approve",
      "outputs": [
        {
          "internalType": "bool",
          "name": "",
          "type": "bool"
        }
      ],
      "stateMutability": "nonpayable",
      "type": "function"
    },
    {
      "inputs": [
        {
          "internalType": "address",
          "name": "account",
          "type": "address"
        }
      ],
      "name": "balanceOf",
      "outputs": [
        {
          "internalType": "uint256",
          "name": "",
          "type": "uint256"
        }
      ],
      "stateMutability": "view",
      "type": "function"
    },
    {
      "inputs": [
        {
          "internalType": "address payable",
          "name": "user",
          "type": "address"
        },
        {
          "internalType": "uint256",
          "name": "amount",
          "type": "uint256"
        }
      ],
      "name": "burn",
      "outputs": [],
      "stateMutability": "nonpayable",
      "type": "function"
    },
    {
      "inputs": [
        {
          "internalType": "uint256",
          "name": "underlyingTokenIdx",
          "type": "uint256"
        },
        {
          "internalType": "uint256",
          "name": "underlyingTokenAmountInOrOut",
          "type": "uint256"
        }
      ],
      "name": "calcFortunnaTokensInOrOutPerUnderlyingToken",
      "outputs": [
        {
          "internalType": "uint256",
          "name": "fortunnaTokensAmountInOrOut",
          "type": "uint256"
        }
      ],
      "stateMutability": "view",
      "type": "function"
    },
    {
      "inputs": [
        {
          "internalType": "uint256",
          "name": "underlyingTokenIdx",
          "type": "uint256"
        },
        {
          "internalType": "uint256",
          "name": "amountToMintOrBurn",
          "type": "uint256"
        }
      ],
      "name": "calcUnderlyingTokensInOrOutPerFortunnaToken",
      "outputs": [
        {
          "internalType": "uint256",
          "name": "underlyingTokensInOrOut",
          "type": "uint256"
        }
      ],
      "stateMutability": "view",
      "type": "function"
    },
    {
      "inputs": [],
      "name": "decimals",
      "outputs": [
        {
          "internalType": "uint8",
          "name": "",
          "type": "uint8"
        }
      ],
      "stateMutability": "view",
      "type": "function"
    },
    {
      "inputs": [
        {
          "internalType": "address",
          "name": "spender",
          "type": "address"
        },
        {
          "internalType": "uint256",
          "name": "subtractedValue",
          "type": "uint256"
        }
      ],
      "name": "decreaseAllowance",
      "outputs": [
        {
          "internalType": "bool",
          "name": "",
          "type": "bool"
        }
      ],
      "stateMutability": "nonpayable",
      "type": "function"
    },
    {
      "inputs": [
        {
          "internalType": "uint256",
          "name": "",
          "type": "uint256"
        }
      ],
      "name": "getReserve",
      "outputs": [
        {
          "internalType": "uint256",
          "name": "",
          "type": "uint256"
        }
      ],
      "stateMutability": "view",
      "type": "function"
    },
    {
      "inputs": [
        {
          "internalType": "address",
          "name": "spender",
          "type": "address"
        },
        {
          "internalType": "uint256",
          "name": "addedValue",
          "type": "uint256"
        }
      ],
      "name": "increaseAllowance",
      "outputs": [
        {
          "internalType": "bool",
          "name": "",
          "type": "bool"
        }
      ],
      "stateMutability": "nonpayable",
      "type": "function"
    },
    {
      "inputs": [
        {
          "internalType": "bool",
          "name": "_stakingOrRewardTokens",
          "type": "bool"
        },
        {
          "components": [
            {
              "internalType": "uint256",
              "name": "protoPoolIdx",
              "type": "uint256"
            },
            {
              "internalType": "uint256",
              "name": "startTimestamp",
              "type": "uint256"
            },
            {
              "internalType": "uint256",
              "name": "endTimestamp",
              "type": "uint256"
            },
            {
              "internalType": "uint256",
              "name": "minStakeAmount",
              "type": "uint256"
            },
            {
              "internalType": "uint256",
              "name": "maxStakeAmount",
              "type": "uint256"
            },
            {
              "internalType": "uint256",
              "name": "minLockUpRewardsPeriod",
              "type": "uint256"
            },
            {
              "internalType": "uint256",
              "name": "earlyWithdrawalFeeBasePoints",
              "type": "uint256"
            },
            {
              "internalType": "uint256",
              "name": "depositWithdrawFeeBasePoints",
              "type": "uint256"
            },
            {
              "internalType": "uint256",
              "name": "totalRewardBasePointsPerDistribution",
              "type": "uint256"
            },
            {
              "internalType": "bytes32",
              "name": "stakingTokensMask",
              "type": "bytes32"
            },
            {
              "internalType": "bytes32",
              "name": "rewardTokensMask",
              "type": "bytes32"
            },
            {
              "components": [
                {
                  "internalType": "address",
                  "name": "nonfungiblePositionManager",
                  "type": "address"
                }
              ],
              "internalType": "struct FortunnaLib.CustomPoolParameters",
              "name": "custom",
              "type": "tuple"
            }
          ],
          "internalType": "struct FortunnaLib.PoolParameters",
          "name": "poolParameters",
          "type": "tuple"
        },
        {
          "components": [
            {
              "internalType": "address[]",
              "name": "utilizingTokens",
              "type": "address[]"
            },
            {
              "internalType": "uint256[2][]",
              "name": "initialRewardAmounts",
              "type": "uint256[2][]"
            },
            {
              "internalType": "uint256[2][]",
              "name": "initialDepositAmounts",
              "type": "uint256[2][]"
            }
          ],
          "internalType": "struct FortunnaLib.PoolParametersArrays",
          "name": "poolParametersArrays",
          "type": "tuple"
        }
      ],
      "name": "initialize",
      "outputs": [],
      "stateMutability": "nonpayable",
      "type": "function"
    },
    {
      "inputs": [],
      "name": "isStakingOrRewardToken",
      "outputs": [
        {
          "internalType": "bool",
          "name": "",
          "type": "bool"
        }
      ],
      "stateMutability": "view",
      "type": "function"
    },
    {
      "inputs": [
        {
          "internalType": "address",
          "name": "user",
          "type": "address"
        },
        {
          "internalType": "uint256",
          "name": "amountToMint",
          "type": "uint256"
        }
      ],
      "name": "mint",
      "outputs": [],
      "stateMutability": "payable",
      "type": "function"
    },
    {
      "inputs": [],
      "name": "name",
      "outputs": [
        {
          "internalType": "string",
          "name": "result",
          "type": "string"
        }
      ],
      "stateMutability": "view",
      "type": "function"
    },
    {
      "inputs": [],
      "name": "pause",
      "outputs": [],
      "stateMutability": "nonpayable",
      "type": "function"
    },
    {
      "inputs": [],
      "name": "paused",
      "outputs": [
        {
          "internalType": "bool",
          "name": "",
          "type": "bool"
        }
      ],
      "stateMutability": "view",
      "type": "function"
    },
    {
      "inputs": [],
      "name": "pool",
      "outputs": [
        {
          "internalType": "address",
          "name": "",
          "type": "address"
        }
      ],
      "stateMutability": "view",
      "type": "function"
    },
    {
      "inputs": [],
      "name": "symbol",
      "outputs": [
        {
          "internalType": "string",
          "name": "result",
          "type": "string"
        }
      ],
      "stateMutability": "view",
      "type": "function"
    },
    {
      "inputs": [],
      "name": "totalSupply",
      "outputs": [
        {
          "internalType": "uint256",
          "name": "",
          "type": "uint256"
        }
      ],
      "stateMutability": "view",
      "type": "function"
    },
    {
      "inputs": [
        {
          "internalType": "address",
          "name": "to",
          "type": "address"
        },
        {
          "internalType": "uint256",
          "name": "amount",
          "type": "uint256"
        }
      ],
      "name": "transfer",
      "outputs": [
        {
          "internalType": "bool",
          "name": "",
          "type": "bool"
        }
      ],
      "stateMutability": "nonpayable",
      "type": "function"
    },
    {
      "inputs": [
        {
          "internalType": "address",
          "name": "from",
          "type": "address"
        },
        {
          "internalType": "address",
          "name": "to",
          "type": "address"
        },
        {
          "internalType": "uint256",
          "name": "amount",
          "type": "uint256"
        }
      ],
      "name": "transferFrom",
      "outputs": [
        {
          "internalType": "bool",
          "name": "",
          "type": "bool"
        }
      ],
      "stateMutability": "nonpayable",
      "type": "function"
    },
    {
      "inputs": [
        {
          "internalType": "uint256",
          "name": "",
          "type": "uint256"
        }
      ],
      "name": "underlyingTokens",
      "outputs": [
        {
          "internalType": "address",
          "name": "",
          "type": "address"
        }
      ],
      "stateMutability": "view",
      "type": "function"
    },
    {
      "inputs": [],
      "name": "unpause",
      "outputs": [],
      "stateMutability": "nonpayable",
      "type": "function"
    },
    {
      "stateMutability": "payable",
      "type": "receive"
    }
  ],
  "transactionHash": "0x8a6bae00f24e0e3bdd72b27b168b99fc241873e80f5533d146f8c5fe819c30c1",
  "args": [],
  "numDeployments": 1,
  "solcInputHash": "c606527edc352ff35406216236e37da4",
  "bytecode": "0x3060805260c06040525f60a0908152600a906200001d908262000146565b503480156200002a575f80fd5b506040518060400160405280600e81526020016d2337b93a3ab73730902a37b5b2b760911b8152506040518060400160405280600381526020016246544160e81b81525081600490816200007f919062000146565b5060056200008e828262000146565b50506006805460ff191690555060016007556200020e565b634e487b7160e01b5f52604160045260245ffd5b600181811c90821680620000cf57607f821691505b602082108103620000ee57634e487b7160e01b5f52602260045260245ffd5b50919050565b601f82111562000141575f81815260208120601f850160051c810160208610156200011c5750805b601f850160051c820191505b818110156200013d5782815560010162000128565b5050505b505050565b81516001600160401b03811115620001625762000162620000a6565b6200017a81620001738454620000ba565b84620000f4565b602080601f831160018114620001b0575f8415620001985750858301515b5f19600386901b1c1916600185901b1785556200013d565b5f85815260208120601f198616915b82811015620001e057888601518255948401946001909101908401620001bf565b5085821015620001fe57878501515f19600388901b60f8161c191681555b5050505050600190811b01905550565b608051611f7a6200022e5f395f81816105ec01526107ef0152611f7a5ff3fe60806040526004361061013f575f3560e01c80635c975abb116100b35780639dc29fac1161006d5780639dc29fac146103a4578063a3bf224b146103c3578063a457c2d7146103e2578063a9059cbb14610401578063dd62ed3e14610420578063f436f0931461043f575f80fd5b80635c975abb146102e657806370a08231146102fd57806377778db3146103315780637c27a3c61461035c5780638456cb591461037c57806395d89b4114610390575f80fd5b806323b872dd1161010457806323b872dd146102455780632f9d937f14610264578063313ce56714610283578063395093511461029e5780633f4ba83a146102bd57806340c10f19146102d3575f80fd5b806306fdde0314610174578063095ea7b31461019e5780630f1954fe146101cd57806316f0115b146101fa57806318160ddd14610231575f80fd5b366101705760405134907f347c40822e6eef789530725ec7aa62355b81752377bc28795820ab63d9bc2bf9905f90a2005b5f80fd5b34801561017f575f80fd5b5061018861045e565b6040516101959190611912565b60405180910390f35b3480156101a9575f80fd5b506101bd6101b836600461195b565b6104ed565b6040519015158152602001610195565b3480156101d8575f80fd5b506101ec6101e7366004611985565b610506565b604051908152602001610195565b348015610205575f80fd5b50600954610219906001600160a01b031681565b6040516001600160a01b039091168152602001610195565b34801561023c575f80fd5b506003546101ec565b348015610250575f80fd5b506101bd61025f3660046119a5565b61055a565b34801561026f575f80fd5b506101ec61027e366004611985565b61057d565b34801561028e575f80fd5b5060405160128152602001610195565b3480156102a9575f80fd5b506101bd6102b836600461195b565b6105a6565b3480156102c8575f80fd5b506102d16105c7565b005b6102d16102e136600461195b565b6105da565b3480156102f1575f80fd5b5060065460ff166101bd565b348015610308575f80fd5b506101ec6103173660046119e3565b6001600160a01b03165f9081526001602052604090205490565b34801561033c575f80fd5b506101ec61034b3660046119fe565b600c6020525f908152604090205481565b348015610367575f80fd5b506008546101bd90600160a01b900460ff1681565b348015610387575f80fd5b506102d1610767565b34801561039b575f80fd5b50610188610778565b3480156103af575f80fd5b506102d16103be36600461195b565b6107dd565b3480156103ce575f80fd5b506102196103dd3660046119fe565b610934565b3480156103ed575f80fd5b506101bd6103fc36600461195b565b61095c565b34801561040c575f80fd5b506101bd61041b36600461195b565b6109d6565b34801561042b575f80fd5b506101ec61043a366004611a15565b6109e3565b34801561044a575f80fd5b506102d1610459366004611a59565b610a0d565b600854606090600160a01b900460ff1661049e576040518060400160405280600e81526020016d08199bdc881c995dd85c991cc80f60921b8152506104c6565b6040518060400160405280600e81526020016d08199bdc881cdd185ada5b99c80f60921b8152505b600a6040516020016104d9929190611b70565b604051602081830303815290604052905090565b5f336104fa818585610ddc565b60019150505b92915050565b5f6402540be40061051660035490565b5f858152600c60205260409020546402540be400906105359086611bd1565b61053f9190611bd1565b6105499190611be8565b6105539190611be8565b9392505050565b5f33610567858285610eff565b610572858585610f9a565b506001949350505050565b5f828152600c60205260408120546402540be400908161059c60035490565b6105359086611bd1565b5f336104fa8185856105b883836109e3565b6105c29190611c07565b610ddc565b6105d05f611143565b6105d86111e9565b565b5f54610100900460ff168061061757507f00000000000000000000000000000000000000000000000000000000000000006001600160a01b031630145b15610635576040516321c4e35760e21b815260040160405180910390fd5b600854600160a01b900460ff1661066f5761066f7f8e7eec3a91568ea051efb6d35e7514ef01e4807481274e632bc3d6a704427c58611143565b5f5b600b54811015610758575f6106868284610506565b90505f6001600160a01b0316600b83815481106106a5576106a5611c1a565b5f918252602090912001546001600160a01b0316146106f8576106f3843083600b86815481106106d7576106d7611c1a565b5f918252602090912001546001600160a01b031692919061123b565b610721565b3481111561072157604051630336cc6d60e51b8152600481018290526024015b60405180910390fd5b5f828152600c60205260408120805483929061073e908490611c07565b90915550829150610750905081611c2e565b915050610671565b506107638282611295565b5050565b6107705f611143565b6105d8611354565b600854606090600160a01b900460ff166107ad5760405180604001604052806003815260200162333a3960e91b8152506107ca565b6040518060400160405280600381526020016266747360e81b8152505b600a6040516020016104d9929190611c46565b5f54610100900460ff168061081a57507f00000000000000000000000000000000000000000000000000000000000000006001600160a01b031630145b15610838576040516321c4e35760e21b815260040160405180910390fd5b600854600160a01b900460ff16610872576108727f8e7eec3a91568ea051efb6d35e7514ef01e4807481274e632bc3d6a704427c58611143565b5f5b600b54811015610929575f6108898284610506565b90505f6001600160a01b0316600b83815481106108a8576108a8611c1a565b5f918252602090912001546001600160a01b0316146108df576108da308583600b86815481106106d7576106d7611c1a565b6108f2565b6108f26001600160a01b03851682611391565b5f828152600c60205260408120805483929061090f908490611c6c565b90915550829150610921905081611c2e565b915050610874565b5061076382826114ab565b600b8181548110610943575f80fd5b5f918252602090912001546001600160a01b0316905081565b5f338161096982866109e3565b9050838110156109c95760405162461bcd60e51b815260206004820152602560248201527f45524332303a2064656372656173656420616c6c6f77616e63652062656c6f77604482015264207a65726f60d81b6064820152608401610718565b6105728286868403610ddc565b5f336104fa818585610f9a565b6001600160a01b039182165f90815260026020908152604080832093909416825291909152205490565b5f54610100900460ff1615808015610a2b57505f54600160ff909116105b80610a445750303b158015610a4457505f5460ff166001145b610aa75760405162461bcd60e51b815260206004820152602e60248201527f496e697469616c697a61626c653a20636f6e747261637420697320616c72656160448201526d191e481a5b9a5d1a585b1a5e995960921b6064820152608401610718565b5f805460ff191660011790558015610ac8575f805461ff0019166101001790555b600980546001600160a01b031916339081179091556040805163c45a015560e01b81529051610b6291839163c45a0155916004808201926020929091908290030181865afa158015610b1c573d5f803e3d5ffd5b505050506040513d601f19601f82011682018060405250810190610b409190611c7f565b600880546001600160a01b0319166001600160a01b0392909216919091179055565b6008805460ff60a01b1916600160a01b87151502179055610b8661dead6001611295565b5f5b610b928480611c9a565b90508160ff161015610d8f5760ff81165f908152600c602052604090206001905585610bcc57610bc7610140860135826115dd565b610bdb565b610bdb610120860135826115dd565b15610d7d57600b610bec8580611c9a565b8360ff16818110610bff57610bff611c1a565b9050602002016020810190610c1491906119e3565b81546001810183555f928352602083200180546001600160a01b0319166001600160a01b0392909216919091179055610c4d8580611c9a565b8360ff16818110610c6057610c60611c1a565b9050602002016020810190610c7591906119e3565b6001600160a01b031614610d4c57600a610c8f8580611c9a565b8360ff16818110610ca257610ca2611c1a565b9050602002016020810190610cb791906119e3565b6001600160a01b03166395d89b416040518163ffffffff1660e01b81526004015f60405180830381865afa158015610cf1573d5f803e3d5ffd5b505050506040513d5f823e601f3d908101601f19168201604052610d189190810190611cfb565b604051602001610d29929190611d98565b604051602081830303815290604052600a9081610d469190611e15565b50610d7d565b600a604051602001610d5e9190611ed1565b604051602081830303815290604052600a9081610d7b9190611e15565b505b80610d8781611ef0565b915050610b88565b50508015610dd6575f805461ff0019169055604051600181527f7f26b83ff96e1f2b6a682f133852f6798a09c465da95921460cefb38474024989060200160405180910390a15b50505050565b6001600160a01b038316610e3e5760405162461bcd60e51b8152602060048201526024808201527f45524332303a20617070726f76652066726f6d20746865207a65726f206164646044820152637265737360e01b6064820152608401610718565b6001600160a01b038216610e9f5760405162461bcd60e51b815260206004820152602260248201527f45524332303a20617070726f766520746f20746865207a65726f206164647265604482015261737360f01b6064820152608401610718565b6001600160a01b038381165f8181526002602090815260408083209487168084529482529182902085905590518481527f8c5be1e5ebec7d5bd14f71427d1e84f3dd0314c0f7b2291e5b200ac8c7c3b925910160405180910390a3505050565b5f610f0a84846109e3565b6009549091506001600160a01b0390811690841603610f2757505f195b5f198114610dd65781811015610f8d5760405162461bcd60e51b815260206004820152602560248201527f466f7274756e6e61546f6b656e3a20696e73756666696369656e7420616c6c6f60448201526477616e636560d81b6064820152608401610718565b610dd68484848403610ddc565b6001600160a01b038316610ffe5760405162461bcd60e51b815260206004820152602560248201527f45524332303a207472616e736665722066726f6d20746865207a65726f206164604482015264647265737360d81b6064820152608401610718565b6001600160a01b0382166110605760405162461bcd60e51b815260206004820152602360248201527f45524332303a207472616e7366657220746f20746865207a65726f206164647260448201526265737360e81b6064820152608401610718565b6001600160a01b0383165f90815260016020526040902054818110156110d75760405162461bcd60e51b815260206004820152602660248201527f45524332303a207472616e7366657220616d6f756e7420657863656564732062604482015265616c616e636560d01b6064820152608401610718565b6001600160a01b038085165f8181526001602052604080822086860390559286168082529083902080548601905591517fddf252ad1be2c89b69c2b068fc378daa952ba7f163c4a11628f55a4df523b3ef906111369086815260200190565b60405180910390a3610dd6565b5f33600854604051632474521560e21b8152600481018590526001600160a01b0380841660248301529293509116906391d1485490604401602060405180830381865afa158015611196573d5f803e3d5ffd5b505050506040513d601f19601f820116820180604052508101906111ba9190611f0e565b6107635760405163a78e4aa560e01b8152600481018390526001600160a01b0382166024820152604401610718565b6111f1611604565b6006805460ff191690557f5db9ee0a495bf2e6ff9c91a7834c1ba4fdd244a5e8aa4e537bd38aeae4b073aa335b6040516001600160a01b03909116815260200160405180910390a1565b604080516001600160a01b0385811660248301528416604482015260648082018490528251808303909101815260849091019091526020810180516001600160e01b03166323b872dd60e01b179052610dd690859061164d565b6001600160a01b0382166112eb5760405162461bcd60e51b815260206004820152601f60248201527f45524332303a206d696e7420746f20746865207a65726f2061646472657373006044820152606401610718565b8060035f8282546112fc9190611c07565b90915550506001600160a01b0382165f818152600160209081526040808320805486019055518481527fddf252ad1be2c89b69c2b068fc378daa952ba7f163c4a11628f55a4df523b3ef910160405180910390a35050565b61135c611720565b6006805460ff191660011790557f62e78cea01bee320cd4e420270b5ea74000d11b0c9f74754ebdbfc544b05a25861121e3390565b804710156113e15760405162461bcd60e51b815260206004820152601d60248201527f416464726573733a20696e73756666696369656e742062616c616e63650000006044820152606401610718565b5f826001600160a01b0316826040515f6040518083038185875af1925050503d805f811461142a576040519150601f19603f3d011682016040523d82523d5f602084013e61142f565b606091505b50509050806114a65760405162461bcd60e51b815260206004820152603a60248201527f416464726573733a20756e61626c6520746f2073656e642076616c75652c207260448201527f6563697069656e74206d617920686176652072657665727465640000000000006064820152608401610718565b505050565b6001600160a01b03821661150b5760405162461bcd60e51b815260206004820152602160248201527f45524332303a206275726e2066726f6d20746865207a65726f206164647265736044820152607360f81b6064820152608401610718565b6001600160a01b0382165f908152600160205260409020548181101561157e5760405162461bcd60e51b815260206004820152602260248201527f45524332303a206275726e20616d6f756e7420657863656564732062616c616e604482015261636560f01b6064820152608401610718565b6001600160a01b0383165f8181526001602090815260408083208686039055600380548790039055518581529192917fddf252ad1be2c89b69c2b068fc378daa952ba7f163c4a11628f55a4df523b3ef910160405180910390a3505050565b5f8060ff8316156115f457600160ff84161b6115f7565b60015b8481161491505092915050565b60065460ff166105d85760405162461bcd60e51b815260206004820152601460248201527314185d5cd8589b194e881b9bdd081c185d5cd95960621b6044820152606401610718565b5f6116a1826040518060400160405280602081526020017f5361666545524332303a206c6f772d6c6576656c2063616c6c206661696c6564815250856001600160a01b03166117669092919063ffffffff16565b905080515f14806116c15750808060200190518101906116c19190611f0e565b6114a65760405162461bcd60e51b815260206004820152602a60248201527f5361666545524332303a204552433230206f7065726174696f6e20646964206e6044820152691bdd081cdd58d8d9595960b21b6064820152608401610718565b60065460ff16156105d85760405162461bcd60e51b815260206004820152601060248201526f14185d5cd8589b194e881c185d5cd95960821b6044820152606401610718565b606061177484845f8561177c565b949350505050565b6060824710156117dd5760405162461bcd60e51b815260206004820152602660248201527f416464726573733a20696e73756666696369656e742062616c616e636520666f6044820152651c8818d85b1b60d21b6064820152608401610718565b5f80866001600160a01b031685876040516117f89190611f29565b5f6040518083038185875af1925050503d805f8114611832576040519150601f19603f3d011682016040523d82523d5f602084013e611837565b606091505b509150915061184887838387611853565b979650505050505050565b606083156118c15782515f036118ba576001600160a01b0385163b6118ba5760405162461bcd60e51b815260206004820152601d60248201527f416464726573733a2063616c6c20746f206e6f6e2d636f6e74726163740000006044820152606401610718565b5081611774565b61177483838151156118d65781518083602001fd5b8060405162461bcd60e51b81526004016107189190611912565b5f5b8381101561190a5781810151838201526020016118f2565b50505f910152565b602081525f82518060208401526119308160408501602087016118f0565b601f01601f19169190910160400192915050565b6001600160a01b0381168114611958575f80fd5b50565b5f806040838503121561196c575f80fd5b823561197781611944565b946020939093013593505050565b5f8060408385031215611996575f80fd5b50508035926020909101359150565b5f805f606084860312156119b7575f80fd5b83356119c281611944565b925060208401356119d281611944565b929592945050506040919091013590565b5f602082840312156119f3575f80fd5b813561055381611944565b5f60208284031215611a0e575f80fd5b5035919050565b5f8060408385031215611a26575f80fd5b8235611a3181611944565b91506020830135611a4181611944565b809150509250929050565b8015158114611958575f80fd5b5f805f8385036101c0811215611a6d575f80fd5b8435611a7881611a4c565b9350610180601f1982011215611a8c575f80fd5b506020840191506101a084013567ffffffffffffffff811115611aad575f80fd5b840160608187031215611abe575f80fd5b809150509250925092565b600181811c90821680611add57607f821691505b602082108103611afb57634e487b7160e01b5f52602260045260245ffd5b50919050565b5f8154611b0d81611ac9565b60018281168015611b255760018114611b3a57611b66565b60ff1984168752821515830287019450611b66565b855f526020805f205f5b85811015611b5d5781548a820152908401908201611b44565b50505082870194505b5050505092915050565b702337b93a3ab73730902628103a37b5b2b760791b81525f8351611b9b8160118501602088016118f0565b611baa60118285010185611b01565b601f60f91b815260010195945050505050565b634e487b7160e01b5f52601160045260245ffd5b808202811582820484141761050057610500611bbd565b5f82611c0257634e487b7160e01b5f52601260045260245ffd5b500490565b8082018082111561050057610500611bbd565b634e487b7160e01b5f52603260045260245ffd5b5f60018201611c3f57611c3f611bbd565b5060010190565b5f8351611c578184602088016118f0565b611c6381840185611b01565b95945050505050565b8181038181111561050057610500611bbd565b5f60208284031215611c8f575f80fd5b815161055381611944565b5f808335601e19843603018112611caf575f80fd5b83018035915067ffffffffffffffff821115611cc9575f80fd5b6020019150600581901b3603821315611ce0575f80fd5b9250929050565b634e487b7160e01b5f52604160045260245ffd5b5f60208284031215611d0b575f80fd5b815167ffffffffffffffff80821115611d22575f80fd5b818401915084601f830112611d35575f80fd5b815181811115611d4757611d47611ce7565b604051601f8201601f19908116603f01168101908382118183101715611d6f57611d6f611ce7565b81604052828152876020848701011115611d87575f80fd5b6118488360208301602088016118f0565b5f611da38285611b01565b8351611db38183602088016118f0565b600f60fb1b9101908152600101949350505050565b601f8211156114a6575f81815260208120601f850160051c81016020861015611dee5750805b601f850160051c820191505b81811015611e0d57828155600101611dfa565b505050505050565b815167ffffffffffffffff811115611e2f57611e2f611ce7565b611e4381611e3d8454611ac9565b84611dc8565b602080601f831160018114611e76575f8415611e5f5750858301515b5f19600386901b1c1916600185901b178555611e0d565b5f85815260208120601f198616915b82811015611ea457888601518255948401946001909101908401611e85565b5085821015611ec157878501515f19600388901b60f8161c191681555b5050505050600190811b01905550565b5f611edc8284611b01565b6308aa890f60e31b81526004019392505050565b5f60ff821660ff8103611f0557611f05611bbd565b60010192915050565b5f60208284031215611f1e575f80fd5b815161055381611a4c565b5f8251611f3a8184602087016118f0565b919091019291505056fea26469706673582212202f8ac3348f22400fefcb0c3403e6c6ed0a6a5e7b6ead303de6ec3abf9b6dd52064736f6c63430008140033",
  "libraries": {
    "FortunnaLib": "0x2475181E30FcFFA7A636eDc469BE56d9080F4A8c",
    "FortunnaErrorsLib": "0xC96e03cdB3CF495f1Bc063A1D161507Db5791542",
    "FortunnaBitMaskLib": "0x31F92547ABA932e60bC424116f2BB33a8e3EE429"
  },
  "devdoc": {
    "errors": {
      "NotAuthorized(bytes32,address)": [
        {
          "details": "An error to be reverted if an `entity` does not possess the `role`.",
          "params": {
            "entity": "An entity violating authorization.",
            "role": "A role an entity doesn't posess."
          }
        }
      ],
      "NotEnoughtPayment(uint256)": [
        {
          "details": "An error to be reverted if the pool deployer didn't payed enough for it.",
          "params": {
            "amount": "An actual amount the deployer sent."
          }
        }
      ],
      "NotInitialized()": [
        {
          "details": "An error to be reverted if the contract was being called before the initialization."
        }
      ]
    },
    "events": {
      "Approval(address,address,uint256)": {
        "details": "Emitted when the allowance of a `spender` for an `owner` is set by a call to {approve}. `value` is the new allowance."
      },
      "Initialized(uint8)": {
        "details": "Triggered when the contract has been initialized or reinitialized."
      },
      "NativeTokenReceived(uint256)": {
        "params": {
          "amount": "An exact amount of the tokens arrived."
        }
      },
      "Paused(address)": {
        "details": "Emitted when the pause is triggered by `account`."
      },
      "Transfer(address,address,uint256)": {
        "details": "Emitted when `value` tokens are moved from one account (`from`) to another (`to`). Note that `value` may be zero."
      },
      "Unpaused(address)": {
        "details": "Emitted when the pause is lifted by `account`."
      }
    },
    "kind": "dev",
    "methods": {
      "allowance(address,address)": {
        "details": "See {IERC20-allowance}."
      },
      "approve(address,uint256)": {
        "details": "See {IERC20-approve}. NOTE: If `amount` is the maximum `uint256`, the allowance is not updated on `transferFrom`. This is semantically equivalent to an infinite approval. Requirements: - `spender` cannot be the zero address."
      },
      "balanceOf(address)": {
        "details": "See {IERC20-balanceOf}."
      },
      "decimals()": {
        "details": "Returns the number of decimals used to get its user representation. For example, if `decimals` equals `2`, a balance of `505` tokens should be displayed to a user as `5.05` (`505 / 10 ** 2`). Tokens usually opt for a value of 18, imitating the relationship between Ether and Wei. This is the default value returned by this function, unless it's overridden. NOTE: This information is only used for _display_ purposes: it in no way affects any of the arithmetic of the contract, including {IERC20-balanceOf} and {IERC20-transfer}."
      },
      "decreaseAllowance(address,uint256)": {
        "details": "Atomically decreases the allowance granted to `spender` by the caller. This is an alternative to {approve} that can be used as a mitigation for problems described in {IERC20-approve}. Emits an {Approval} event indicating the updated allowance. Requirements: - `spender` cannot be the zero address. - `spender` must have allowance for the caller of at least `subtractedValue`."
      },
      "increaseAllowance(address,uint256)": {
        "details": "Atomically increases the allowance granted to `spender` by the caller. This is an alternative to {approve} that can be used as a mitigation for problems described in {IERC20-approve}. Emits an {Approval} event indicating the updated allowance. Requirements: - `spender` cannot be the zero address."
      },
      "name()": {
        "details": "Returns the name of the token."
      },
      "pause()": {
        "details": "Could be called only by the admin."
      },
      "paused()": {
        "details": "Returns true if the contract is paused, and false otherwise."
      },
      "symbol()": {
        "details": "Returns the symbol of the token, usually a shorter version of the name."
      },
      "totalSupply()": {
        "details": "See {IERC20-totalSupply}."
      },
      "transfer(address,uint256)": {
        "details": "See {IERC20-transfer}. Requirements: - `to` cannot be the zero address. - the caller must have a balance of at least `amount`."
      },
      "transferFrom(address,address,uint256)": {
        "details": "See {IERC20-transferFrom}. Emits an {Approval} event indicating the updated allowance. This is not required by the EIP. See the note at the beginning of {ERC20}. NOTE: Does not update the allowance if the current allowance is the maximum `uint256`. Requirements: - `from` and `to` cannot be the zero address. - `from` must have a balance of at least `amount`. - the caller must have allowance for ``from``'s tokens of at least `amount`."
      },
      "unpause()": {
        "details": "Could be called only by the admin."
      }
    },
    "version": 1
  },
  "userdoc": {
    "events": {
      "NativeTokenReceived(uint256)": {
        "notice": "An event to be fired when native tokens arrive to the fabric."
      }
    },
    "kind": "user",
    "methods": {
      "pause()": {
        "notice": "Triggers paused state."
      },
      "unpause()": {
        "notice": "Returns to normal state."
      }
    },
    "version": 1
  },
  "storageLayout": {
    "storage": [
      {
        "astId": 588,
        "contract": "contracts/FortunnaToken.sol:FortunnaToken",
        "label": "_initialized",
        "offset": 0,
        "slot": "0",
        "type": "t_uint8"
      },
      {
        "astId": 591,
        "contract": "contracts/FortunnaToken.sol:FortunnaToken",
        "label": "_initializing",
        "offset": 1,
        "slot": "0",
        "type": "t_bool"
      },
      {
        "astId": 939,
        "contract": "contracts/FortunnaToken.sol:FortunnaToken",
        "label": "_balances",
        "offset": 0,
        "slot": "1",
        "type": "t_mapping(t_address,t_uint256)"
      },
      {
        "astId": 945,
        "contract": "contracts/FortunnaToken.sol:FortunnaToken",
        "label": "_allowances",
        "offset": 0,
        "slot": "2",
        "type": "t_mapping(t_address,t_mapping(t_address,t_uint256))"
      },
      {
        "astId": 947,
        "contract": "contracts/FortunnaToken.sol:FortunnaToken",
        "label": "_totalSupply",
        "offset": 0,
        "slot": "3",
        "type": "t_uint256"
      },
      {
        "astId": 949,
        "contract": "contracts/FortunnaToken.sol:FortunnaToken",
        "label": "_name",
        "offset": 0,
        "slot": "4",
        "type": "t_string_storage"
      },
      {
        "astId": 951,
        "contract": "contracts/FortunnaToken.sol:FortunnaToken",
        "label": "_symbol",
        "offset": 0,
        "slot": "5",
        "type": "t_string_storage"
      },
      {
        "astId": 768,
        "contract": "contracts/FortunnaToken.sol:FortunnaToken",
        "label": "_paused",
        "offset": 0,
        "slot": "6",
        "type": "t_bool"
      },
      {
        "astId": 869,
        "contract": "contracts/FortunnaToken.sol:FortunnaToken",
        "label": "_status",
        "offset": 0,
        "slot": "7",
        "type": "t_uint256"
      },
      {
        "astId": 4447,
        "contract": "contracts/FortunnaToken.sol:FortunnaToken",
        "label": "_factory",
        "offset": 0,
        "slot": "8",
        "type": "t_address"
      },
      {
        "astId": 6452,
        "contract": "contracts/FortunnaToken.sol:FortunnaToken",
        "label": "isStakingOrRewardToken",
        "offset": 20,
        "slot": "8",
        "type": "t_bool"
      },
      {
        "astId": 6454,
        "contract": "contracts/FortunnaToken.sol:FortunnaToken",
        "label": "pool",
        "offset": 0,
        "slot": "9",
        "type": "t_address"
      },
      {
        "astId": 6460,
        "contract": "contracts/FortunnaToken.sol:FortunnaToken",
        "label": "underlyingTokensSymbols",
        "offset": 0,
        "slot": "10",
        "type": "t_bytes_storage"
      },
      {
        "astId": 6463,
        "contract": "contracts/FortunnaToken.sol:FortunnaToken",
        "label": "underlyingTokens",
        "offset": 0,
        "slot": "11",
        "type": "t_array(t_address)dyn_storage"
      },
      {
        "astId": 6467,
        "contract": "contracts/FortunnaToken.sol:FortunnaToken",
        "label": "getReserve",
        "offset": 0,
        "slot": "12",
        "type": "t_mapping(t_uint256,t_uint256)"
      }
    ],
    "types": {
      "t_address": {
        "encoding": "inplace",
        "label": "address",
        "numberOfBytes": "20"
      },
      "t_array(t_address)dyn_storage": {
        "base": "t_address",
        "encoding": "dynamic_array",
        "label": "address[]",
        "numberOfBytes": "32"
      },
      "t_bool": {
        "encoding": "inplace",
        "label": "bool",
        "numberOfBytes": "1"
      },
      "t_bytes_storage": {
        "encoding": "bytes",
        "label": "bytes",
        "numberOfBytes": "32"
      },
      "t_mapping(t_address,t_mapping(t_address,t_uint256))": {
        "encoding": "mapping",
        "key": "t_address",
        "label": "mapping(address => mapping(address => uint256))",
        "numberOfBytes": "32",
        "value": "t_mapping(t_address,t_uint256)"
      },
      "t_mapping(t_address,t_uint256)": {
        "encoding": "mapping",
        "key": "t_address",
        "label": "mapping(address => uint256)",
        "numberOfBytes": "32",
        "value": "t_uint256"
      },
      "t_mapping(t_uint256,t_uint256)": {
        "encoding": "mapping",
        "key": "t_uint256",
        "label": "mapping(uint256 => uint256)",
        "numberOfBytes": "32",
        "value": "t_uint256"
      },
      "t_string_storage": {
        "encoding": "bytes",
        "label": "string",
        "numberOfBytes": "32"
      },
      "t_uint256": {
        "encoding": "inplace",
        "label": "uint256",
        "numberOfBytes": "32"
      },
      "t_uint8": {
        "encoding": "inplace",
        "label": "uint8",
        "numberOfBytes": "1"
      }
    }
  }
}