{
  "address": "0x6ae66D076e7E37476Dfb5eC3B30f98E8f604E84d",
  "abi": [
    {
      "anonymous": false,
      "inputs": [
        {
          "indexed": true,
          "internalType": "address",
          "name": "user",
          "type": "address"
        },
        {
          "indexed": false,
          "internalType": "uint256",
          "name": "reward",
          "type": "uint256"
        }
      ],
      "name": "EmergencyWithdraw",
      "type": "event"
    },
    {
      "anonymous": false,
      "inputs": [
        {
          "indexed": false,
          "internalType": "uint256",
          "name": "partOfTotalRewards",
          "type": "uint256"
        }
      ],
      "name": "PartDistributed",
      "type": "event"
    },
    {
      "anonymous": false,
      "inputs": [
        {
          "indexed": false,
          "internalType": "address",
          "name": "account",
          "type": "address"
        }
      ],
      "name": "Paused",
      "type": "event"
    },
    {
      "anonymous": false,
      "inputs": [
        {
          "indexed": false,
          "internalType": "uint256",
          "name": "reward",
          "type": "uint256"
        }
      ],
      "name": "RewardAdded",
      "type": "event"
    },
    {
      "anonymous": false,
      "inputs": [
        {
          "indexed": true,
          "internalType": "address",
          "name": "user",
          "type": "address"
        },
        {
          "indexed": false,
          "internalType": "uint256",
          "name": "reward",
          "type": "uint256"
        }
      ],
      "name": "RewardPaid",
      "type": "event"
    },
    {
      "anonymous": false,
      "inputs": [
        {
          "indexed": true,
          "internalType": "address",
          "name": "user",
          "type": "address"
        },
        {
          "indexed": false,
          "internalType": "uint256",
          "name": "amount",
          "type": "uint256"
        }
      ],
      "name": "Staked",
      "type": "event"
    },
    {
      "anonymous": false,
      "inputs": [
        {
          "indexed": false,
          "internalType": "address",
          "name": "account",
          "type": "address"
        }
      ],
      "name": "Unpaused",
      "type": "event"
    },
    {
      "anonymous": false,
      "inputs": [
        {
          "indexed": true,
          "internalType": "address",
          "name": "user",
          "type": "address"
        },
        {
          "indexed": false,
          "internalType": "uint256",
          "name": "amount",
          "type": "uint256"
        }
      ],
      "name": "Withdrawn",
      "type": "event"
    },
    {
      "inputs": [],
      "name": "ASSETS_COUNT",
      "outputs": [
        {
          "internalType": "uint8",
          "name": "",
          "type": "uint8"
        }
      ],
      "stateMutability": "view",
      "type": "function"
    },
    {
      "inputs": [],
      "name": "DEFAULT_ADMIN_ROLE",
      "outputs": [
        {
          "internalType": "bytes32",
          "name": "",
          "type": "bytes32"
        }
      ],
      "stateMutability": "view",
      "type": "function"
    },
    {
      "inputs": [],
      "name": "LIQUIDITY_ADDITION_DEADLINE_DURATION",
      "outputs": [
        {
          "internalType": "uint32",
          "name": "",
          "type": "uint32"
        }
      ],
      "stateMutability": "view",
      "type": "function"
    },
    {
      "inputs": [],
      "name": "POOL_FEE",
      "outputs": [
        {
          "internalType": "uint24",
          "name": "",
          "type": "uint24"
        }
      ],
      "stateMutability": "view",
      "type": "function"
    },
    {
      "inputs": [],
      "name": "REWARDS_DURATION",
      "outputs": [
        {
          "internalType": "uint256",
          "name": "",
          "type": "uint256"
        }
      ],
      "stateMutability": "view",
      "type": "function"
    },
    {
      "inputs": [
        {
          "internalType": "address",
          "name": "user",
          "type": "address"
        },
        {
          "internalType": "uint8",
          "name": "index",
          "type": "uint8"
        }
      ],
      "name": "earned",
      "outputs": [
        {
          "internalType": "uint256",
          "name": "",
          "type": "uint256"
        }
      ],
      "stateMutability": "view",
      "type": "function"
    },
    {
      "inputs": [],
      "name": "exit",
      "outputs": [],
      "stateMutability": "nonpayable",
      "type": "function"
    },
    {
      "inputs": [],
      "name": "factory",
      "outputs": [
        {
          "internalType": "address",
          "name": "",
          "type": "address"
        }
      ],
      "stateMutability": "view",
      "type": "function"
    },
    {
      "inputs": [],
      "name": "getReward",
      "outputs": [],
      "stateMutability": "nonpayable",
      "type": "function"
    },
    {
      "inputs": [
        {
          "internalType": "address",
          "name": "",
          "type": "address"
        },
        {
          "components": [
            {
              "internalType": "uint256",
              "name": "protoPoolIdx",
              "type": "uint256"
            },
            {
              "internalType": "uint256",
              "name": "startTimestamp",
              "type": "uint256"
            },
            {
              "internalType": "uint256",
              "name": "endTimestamp",
              "type": "uint256"
            },
            {
              "internalType": "uint256",
              "name": "minStakeAmount",
              "type": "uint256"
            },
            {
              "internalType": "uint256",
              "name": "maxStakeAmount",
              "type": "uint256"
            },
            {
              "internalType": "uint256",
              "name": "minLockUpRewardsPeriod",
              "type": "uint256"
            },
            {
              "internalType": "uint256",
              "name": "earlyWithdrawalFeeBasePoints",
              "type": "uint256"
            },
            {
              "internalType": "uint256",
              "name": "depositWithdrawFeeBasePoints",
              "type": "uint256"
            },
            {
              "internalType": "uint256",
              "name": "totalRewardBasePointsPerDistribution",
              "type": "uint256"
            },
            {
              "internalType": "bytes32",
              "name": "stakingTokensMask",
              "type": "bytes32"
            },
            {
              "internalType": "bytes32",
              "name": "rewardTokensMask",
              "type": "bytes32"
            },
            {
              "components": [
                {
                  "internalType": "address",
                  "name": "nonfungiblePositionManager",
                  "type": "address"
                }
              ],
              "internalType": "struct FortunnaLib.CustomPoolParameters",
              "name": "custom",
              "type": "tuple"
            }
          ],
          "internalType": "struct FortunnaLib.PoolParameters",
          "name": "poolParameters",
          "type": "tuple"
        },
        {
          "components": [
            {
              "internalType": "address[]",
              "name": "utilizingTokens",
              "type": "address[]"
            },
            {
              "internalType": "uint256[2][]",
              "name": "initialRewardAmounts",
              "type": "uint256[2][]"
            },
            {
              "internalType": "uint256[2][]",
              "name": "initialDepositAmounts",
              "type": "uint256[2][]"
            }
          ],
          "internalType": "struct FortunnaLib.PoolParametersArrays",
          "name": "poolParametersArrays",
          "type": "tuple"
        }
      ],
      "name": "initialize",
      "outputs": [],
      "stateMutability": "nonpayable",
      "type": "function"
    },
    {
      "inputs": [],
      "name": "lastTimeRewardApplicable",
      "outputs": [
        {
          "internalType": "uint256",
          "name": "",
          "type": "uint256"
        }
      ],
      "stateMutability": "view",
      "type": "function"
    },
    {
      "inputs": [],
      "name": "lastUpdateTime",
      "outputs": [
        {
          "internalType": "uint256",
          "name": "",
          "type": "uint256"
        }
      ],
      "stateMutability": "view",
      "type": "function"
    },
    {
      "inputs": [],
      "name": "nonfungiblePositionManager",
      "outputs": [
        {
          "internalType": "contract INonfungiblePositionManager",
          "name": "",
          "type": "address"
        }
      ],
      "stateMutability": "view",
      "type": "function"
    },
    {
      "inputs": [],
      "name": "notifyRewardAmount",
      "outputs": [],
      "stateMutability": "nonpayable",
      "type": "function"
    },
    {
      "inputs": [
        {
          "internalType": "address",
          "name": "operator",
          "type": "address"
        },
        {
          "internalType": "address",
          "name": "",
          "type": "address"
        },
        {
          "internalType": "uint256",
          "name": "",
          "type": "uint256"
        },
        {
          "internalType": "bytes",
          "name": "",
          "type": "bytes"
        }
      ],
      "name": "onERC721Received",
      "outputs": [
        {
          "internalType": "bytes4",
          "name": "",
          "type": "bytes4"
        }
      ],
      "stateMutability": "view",
      "type": "function"
    },
    {
      "inputs": [],
      "name": "paused",
      "outputs": [
        {
          "internalType": "bool",
          "name": "",
          "type": "bool"
        }
      ],
      "stateMutability": "view",
      "type": "function"
    },
    {
      "inputs": [],
      "name": "periodFinish",
      "outputs": [
        {
          "internalType": "uint256",
          "name": "",
          "type": "uint256"
        }
      ],
      "stateMutability": "view",
      "type": "function"
    },
    {
      "inputs": [],
      "name": "positionId",
      "outputs": [
        {
          "internalType": "uint256",
          "name": "",
          "type": "uint256"
        }
      ],
      "stateMutability": "view",
      "type": "function"
    },
    {
      "inputs": [
        {
          "internalType": "uint8",
          "name": "index",
          "type": "uint8"
        }
      ],
      "name": "rewardPerToken",
      "outputs": [
        {
          "internalType": "uint256",
          "name": "",
          "type": "uint256"
        }
      ],
      "stateMutability": "view",
      "type": "function"
    },
    {
      "inputs": [
        {
          "internalType": "uint256",
          "name": "",
          "type": "uint256"
        }
      ],
      "name": "rewardRates",
      "outputs": [
        {
          "internalType": "uint256",
          "name": "",
          "type": "uint256"
        }
      ],
      "stateMutability": "view",
      "type": "function"
    },
    {
      "inputs": [
        {
          "internalType": "uint256",
          "name": "",
          "type": "uint256"
        }
      ],
      "name": "rewardsPerTokenStored",
      "outputs": [
        {
          "internalType": "uint256",
          "name": "",
          "type": "uint256"
        }
      ],
      "stateMutability": "view",
      "type": "function"
    },
    {
      "inputs": [
        {
          "internalType": "uint256",
          "name": "amount0",
          "type": "uint256"
        },
        {
          "internalType": "uint256",
          "name": "amount1",
          "type": "uint256"
        }
      ],
      "name": "stake",
      "outputs": [],
      "stateMutability": "nonpayable",
      "type": "function"
    },
    {
      "inputs": [
        {
          "internalType": "uint256",
          "name": "",
          "type": "uint256"
        }
      ],
      "name": "tokens",
      "outputs": [
        {
          "internalType": "address",
          "name": "",
          "type": "address"
        }
      ],
      "stateMutability": "view",
      "type": "function"
    },
    {
      "inputs": [],
      "name": "totalLiquidity",
      "outputs": [
        {
          "internalType": "uint128",
          "name": "",
          "type": "uint128"
        }
      ],
      "stateMutability": "view",
      "type": "function"
    },
    {
      "inputs": [
        {
          "internalType": "uint128",
          "name": "amount",
          "type": "uint128"
        }
      ],
      "name": "withdraw",
      "outputs": [],
      "stateMutability": "nonpayable",
      "type": "function"
    }
  ],
  "transactionHash": "0x9281bcd58bac7b19997c33bd2b237b30dca257900419c928942504c0f094505b",
  "args": [],
  "numDeployments": 1,
  "solcInputHash": "75c2dd01e0e1f115f4e967603fdaf35a",
  "bytecode": "0x60a06040523060601b60805234801561001757600080fd5b506000805462ff0000191690556001805560805160601c6129d56100686000398061032552806105e252806109dd5280610e985280610fa75280611085528061144752806114f552506129d56000f3fe608060405234801561001057600080fd5b50600436106101735760003560e01c80637b0472f0116100de578063c45a015511610097578063e9fad8ee11610071578063e9fad8ee146102eb578063ebe2b12b146102f3578063f2caeb1e146102fb578063f45424941461030e57610173565b8063c45a0155146102c6578063c8f33c91146102ce578063dd1b9c4a146102d657610173565b80637b0472f01461027157806380faa57d14610284578063a217fddf1461028c578063acc90d1f14610294578063ad83affe146102a9578063b44a2722146102be57610173565b80634f64b2be116101305780634f64b2be146101ee5780635c975abb1461020e5780635d11dff31461022357806364373aa8146102435780636e6331d31461025657806371640de31461026957610173565b806302387a7b146101785780630c51dde41461018d578063150b7a021461019557806315770f92146101be5780633d18b912146101d35780634430135a146101db575b600080fd5b61018b61018636600461208e565b610316565b005b61018b6105d3565b6101a86101a3366004611f2e565b61097d565b6040516101b59190612207565b60405180910390f35b6101c66109bf565b6040516101b591906125c1565b61018b6109ce565b61018b6101e9366004611fc8565b610c8c565b6102016101fc3660046120e0565b610e57565b6040516101b591906121c8565b610216610e77565b6040516101b591906121dc565b61023661023136600461203a565b610e86565b6040516101b591906121e7565b6102366102513660046120e0565b610f7e565b610236610264366004612191565b610f95565b610236611070565b61018b61027f36600461214d565b611076565b610236611435565b6102366114a7565b61029c6114ac565b6040516101b591906125f6565b6102b16114b1565b6040516101b591906125e5565b6102016114b7565b6102016114c6565b6102366114da565b6102de6114e0565b6040516101b591906125d5565b61018b6114e6565b6102366115ce565b6102366103093660046120e0565b6115d4565b6102366115e4565b600d5460ff16801561035157507f00000000000000000000000000000000000000000000000000000000000000006001600160a01b03163014155b6103765760405162461bcd60e51b815260040161036d9061221c565b60405180910390fd5b61037e610e77565b156103c3576040805162461bcd60e51b815260206004820152601060248201526f14185d5cd8589b194e881c185d5cd95960821b604482015290519081900360640190fd5b6002600154141561041b576040805162461bcd60e51b815260206004820152601f60248201527f5265656e7472616e637947756172643a207265656e7472616e742063616c6c00604482015290519081900360640190fd5b60026001556104286115ea565b610430611435565b60045560005b600260ff821610156104e65761044b81610f95565b60098260ff166002811061045b57fe5b01556001600160a01b038216156104de576104768282610e86565b6001600160a01b0383166000908152601d6020526040902060029081019060ff84169081106104a157fe5b0155600960ff8216600281106104b357fe5b01546001600160a01b0383166000908152601d6020526040902060ff8316600281106104db57fe5b01555b600101610436565b5060006104f16115ea565b90506000836001600160801b03161161051c5760405162461bcd60e51b815260040161036d90612268565b60008061052983866115ee565b6001600160a01b0385166000818152601e602052604090819020805485900381556001810180548590039055600290810180546001600160801b03198082166001600160801b039283168e900383161790925582549182169181168c90031617905551929450909250907f7084f5476618d8e60b11ef0d7d3f06914655adb8793e28ff7f018d4c76d505d5906105c09088906125c1565b60405180910390a2505060018055505050565b600d5460ff16801561060e57507f00000000000000000000000000000000000000000000000000000000000000006001600160a01b03163014155b61062a5760405162461bcd60e51b815260040161036d9061221c565b6000610634611435565b60045560005b600260ff821610156106ea5761064f81610f95565b60098260ff166002811061065f57fe5b01556001600160a01b038216156106e25761067a8282610e86565b6001600160a01b0383166000908152601d6020526040902060029081019060ff84169081106106a557fe5b0155600960ff8216600281106106b757fe5b01546001600160a01b0383166000908152601d6020526040902060ff8316600281106106df57fe5b01555b60010161063a565b50600d5460009061010090046001600160a01b03166391d148548261070d6115ea565b6040518363ffffffff1660e01b815260040161072a9291906121f0565b60206040518083038186803b15801561074257600080fd5b505afa158015610756573d6000803e3d6000fd5b505050506040513d601f19601f8201168201806040525081019061077a919061206e565b6107965760405162461bcd60e51b815260040161036d906123ff565b61079e611edc565b6107a661172a565b6020830152815260005b600260ff821610156109775760055442106107fb5761a8c0828260ff16600281106107d757fe5b6020020151816107e357fe5b0460078260ff16600281106107f457fe5b015561084f565b6005544290036000600760ff84166002811061081357fe5b01548202905061a8c081858560ff166002811061082c57fe5b6020020151018161083957fe5b0460078460ff166002811061084a57fe5b015550505b6000600b8260ff166002811061086157fe5b01546040516370a0823160e01b81526001600160a01b03909116906370a08231906108909030906004016121c8565b60206040518083038186803b1580156108a857600080fd5b505afa1580156108bc573d6000803e3d6000fd5b505050506040513d601f19601f820116820180604052508101906108e091906120f8565b905061a8c0810460078360ff16600281106108f757fe5b015411156109175760405162461bcd60e51b815260040161036d906123b0565b42600481905561a8c0016005557fde88a922e0d3b88b24e9623efeb464919c6bf9f66857a65e2bfcf2ce87a9433d8360ff84166002811061095457fe5b602002015160405161096691906121e7565b60405180910390a1506001016107b0565b50505050565b6006546000906001600160a01b038781169116146109ad5760405162461bcd60e51b815260040161036d9061231a565b50630a85bd0160e11b95945050505050565b6002546001600160801b031681565b600d5460ff168015610a0957507f00000000000000000000000000000000000000000000000000000000000000006001600160a01b03163014155b610a255760405162461bcd60e51b815260040161036d9061221c565b610a2d610e77565b15610a72576040805162461bcd60e51b815260206004820152601060248201526f14185d5cd8589b194e881c185d5cd95960821b604482015290519081900360640190fd5b60026001541415610aca576040805162461bcd60e51b815260206004820152601f60248201527f5265656e7472616e637947756172643a207265656e7472616e742063616c6c00604482015290519081900360640190fd5b6002600155610ad76115ea565b610adf611435565b60045560005b600260ff82161015610b9557610afa81610f95565b60098260ff1660028110610b0a57fe5b01556001600160a01b03821615610b8d57610b258282610e86565b6001600160a01b0383166000908152601d6020526040902060029081019060ff8416908110610b5057fe5b0155600960ff821660028110610b6257fe5b01546001600160a01b0383166000908152601d6020526040902060ff831660028110610b8a57fe5b01555b600101610ae5565b506000610ba06115ea565b905060005b600260ff82161015610c83576001600160a01b0382166000908152601d6020526040812060029081019060ff8416908110610bdc57fe5b015490508015610c7a576001600160a01b0383166000908152601d6020526040812060029081019060ff8516908110610c1157fe5b0155610c38600b60ff841660028110610c2657fe5b01546001600160a01b031684836117e2565b826001600160a01b03167fe2403640ba68fed3a2f88b7557551d1993f84b99bb10ff833f0cf8db0c5e048682604051610c7191906121e7565b60405180910390a25b50600101610ba5565b50506001805550565b600054610100900460ff1680610ca55750610ca5611930565b80610cb3575060005460ff16155b610cee5760405162461bcd60e51b815260040180806020018281038252602e815260200180612972602e913960400191505060405180910390fd5b600054610100900460ff16158015610d19576000805460ff1961ff0019909116610100171660011790555b610d216115ea565b600d80546001600160a01b039290921661010002610100600160a81b0319909216919091179055610d5a61018084016101608501611f0b565b600680546001600160a01b0319166001600160a01b0392909216919091179055610d848280612604565b6000818110610d8f57fe5b9050602002016020810190610da49190611f0b565b600b60000180546001600160a01b0319166001600160a01b0392909216919091179055610dd18280612604565b6001818110610ddc57fe5b9050602002016020810190610df19190611f0b565b600b60010180546001600160a01b0319166001600160a01b039290921691909117905582600e610e21828261289c565b50829050601a610e31828261279d565b5050600d805460ff191660011790558015610977576000805461ff001916905550505050565b600b8160028110610e6757600080fd5b01546001600160a01b0316905081565b60005462010000900460ff1690565b600d5460009060ff168015610ec457507f00000000000000000000000000000000000000000000000000000000000000006001600160a01b03163014155b610ee05760405162461bcd60e51b815260040161036d9061221c565b6001600160a01b0383166000908152601d6020526040902060029081019060ff8416908110610f0b57fe5b01546001600160a01b0384166000908152601d602052604090206402540be4009060ff851660028110610f3a57fe5b0154610f4585610f95565b6001600160a01b0387166000908152601e60205260409020600201546001600160801b03169190030281610f7557fe5b04019392505050565b60098160028110610f8e57600080fd5b0154905081565b600d5460009060ff168015610fd357507f00000000000000000000000000000000000000000000000000000000000000006001600160a01b03163014155b610fef5760405162461bcd60e51b815260040161036d9061221c565b6002546001600160801b03166110185760098260ff166002811061100f57fe5b0154905061106b565b60098260ff166002811061102857fe5b0154600280546001600160801b0316906402540be4009060079060ff871690811061104f57fe5b015460045461105c611435565b0302028161106657fe5b040190505b919050565b60035481565b600d5460ff1680156110b157507f00000000000000000000000000000000000000000000000000000000000000006001600160a01b03163014155b6110cd5760405162461bcd60e51b815260040161036d9061221c565b6110d5610e77565b1561111a576040805162461bcd60e51b815260206004820152601060248201526f14185d5cd8589b194e881c185d5cd95960821b604482015290519081900360640190fd5b60026001541415611172576040805162461bcd60e51b815260206004820152601f60248201527f5265656e7472616e637947756172643a207265656e7472616e742063616c6c00604482015290519081900360640190fd5b6002600155600d5460009061010090046001600160a01b03166391d14854826111996115ea565b6040518363ffffffff1660e01b81526004016111b69291906121f0565b60206040518083038186803b1580156111ce57600080fd5b505afa1580156111e2573d6000803e3d6000fd5b505050506040513d601f19601f82011682018060405250810190611206919061206e565b6112225760405162461bcd60e51b815260040161036d906123ff565b61122a6115ea565b611232611435565b60045560005b600260ff821610156112e85761124d81610f95565b60098260ff166002811061125d57fe5b01556001600160a01b038216156112e0576112788282610e86565b6001600160a01b0383166000908152601d6020526040902060029081019060ff84169081106112a357fe5b0155600960ff8216600281106112b557fe5b01546001600160a01b0383166000908152601d6020526040902060ff8316600281106112dd57fe5b01555b600101611238565b5060006112f36115ea565b90506000851180156113055750600084115b6113215760405162461bcd60e51b815260040161036d90612366565b6001600160a01b0381166000908152601e6020526040902042600390910155611348611edc565b6002546000906001600160801b031661137457611366838888611941565b602085015283529050611389565b61137f838888611b3f565b6020850152835290505b81516001600160a01b0384166000818152601e6020908152604091829020805490940184558501516001840180549091019055600292830180546001600160801b03198082166001600160801b03928316880183161790925584549182169181168601161790925590517f9e71bc8eea02a63969f509818f2dafb9254532904319f9dbda79b67bd34a5f3d906114209084906125c1565b60405180910390a25050600180555050505050565b600d5460009060ff16801561147357507f00000000000000000000000000000000000000000000000000000000000000006001600160a01b03163014155b61148f5760405162461bcd60e51b815260040161036d9061221c565b60055442106114a0576005546114a2565b425b905090565b600081565b600281565b610e1081565b6006546001600160a01b031681565b600d5461010090046001600160a01b031690565b60045481565b610bb881565b600d5460ff16801561152157507f00000000000000000000000000000000000000000000000000000000000000006001600160a01b03163014155b61153d5760405162461bcd60e51b815260040161036d9061221c565b611545610e77565b1561158a576040805162461bcd60e51b815260206004820152601060248201526f14185d5cd8589b194e881c185d5cd95960821b604482015290519081900360640190fd5b6115926109ce565b6115cc601e60006115a16115ea565b6001600160a01b031681526020810191909152604001600020600201546001600160801b0316610316565b565b60055481565b60078160028110610f8e57600080fd5b61a8c081565b3390565b6001600160a01b0382166000908152601e602052604081206002015481906001600160801b039081169084168110156116395760405162461bcd60e51b815260040161036d906122b1565b6040805160a08101825260035481526001600160801b03861660208201526000818301819052606082015242610e100160808201526006549151630624e65f60e11b815290916001600160a01b031690630c49ccbe9061169d90849060040161248c565b6040805180830381600087803b1580156116b657600080fd5b505af11580156116ca573d6000803e3d6000fd5b505050506040513d601f19601f820116820180604052508101906116ee919061216e565b600b54919550935061170a906001600160a01b031687866117e2565b600c54611721906001600160a01b031687856117e2565b50509250929050565b6040805160808101825260035481523060208201526001600160801b038183018190526060820152600654915163fc6f786560e01b81526000928392916001600160a01b039091169063fc6f786590611787908490600401612449565b6040805180830381600087803b1580156117a057600080fd5b505af11580156117b4573d6000803e3d6000fd5b505050506040513d601f19601f820116820180604052508101906117d8919061216e565b9094909350915050565b604080516001600160a01b038481166024830152604480830185905283518084039091018152606490920183526020820180516001600160e01b031663a9059cbb60e01b1781529251825160009485949389169392918291908083835b6020831061185e5780518252601f19909201916020918201910161183f565b6001836020036101000a0380198251168184511680821785525050505050509050019150506000604051808303816000865af19150503d80600081146118c0576040519150601f19603f3d011682016040523d82523d6000602084013e6118c5565b606091505b50915091508180156118f35750805115806118f357508080602001905160208110156118f057600080fd5b50515b611929576040805162461bcd60e51b815260206004820152600260248201526114d560f21b604482015290519081900360640190fd5b5050505050565b600061193b30611c37565b15905090565b6000808061195f600b825b01546001600160a01b0316873088611c3d565b61197a600b60015b01546001600160a01b0316873087611c3d565b61199a600b60005b01546006546001600160a01b03918216911687611d95565b6119ba600b60015b01546006546001600160a01b03918216911686611d95565b6000604051806101600160405280600b6000600281106119d657fe5b01546001600160a01b039081168252600c5481166020830152610bb8604080840191909152620d89e7196060840152620d89e8608084015260a083018a905260c08301899052600060e0840181905261010084015230610120840152610e104201610140909301929092526006549151634418b22b60e11b81529293501690638831645690611a69908490600401612513565b608060405180830381600087803b158015611a8357600080fd5b505af1158015611a97573d6000803e3d6000fd5b505050506040513d601f19601f82011682018060405250810190611abb9190612110565b6003939093559095509350915085831015611b1057611af1600b60005b01546006546001600160a01b0391821691166000611d95565b828603611b0e600b60005b01546001600160a01b031689836117e2565b505b84821015611b3557611b24600b6001611ad8565b818503611b33600b6001611afc565b505b5093509350939050565b60008080611b4e600b8261194c565b611b5a600b6001611967565b611b66600b6000611982565b611b72600b60016119a2565b6040805160c081018252600354815260208101879052808201869052600060608201819052608082015242610e100160a0820152600654915163219f5d1760e01b815290916001600160a01b03169063219f5d1790611bd59084906004016124cf565b606060405180830381600087803b158015611bef57600080fd5b505af1158015611c03573d6000803e3d6000fd5b505050506040513d601f19601f82011682018060405250810190611c2791906120aa565b9199909850909650945050505050565b3b151590565b604080516001600160a01b0385811660248301528481166044830152606480830185905283518084039091018152608490920183526020820180516001600160e01b03166323b872dd60e01b178152925182516000948594938a169392918291908083835b60208310611cc15780518252601f199092019160209182019101611ca2565b6001836020036101000a0380198251168184511680821785525050505050509050019150506000604051808303816000865af19150503d8060008114611d23576040519150601f19603f3d011682016040523d82523d6000602084013e611d28565b606091505b5091509150818015611d56575080511580611d565750808060200190516020811015611d5357600080fd5b50515b611d8d576040805162461bcd60e51b815260206004820152600360248201526229aa2360e91b604482015290519081900360640190fd5b505050505050565b604080516001600160a01b038481166024830152604480830185905283518084039091018152606490920183526020820180516001600160e01b031663095ea7b360e01b1781529251825160009485949389169392918291908083835b60208310611e115780518252601f199092019160209182019101611df2565b6001836020036101000a0380198251168184511680821785525050505050509050019150506000604051808303816000865af19150503d8060008114611e73576040519150601f19603f3d011682016040523d82523d6000602084013e611e78565b606091505b5091509150818015611ea6575080511580611ea65750808060200190516020811015611ea357600080fd5b50515b611929576040805162461bcd60e51b8152602060048201526002602482015261534160f01b604482015290519081900360640190fd5b60405180604001604052806002906020820280368337509192915050565b803560ff8116811461106b57600080fd5b600060208284031215611f1c578081fd5b8135611f2781612944565b9392505050565b600080600080600060808688031215611f45578081fd5b8535611f5081612944565b94506020860135611f6081612944565b935060408601359250606086013567ffffffffffffffff80821115611f83578283fd5b818801915088601f830112611f96578283fd5b813581811115611fa4578384fd5b896020828501011115611fb5578384fd5b9699959850939650602001949392505050565b60008060008385036101c0811215611fde578384fd5b8435611fe981612944565b9350610180601f1982011215611ffd578283fd5b506020840191506101a084013567ffffffffffffffff81111561201e578182fd5b84016060818703121561202f578182fd5b809150509250925092565b6000806040838503121561204c578182fd5b823561205781612944565b915061206560208401611efa565b90509250929050565b60006020828403121561207f578081fd5b81518015158114611f27578182fd5b60006020828403121561209f578081fd5b8135611f278161295c565b6000806000606084860312156120be578283fd5b83516120c98161295c565b602085015160409095015190969495509392505050565b6000602082840312156120f1578081fd5b5035919050565b600060208284031215612109578081fd5b5051919050565b60008060008060808587031215612125578384fd5b8451935060208501516121378161295c565b6040860151606090960151949790965092505050565b6000806040838503121561215f578182fd5b50508035926020909101359150565b60008060408385031215612180578182fd5b505080516020909101519092909150565b6000602082840312156121a2578081fd5b611f2782611efa565b6001600160a01b03169052565b60020b9052565b62ffffff169052565b6001600160a01b0391909116815260200190565b901515815260200190565b90815260200190565b9182526001600160a01b0316602082015260400190565b6001600160e01b031991909116815260200190565b6020808252602c908201527f466f7274756e6e61506f6f6c556e697377617056333a2063616e6e6f7420636160408201526b3636103234b932b1ba363c9760a11b606082015260800190565b60208082526029908201527f466f7274756e6e61506f6f6c556e697377617056333a2063616e206e6f74207760408201526806974686472617720360bc1b606082015260800190565b60208082526043908201527f466f7274756e6e61506f6f6c556e697377617056333a2063616e6e6f7420646560408201527f637265617365206f6e207468697320616d6f756e74206f66206c6971756964696060820152623a3c9760e91b608082015260a00190565b6020808252602c908201527f466f7274756e6e61506f6f6c556e697377617056333a20756e617574686f726960408201526b3d32b21037b832b930ba37b960a11b606082015260800190565b6020808252602a908201527f466f7274756e6e61506f6f6c556e697377617056333a2063616e206e6f74207360408201526974616b65207a65726f7360b01b606082015260800190565b6020808252602f908201527f466f7274756e6e61506f6f6c556e697377617056333a2070726f76696465642060408201526e0e4caeec2e4c840e8dede40d0d2ced608b1b606082015260800190565b6020808252602a908201527f466f7274756e6e61506f6f6c556e697377617056333a20756e617574686f72696040820152697a65642061636365737360b01b606082015260800190565b815181526020808301516001600160a01b0316908201526040808301516001600160801b0390811691830191909152606092830151169181019190915260800190565b600060a082019050825182526001600160801b03602084015116602083015260408301516040830152606083015160608301526080830151608083015292915050565b600060c082019050825182526020830151602083015260408301516040830152606083015160608301526080830151608083015260a083015160a083015292915050565b6000610160820190506125278284516121ab565b602083015161253960208401826121ab565b50604083015161254c60408401826121bf565b50606083015161255f60608401826121b8565b50608083015161257260808401826121b8565b5060a083015160a083015260c083015160c083015260e083015160e0830152610100808401518184015250610120808401516125b0828501826121ab565b505061014092830151919092015290565b6001600160801b0391909116815260200190565b62ffffff91909116815260200190565b63ffffffff91909116815260200190565b60ff91909116815260200190565b6000808335601e1984360301811261261a578283fd5b83018035915067ffffffffffffffff821115612634578283fd5b602090810192508102360382131561264b57600080fd5b9250929050565b6000808335601e19843603018112612668578182fd5b83018035915067ffffffffffffffff821115612682578283fd5b602001915060408102360382131561264b57600080fd5b60009081526020902090565b5b818110156126ba57600081556001016126a6565b5050565b600160401b8311156126cc57fe5b805483825580841015612733576001600160ff1b03808211600116156126ee57fe5b6002818611600116156126fd57fe5b60008481526020902086820281019250818402015b8083101561272f57612726828401846126a5565b91810191612712565b5050505b508161273e82612699565b6000805b8681101561276b57612755848385612918565b6040939093019260029290920191600101612742565b50505050505050565b813561277f81612944565b81546001600160a01b0319166001600160a01b039190911617905550565b8135601e198336030181126127b157600080fd5b8201803567ffffffffffffffff8111156127ca57600080fd5b60209182019181810236038313156127e157600080fd5b600160401b8211156127ef57fe5b8354828555808310156128145784600052816000206128128282018583016126a5565b505b50836000528060002060005b8381101561285e57843561283381612944565b82546001600160a01b0319166001600160a01b03919091161782559382019360019182019101612820565b505061286c81860186612652565b935091505061287f8282600186016126be565b505061288e6040830183612652565b6109778183600286016126be565b813581556020820135600182015560408201356002820155606082013560038201556080820135600482015560a0820135600582015560c0820135600682015560e0820135600782015561010082013560088201556101208201356009820155610140820135600a8201556126ba6101608301600b8301612774565b811561292057fe5b828160005b6002811015611d8d578235825560209092019160019182019101612925565b6001600160a01b038116811461295957600080fd5b50565b6001600160801b038116811461295957600080fdfe496e697469616c697a61626c653a20636f6e747261637420697320616c726561647920696e697469616c697a6564a26469706673582212209b6fa4d3cdcfd5937cf01f95a3ea388070dfa733cbfe8b4f547938afa018944264736f6c63430007060033",
  "libraries": {
    "FortunnaLib": "0x2475181E30FcFFA7A636eDc469BE56d9080F4A8c"
  },
  "devdoc": {
    "kind": "dev",
    "methods": {
      "earned(address,uint8)": {
        "details": "The logic is derived from the StakingRewards contract.",
        "params": {
          "user": "User address."
        },
        "returns": {
          "_0": "Amount of rewards earned by the user."
        }
      },
      "exit()": {
        "details": "Withdrawal comission is the same as for the `withdraw()` function."
      },
      "getReward()": {
        "details": "There are no fees on the reward."
      },
      "lastTimeRewardApplicable()": {
        "details": "Allows the contract to correctly calculate rewards earned by users.",
        "returns": {
          "_0": "Last time reward was applicable."
        }
      },
      "notifyRewardAmount()": {
        "details": "Called by the admin once every 12 hours."
      },
      "paused()": {
        "details": "Returns true if the contract is paused, and false otherwise."
      },
      "rewardPerToken(uint8)": {
        "details": "The logic is derived from the StakingRewards contract.",
        "returns": {
          "_0": "Amount of reward per token staked."
        }
      },
      "stake(uint256,uint256)": {
        "details": "Updates user's last deposit time. The deposit amount of tokens cannot be equal to 0.",
        "params": {
          "amount0": "Amount of tokens to deposit."
        }
      },
      "withdraw(uint128)": {
        "params": {
          "amount": "Desired amount of liquidity tokens to withdraw."
        }
      }
    },
    "version": 1
  },
  "userdoc": {
    "kind": "user",
    "methods": {
      "earned(address,uint8)": {
        "notice": "Retrieves the amount of rewards earned by the user."
      },
      "exit()": {
        "notice": "Withdraws all tokens deposited by the user and gets rewards for him."
      },
      "getReward()": {
        "notice": "Transfers rewards to the user."
      },
      "lastTimeRewardApplicable()": {
        "notice": "Retrieves the last time reward was applicable."
      },
      "notifyRewardAmount()": {
        "notice": "Notifies the contract of an incoming reward and recalculates the reward rate."
      },
      "rewardPerToken(uint8)": {
        "notice": "Retrieves the amount of reward per token staked."
      },
      "stake(uint256,uint256)": {
        "notice": "Deposits tokens for the user."
      },
      "withdraw(uint128)": {
        "notice": "Withdraws desired amount of deposited tokens for the user."
      }
    },
    "version": 1
  },
  "storageLayout": {
    "storage": [
      {
        "astId": 301,
        "contract": "contracts/FortunnaPoolUniswapV3.sol:FortunnaPoolUniswapV3",
        "label": "_initialized",
        "offset": 0,
        "slot": "0",
        "type": "t_bool"
      },
      {
        "astId": 304,
        "contract": "contracts/FortunnaPoolUniswapV3.sol:FortunnaPoolUniswapV3",
        "label": "_initializing",
        "offset": 1,
        "slot": "0",
        "type": "t_bool"
      },
      {
        "astId": 1459,
        "contract": "contracts/FortunnaPoolUniswapV3.sol:FortunnaPoolUniswapV3",
        "label": "_paused",
        "offset": 2,
        "slot": "0",
        "type": "t_bool"
      },
      {
        "astId": 1544,
        "contract": "contracts/FortunnaPoolUniswapV3.sol:FortunnaPoolUniswapV3",
        "label": "_status",
        "offset": 0,
        "slot": "1",
        "type": "t_uint256"
      },
      {
        "astId": 2727,
        "contract": "contracts/FortunnaPoolUniswapV3.sol:FortunnaPoolUniswapV3",
        "label": "totalLiquidity",
        "offset": 0,
        "slot": "2",
        "type": "t_uint128"
      },
      {
        "astId": 2729,
        "contract": "contracts/FortunnaPoolUniswapV3.sol:FortunnaPoolUniswapV3",
        "label": "positionId",
        "offset": 0,
        "slot": "3",
        "type": "t_uint256"
      },
      {
        "astId": 2731,
        "contract": "contracts/FortunnaPoolUniswapV3.sol:FortunnaPoolUniswapV3",
        "label": "lastUpdateTime",
        "offset": 0,
        "slot": "4",
        "type": "t_uint256"
      },
      {
        "astId": 2733,
        "contract": "contracts/FortunnaPoolUniswapV3.sol:FortunnaPoolUniswapV3",
        "label": "periodFinish",
        "offset": 0,
        "slot": "5",
        "type": "t_uint256"
      },
      {
        "astId": 2735,
        "contract": "contracts/FortunnaPoolUniswapV3.sol:FortunnaPoolUniswapV3",
        "label": "nonfungiblePositionManager",
        "offset": 0,
        "slot": "6",
        "type": "t_contract(INonfungiblePositionManager)2338"
      },
      {
        "astId": 2739,
        "contract": "contracts/FortunnaPoolUniswapV3.sol:FortunnaPoolUniswapV3",
        "label": "rewardRates",
        "offset": 0,
        "slot": "7",
        "type": "t_array(t_uint256)2_storage"
      },
      {
        "astId": 2743,
        "contract": "contracts/FortunnaPoolUniswapV3.sol:FortunnaPoolUniswapV3",
        "label": "rewardsPerTokenStored",
        "offset": 0,
        "slot": "9",
        "type": "t_array(t_uint256)2_storage"
      },
      {
        "astId": 2747,
        "contract": "contracts/FortunnaPoolUniswapV3.sol:FortunnaPoolUniswapV3",
        "label": "tokens",
        "offset": 0,
        "slot": "11",
        "type": "t_array(t_address)2_storage"
      },
      {
        "astId": 2749,
        "contract": "contracts/FortunnaPoolUniswapV3.sol:FortunnaPoolUniswapV3",
        "label": "isInitialized",
        "offset": 0,
        "slot": "13",
        "type": "t_bool"
      },
      {
        "astId": 2751,
        "contract": "contracts/FortunnaPoolUniswapV3.sol:FortunnaPoolUniswapV3",
        "label": "_factory",
        "offset": 1,
        "slot": "13",
        "type": "t_address"
      },
      {
        "astId": 2753,
        "contract": "contracts/FortunnaPoolUniswapV3.sol:FortunnaPoolUniswapV3",
        "label": "scalarParams",
        "offset": 0,
        "slot": "14",
        "type": "t_struct(PoolParameters)3976_storage"
      },
      {
        "astId": 2755,
        "contract": "contracts/FortunnaPoolUniswapV3.sol:FortunnaPoolUniswapV3",
        "label": "vectorParams",
        "offset": 0,
        "slot": "26",
        "type": "t_struct(PoolParametersArrays)3990_storage"
      },
      {
        "astId": 2759,
        "contract": "contracts/FortunnaPoolUniswapV3.sol:FortunnaPoolUniswapV3",
        "label": "rewardsInfo",
        "offset": 0,
        "slot": "29",
        "type": "t_mapping(t_address,t_struct(RewardInfo)2695_storage)"
      },
      {
        "astId": 2763,
        "contract": "contracts/FortunnaPoolUniswapV3.sol:FortunnaPoolUniswapV3",
        "label": "depositsInfo",
        "offset": 0,
        "slot": "30",
        "type": "t_mapping(t_address,t_struct(DepositInfo)2704_storage)"
      }
    ],
    "types": {
      "t_address": {
        "encoding": "inplace",
        "label": "address",
        "numberOfBytes": "20"
      },
      "t_array(t_address)2_storage": {
        "base": "t_address",
        "encoding": "inplace",
        "label": "address[2]",
        "numberOfBytes": "64"
      },
      "t_array(t_address)dyn_storage": {
        "base": "t_address",
        "encoding": "dynamic_array",
        "label": "address[]",
        "numberOfBytes": "32"
      },
      "t_array(t_array(t_uint256)2_storage)dyn_storage": {
        "base": "t_array(t_uint256)2_storage",
        "encoding": "dynamic_array",
        "label": "uint256[2][]",
        "numberOfBytes": "32"
      },
      "t_array(t_uint256)2_storage": {
        "base": "t_uint256",
        "encoding": "inplace",
        "label": "uint256[2]",
        "numberOfBytes": "64"
      },
      "t_bool": {
        "encoding": "inplace",
        "label": "bool",
        "numberOfBytes": "1"
      },
      "t_bytes32": {
        "encoding": "inplace",
        "label": "bytes32",
        "numberOfBytes": "32"
      },
      "t_contract(INonfungiblePositionManager)2338": {
        "encoding": "inplace",
        "label": "contract INonfungiblePositionManager",
        "numberOfBytes": "20"
      },
      "t_mapping(t_address,t_struct(DepositInfo)2704_storage)": {
        "encoding": "mapping",
        "key": "t_address",
        "label": "mapping(address => struct FortunnaPoolUniswapV3.DepositInfo)",
        "numberOfBytes": "32",
        "value": "t_struct(DepositInfo)2704_storage"
      },
      "t_mapping(t_address,t_struct(RewardInfo)2695_storage)": {
        "encoding": "mapping",
        "key": "t_address",
        "label": "mapping(address => struct FortunnaPoolUniswapV3.RewardInfo)",
        "numberOfBytes": "32",
        "value": "t_struct(RewardInfo)2695_storage"
      },
      "t_struct(CustomPoolParameters)3951_storage": {
        "encoding": "inplace",
        "label": "struct FortunnaLib.CustomPoolParameters",
        "members": [
          {
            "astId": 3950,
            "contract": "contracts/FortunnaPoolUniswapV3.sol:FortunnaPoolUniswapV3",
            "label": "nonfungiblePositionManager",
            "offset": 0,
            "slot": "0",
            "type": "t_address"
          }
        ],
        "numberOfBytes": "32"
      },
      "t_struct(DepositInfo)2704_storage": {
        "encoding": "inplace",
        "label": "struct FortunnaPoolUniswapV3.DepositInfo",
        "members": [
          {
            "astId": 2699,
            "contract": "contracts/FortunnaPoolUniswapV3.sol:FortunnaPoolUniswapV3",
            "label": "amounts",
            "offset": 0,
            "slot": "0",
            "type": "t_array(t_uint256)2_storage"
          },
          {
            "astId": 2701,
            "contract": "contracts/FortunnaPoolUniswapV3.sol:FortunnaPoolUniswapV3",
            "label": "balance",
            "offset": 0,
            "slot": "2",
            "type": "t_uint128"
          },
          {
            "astId": 2703,
            "contract": "contracts/FortunnaPoolUniswapV3.sol:FortunnaPoolUniswapV3",
            "label": "lastDepositTime",
            "offset": 0,
            "slot": "3",
            "type": "t_uint256"
          }
        ],
        "numberOfBytes": "128"
      },
      "t_struct(PoolParameters)3976_storage": {
        "encoding": "inplace",
        "label": "struct FortunnaLib.PoolParameters",
        "members": [
          {
            "astId": 3953,
            "contract": "contracts/FortunnaPoolUniswapV3.sol:FortunnaPoolUniswapV3",
            "label": "protoPoolIdx",
            "offset": 0,
            "slot": "0",
            "type": "t_uint256"
          },
          {
            "astId": 3955,
            "contract": "contracts/FortunnaPoolUniswapV3.sol:FortunnaPoolUniswapV3",
            "label": "startTimestamp",
            "offset": 0,
            "slot": "1",
            "type": "t_uint256"
          },
          {
            "astId": 3957,
            "contract": "contracts/FortunnaPoolUniswapV3.sol:FortunnaPoolUniswapV3",
            "label": "endTimestamp",
            "offset": 0,
            "slot": "2",
            "type": "t_uint256"
          },
          {
            "astId": 3959,
            "contract": "contracts/FortunnaPoolUniswapV3.sol:FortunnaPoolUniswapV3",
            "label": "minStakeAmount",
            "offset": 0,
            "slot": "3",
            "type": "t_uint256"
          },
          {
            "astId": 3961,
            "contract": "contracts/FortunnaPoolUniswapV3.sol:FortunnaPoolUniswapV3",
            "label": "maxStakeAmount",
            "offset": 0,
            "slot": "4",
            "type": "t_uint256"
          },
          {
            "astId": 3963,
            "contract": "contracts/FortunnaPoolUniswapV3.sol:FortunnaPoolUniswapV3",
            "label": "minLockUpRewardsPeriod",
            "offset": 0,
            "slot": "5",
            "type": "t_uint256"
          },
          {
            "astId": 3965,
            "contract": "contracts/FortunnaPoolUniswapV3.sol:FortunnaPoolUniswapV3",
            "label": "earlyWithdrawalFeeBasePoints",
            "offset": 0,
            "slot": "6",
            "type": "t_uint256"
          },
          {
            "astId": 3967,
            "contract": "contracts/FortunnaPoolUniswapV3.sol:FortunnaPoolUniswapV3",
            "label": "depositWithdrawFeeBasePoints",
            "offset": 0,
            "slot": "7",
            "type": "t_uint256"
          },
          {
            "astId": 3969,
            "contract": "contracts/FortunnaPoolUniswapV3.sol:FortunnaPoolUniswapV3",
            "label": "totalRewardBasePointsPerDistribution",
            "offset": 0,
            "slot": "8",
            "type": "t_uint256"
          },
          {
            "astId": 3971,
            "contract": "contracts/FortunnaPoolUniswapV3.sol:FortunnaPoolUniswapV3",
            "label": "stakingTokensMask",
            "offset": 0,
            "slot": "9",
            "type": "t_bytes32"
          },
          {
            "astId": 3973,
            "contract": "contracts/FortunnaPoolUniswapV3.sol:FortunnaPoolUniswapV3",
            "label": "rewardTokensMask",
            "offset": 0,
            "slot": "10",
            "type": "t_bytes32"
          },
          {
            "astId": 3975,
            "contract": "contracts/FortunnaPoolUniswapV3.sol:FortunnaPoolUniswapV3",
            "label": "custom",
            "offset": 0,
            "slot": "11",
            "type": "t_struct(CustomPoolParameters)3951_storage"
          }
        ],
        "numberOfBytes": "384"
      },
      "t_struct(PoolParametersArrays)3990_storage": {
        "encoding": "inplace",
        "label": "struct FortunnaLib.PoolParametersArrays",
        "members": [
          {
            "astId": 3979,
            "contract": "contracts/FortunnaPoolUniswapV3.sol:FortunnaPoolUniswapV3",
            "label": "utilizingTokens",
            "offset": 0,
            "slot": "0",
            "type": "t_array(t_address)dyn_storage"
          },
          {
            "astId": 3984,
            "contract": "contracts/FortunnaPoolUniswapV3.sol:FortunnaPoolUniswapV3",
            "label": "initialRewardAmounts",
            "offset": 0,
            "slot": "1",
            "type": "t_array(t_array(t_uint256)2_storage)dyn_storage"
          },
          {
            "astId": 3989,
            "contract": "contracts/FortunnaPoolUniswapV3.sol:FortunnaPoolUniswapV3",
            "label": "initialDepositAmounts",
            "offset": 0,
            "slot": "2",
            "type": "t_array(t_array(t_uint256)2_storage)dyn_storage"
          }
        ],
        "numberOfBytes": "96"
      },
      "t_struct(RewardInfo)2695_storage": {
        "encoding": "inplace",
        "label": "struct FortunnaPoolUniswapV3.RewardInfo",
        "members": [
          {
            "astId": 2690,
            "contract": "contracts/FortunnaPoolUniswapV3.sol:FortunnaPoolUniswapV3",
            "label": "userRewardsPerTokensPaid",
            "offset": 0,
            "slot": "0",
            "type": "t_array(t_uint256)2_storage"
          },
          {
            "astId": 2694,
            "contract": "contracts/FortunnaPoolUniswapV3.sol:FortunnaPoolUniswapV3",
            "label": "rewards",
            "offset": 0,
            "slot": "2",
            "type": "t_array(t_uint256)2_storage"
          }
        ],
        "numberOfBytes": "128"
      },
      "t_uint128": {
        "encoding": "inplace",
        "label": "uint128",
        "numberOfBytes": "16"
      },
      "t_uint256": {
        "encoding": "inplace",
        "label": "uint256",
        "numberOfBytes": "32"
      }
    }
  }
}