{
  "address": "0xfBB400aC812541b05525bf511f560e1B1Ac9f0E3",
  "abi": [
    {
      "inputs": [
        {
          "internalType": "address",
          "name": "_fortunnaTokenPrototype",
          "type": "address"
        },
        {
          "internalType": "address",
          "name": "_fortunnaPoolPrototype",
          "type": "address"
        },
        {
          "internalType": "address",
          "name": "_fortunnaPoolUniswapV3Prototype",
          "type": "address"
        },
        {
          "internalType": "address[]",
          "name": "paymentTokens",
          "type": "address[]"
        }
      ],
      "stateMutability": "nonpayable",
      "type": "constructor"
    },
    {
      "inputs": [
        {
          "internalType": "address",
          "name": "entity",
          "type": "address"
        }
      ],
      "name": "AddressAlreadyExists",
      "type": "error"
    },
    {
      "inputs": [
        {
          "internalType": "uint256",
          "name": "x",
          "type": "uint256"
        },
        {
          "internalType": "uint256",
          "name": "y",
          "type": "uint256"
        },
        {
          "internalType": "string",
          "name": "comment",
          "type": "string"
        }
      ],
      "name": "AreNotEqual",
      "type": "error"
    },
    {
      "inputs": [
        {
          "internalType": "address",
          "name": "account",
          "type": "address"
        }
      ],
      "name": "Banned",
      "type": "error"
    },
    {
      "inputs": [
        {
          "internalType": "uint256",
          "name": "basePoints",
          "type": "uint256"
        },
        {
          "internalType": "string",
          "name": "comment",
          "type": "string"
        }
      ],
      "name": "IncorrectBasePoints",
      "type": "error"
    },
    {
      "inputs": [
        {
          "internalType": "uint256",
          "name": "start",
          "type": "uint256"
        },
        {
          "internalType": "uint256",
          "name": "finish",
          "type": "uint256"
        },
        {
          "internalType": "string",
          "name": "comment",
          "type": "string"
        }
      ],
      "name": "IncorrectInterval",
      "type": "error"
    },
    {
      "inputs": [
        {
          "internalType": "uint256",
          "name": "length",
          "type": "uint256"
        },
        {
          "internalType": "string",
          "name": "comment",
          "type": "string"
        }
      ],
      "name": "InvalidLength",
      "type": "error"
    },
    {
      "inputs": [
        {
          "internalType": "bytes32",
          "name": "role",
          "type": "bytes32"
        },
        {
          "internalType": "address",
          "name": "entity",
          "type": "address"
        }
      ],
      "name": "NotAuthorized",
      "type": "error"
    },
    {
      "inputs": [
        {
          "internalType": "uint256",
          "name": "amount",
          "type": "uint256"
        }
      ],
      "name": "NotEnoughtPayment",
      "type": "error"
    },
    {
      "inputs": [
        {
          "internalType": "uint256",
          "name": "prototypeIndex",
          "type": "uint256"
        }
      ],
      "name": "UnknownPrototypeIndex",
      "type": "error"
    },
    {
      "anonymous": false,
      "inputs": [
        {
          "indexed": true,
          "internalType": "uint256",
          "name": "amount",
          "type": "uint256"
        }
      ],
      "name": "NativeTokenReceived",
      "type": "event"
    },
    {
      "anonymous": false,
      "inputs": [
        {
          "indexed": true,
          "internalType": "address",
          "name": "pool",
          "type": "address"
        }
      ],
      "name": "PoolCreated",
      "type": "event"
    },
    {
      "anonymous": false,
      "inputs": [
        {
          "indexed": true,
          "internalType": "bytes32",
          "name": "role",
          "type": "bytes32"
        },
        {
          "indexed": true,
          "internalType": "bytes32",
          "name": "previousAdminRole",
          "type": "bytes32"
        },
        {
          "indexed": true,
          "internalType": "bytes32",
          "name": "newAdminRole",
          "type": "bytes32"
        }
      ],
      "name": "RoleAdminChanged",
      "type": "event"
    },
    {
      "anonymous": false,
      "inputs": [
        {
          "indexed": true,
          "internalType": "bytes32",
          "name": "role",
          "type": "bytes32"
        },
        {
          "indexed": true,
          "internalType": "address",
          "name": "account",
          "type": "address"
        },
        {
          "indexed": true,
          "internalType": "address",
          "name": "sender",
          "type": "address"
        }
      ],
      "name": "RoleGranted",
      "type": "event"
    },
    {
      "anonymous": false,
      "inputs": [
        {
          "indexed": true,
          "internalType": "bytes32",
          "name": "role",
          "type": "bytes32"
        },
        {
          "indexed": true,
          "internalType": "address",
          "name": "account",
          "type": "address"
        },
        {
          "indexed": true,
          "internalType": "address",
          "name": "sender",
          "type": "address"
        }
      ],
      "name": "RoleRevoked",
      "type": "event"
    },
    {
      "inputs": [],
      "name": "DEFAULT_ADMIN_ROLE",
      "outputs": [
        {
          "internalType": "bytes32",
          "name": "",
          "type": "bytes32"
        }
      ],
      "stateMutability": "view",
      "type": "function"
    },
    {
      "inputs": [],
      "name": "FORTUNNA_TOKEN_PROTO_INDEX",
      "outputs": [
        {
          "internalType": "uint256",
          "name": "",
          "type": "uint256"
        }
      ],
      "stateMutability": "view",
      "type": "function"
    },
    {
      "inputs": [
        {
          "internalType": "address",
          "name": "prototype",
          "type": "address"
        }
      ],
      "name": "addPrototype",
      "outputs": [],
      "stateMutability": "nonpayable",
      "type": "function"
    },
    {
      "inputs": [
        {
          "components": [
            {
              "internalType": "uint256",
              "name": "protoPoolIdx",
              "type": "uint256"
            },
            {
              "internalType": "uint256",
              "name": "startTimestamp",
              "type": "uint256"
            },
            {
              "internalType": "uint256",
              "name": "endTimestamp",
              "type": "uint256"
            },
            {
              "internalType": "uint256",
              "name": "minStakeAmount",
              "type": "uint256"
            },
            {
              "internalType": "uint256",
              "name": "maxStakeAmount",
              "type": "uint256"
            },
            {
              "internalType": "uint256",
              "name": "minLockUpRewardsPeriod",
              "type": "uint256"
            },
            {
              "internalType": "uint256",
              "name": "earlyWithdrawalFeeBasePoints",
              "type": "uint256"
            },
            {
              "internalType": "uint256",
              "name": "depositWithdrawFeeBasePoints",
              "type": "uint256"
            },
            {
              "internalType": "uint256",
              "name": "totalRewardBasePointsPerDistribution",
              "type": "uint256"
            },
            {
              "internalType": "bytes32",
              "name": "stakingTokensMask",
              "type": "bytes32"
            },
            {
              "internalType": "bytes32",
              "name": "rewardTokensMask",
              "type": "bytes32"
            },
            {
              "components": [
                {
                  "internalType": "address",
                  "name": "nonfungiblePositionManager",
                  "type": "address"
                }
              ],
              "internalType": "struct FortunnaLib.CustomPoolParameters",
              "name": "custom",
              "type": "tuple"
            }
          ],
          "internalType": "struct FortunnaLib.PoolParameters",
          "name": "poolParameters",
          "type": "tuple"
        },
        {
          "components": [
            {
              "internalType": "address[]",
              "name": "utilizingTokens",
              "type": "address[]"
            },
            {
              "internalType": "uint256[2][]",
              "name": "initialRewardAmounts",
              "type": "uint256[2][]"
            },
            {
              "internalType": "uint256[2][]",
              "name": "initialDepositAmounts",
              "type": "uint256[2][]"
            }
          ],
          "internalType": "struct FortunnaLib.PoolParametersArrays",
          "name": "poolParametersArrays",
          "type": "tuple"
        }
      ],
      "name": "createPool",
      "outputs": [
        {
          "internalType": "address",
          "name": "pool",
          "type": "address"
        }
      ],
      "stateMutability": "payable",
      "type": "function"
    },
    {
      "inputs": [
        {
          "internalType": "bool[]",
          "name": "flags",
          "type": "bool[]"
        }
      ],
      "name": "generateMask",
      "outputs": [
        {
          "internalType": "bytes32",
          "name": "",
          "type": "bytes32"
        }
      ],
      "stateMutability": "pure",
      "type": "function"
    },
    {
      "inputs": [
        {
          "internalType": "uint256",
          "name": "index",
          "type": "uint256"
        }
      ],
      "name": "getPoolAt",
      "outputs": [
        {
          "internalType": "address",
          "name": "",
          "type": "address"
        }
      ],
      "stateMutability": "view",
      "type": "function"
    },
    {
      "inputs": [],
      "name": "getPoolsLength",
      "outputs": [
        {
          "internalType": "uint256",
          "name": "",
          "type": "uint256"
        }
      ],
      "stateMutability": "view",
      "type": "function"
    },
    {
      "inputs": [
        {
          "internalType": "uint256",
          "name": "index",
          "type": "uint256"
        }
      ],
      "name": "getPrototypeAt",
      "outputs": [
        {
          "internalType": "address",
          "name": "result",
          "type": "address"
        }
      ],
      "stateMutability": "view",
      "type": "function"
    },
    {
      "inputs": [],
      "name": "getPrototypesLength",
      "outputs": [
        {
          "internalType": "uint256",
          "name": "result",
          "type": "uint256"
        }
      ],
      "stateMutability": "view",
      "type": "function"
    },
    {
      "inputs": [
        {
          "internalType": "bytes32",
          "name": "role",
          "type": "bytes32"
        }
      ],
      "name": "getRoleAdmin",
      "outputs": [
        {
          "internalType": "bytes32",
          "name": "",
          "type": "bytes32"
        }
      ],
      "stateMutability": "view",
      "type": "function"
    },
    {
      "inputs": [
        {
          "internalType": "bytes32",
          "name": "role",
          "type": "bytes32"
        },
        {
          "internalType": "address",
          "name": "account",
          "type": "address"
        }
      ],
      "name": "grantRole",
      "outputs": [],
      "stateMutability": "nonpayable",
      "type": "function"
    },
    {
      "inputs": [
        {
          "internalType": "bytes32",
          "name": "role",
          "type": "bytes32"
        },
        {
          "internalType": "address",
          "name": "account",
          "type": "address"
        }
      ],
      "name": "hasRole",
      "outputs": [
        {
          "internalType": "bool",
          "name": "",
          "type": "bool"
        }
      ],
      "stateMutability": "view",
      "type": "function"
    },
    {
      "inputs": [],
      "name": "paymentInfo",
      "outputs": [
        {
          "internalType": "address",
          "name": "paymentToken",
          "type": "address"
        },
        {
          "internalType": "uint256",
          "name": "cost",
          "type": "uint256"
        }
      ],
      "stateMutability": "view",
      "type": "function"
    },
    {
      "inputs": [
        {
          "internalType": "uint256",
          "name": "poolProtoIdx",
          "type": "uint256"
        },
        {
          "internalType": "uint256",
          "name": "poolIdx",
          "type": "uint256"
        },
        {
          "internalType": "bool",
          "name": "isStakingOrReward",
          "type": "bool"
        }
      ],
      "name": "predictFortunnaTokenAddress",
      "outputs": [
        {
          "internalType": "address",
          "name": "result",
          "type": "address"
        },
        {
          "internalType": "bytes32",
          "name": "salt",
          "type": "bytes32"
        }
      ],
      "stateMutability": "view",
      "type": "function"
    },
    {
      "inputs": [
        {
          "internalType": "uint256",
          "name": "poolProtoIdx",
          "type": "uint256"
        }
      ],
      "name": "predictPoolAddress",
      "outputs": [
        {
          "internalType": "address",
          "name": "result",
          "type": "address"
        },
        {
          "internalType": "bytes32",
          "name": "salt",
          "type": "bytes32"
        }
      ],
      "stateMutability": "view",
      "type": "function"
    },
    {
      "inputs": [
        {
          "internalType": "bytes32",
          "name": "role",
          "type": "bytes32"
        },
        {
          "internalType": "address",
          "name": "account",
          "type": "address"
        }
      ],
      "name": "renounceRole",
      "outputs": [],
      "stateMutability": "nonpayable",
      "type": "function"
    },
    {
      "inputs": [
        {
          "internalType": "bytes32",
          "name": "role",
          "type": "bytes32"
        },
        {
          "internalType": "address",
          "name": "account",
          "type": "address"
        }
      ],
      "name": "revokeRole",
      "outputs": [],
      "stateMutability": "nonpayable",
      "type": "function"
    },
    {
      "inputs": [
        {
          "internalType": "address",
          "name": "token",
          "type": "address"
        },
        {
          "internalType": "address payable",
          "name": "who",
          "type": "address"
        },
        {
          "internalType": "uint256",
          "name": "amount",
          "type": "uint256"
        }
      ],
      "name": "sendCollectedTokens",
      "outputs": [],
      "stateMutability": "nonpayable",
      "type": "function"
    },
    {
      "inputs": [
        {
          "components": [
            {
              "internalType": "address",
              "name": "paymentToken",
              "type": "address"
            },
            {
              "internalType": "uint256",
              "name": "cost",
              "type": "uint256"
            }
          ],
          "internalType": "struct FortunnaLib.PaymentInfo",
          "name": "_paymentInfo",
          "type": "tuple"
        }
      ],
      "name": "setPaymentInfo",
      "outputs": [],
      "stateMutability": "nonpayable",
      "type": "function"
    },
    {
      "inputs": [
        {
          "internalType": "bytes4",
          "name": "interfaceId",
          "type": "bytes4"
        }
      ],
      "name": "supportsInterface",
      "outputs": [
        {
          "internalType": "bool",
          "name": "",
          "type": "bool"
        }
      ],
      "stateMutability": "view",
      "type": "function"
    },
    {
      "stateMutability": "payable",
      "type": "receive"
    }
  ],
  "transactionHash": "0x51e501ff7591936c8ece3d42e1250aad2ca1d702f348988b88ea4447bfba7a3a",
  "args": [
    "0x8426a9718874F5B37c238Eb55eF7b89b7Beec86F",
    "0x7490A9b9CF8Fb4fC269936B7Af3De549eB8e2C45",
    "0x9368E47733361eECaba61cd52A5604A73A7E3AB9",
    [
      "0x0000000000000000000000000000000000000000"
    ]
  ],
  "numDeployments": 1,
  "solcInputHash": "dfc0b4bbd81236be9f16ab2d5a82ad4c",
  "bytecode": "0x608060405234801562000010575f80fd5b50604051620020ef380380620020ef83398101604081905262000033916200027a565b33620000405f826200013d565b6200006c7f508ce835b993083d562083854a88de07ecc701522f232cada7863173dfc40df3826200013d565b620000987f185fa0fa3354ff548ee95bc7375967e5e2cdbd00e7211f15ee5ea68c1d5dbae55f6200013d565b620000a5600585620001dc565b50620000b3600584620001dc565b50620000c1600586620001dc565b505f5b825181101562000131576200011c7f185fa0fa3354ff548ee95bc7375967e5e2cdbd00e7211f15ee5ea68c1d5dbae58483815181106200010857620001086200037f565b60200260200101516200013d60201b60201c565b80620001288162000393565b915050620000c4565b505050505050620003b8565b5f828152602081815260408083206001600160a01b038516845290915290205460ff16620001d8575f828152602081815260408083206001600160a01b03851684529091529020805460ff19166001179055620001973390565b6001600160a01b0316816001600160a01b0316837f2f8788117e7eff1d82e926ec794901d17c78024a50270940304540a733656f0d60405160405180910390a45b5050565b5f620001f2836001600160a01b038416620001fb565b90505b92915050565b5f8181526001830160205260408120546200024257508154600181810184555f848152602080822090930184905584548482528286019093526040902091909155620001f5565b505f620001f5565b80516001600160a01b038116811462000261575f80fd5b919050565b634e487b7160e01b5f52604160045260245ffd5b5f805f80608085870312156200028e575f80fd5b62000299856200024a565b93506020620002aa8187016200024a565b9350620002ba604087016200024a565b60608701519093506001600160401b0380821115620002d7575f80fd5b818801915088601f830112620002eb575f80fd5b81518181111562000300576200030062000266565b8060051b604051601f19603f8301168101818110858211171562000328576200032862000266565b60405291825284820192508381018501918b83111562000346575f80fd5b938501935b828510156200036f576200035f856200024a565b845293850193928501926200034b565b989b979a50959850505050505050565b634e487b7160e01b5f52603260045260245ffd5b5f60018201620003b157634e487b7160e01b5f52601160045260245ffd5b5060010190565b611d2980620003c65f395ff3fe60806040526004361061011e575f3560e01c80636e8eb2f21161009d578063acc9606f11610062578063acc9606f14610370578063ce883cdb14610384578063d547741f14610398578063e9dcf5e4146103b7578063ef251fc2146103d6575f80fd5b80636e8eb2f2146102ec578063708aaa351461030057806388cb29581461031f57806391d148541461033e578063a217fddf1461035d575f80fd5b806336568abe116100e357806336568abe1461023a5780634442674a14610259578063494afd1b1461026c5780634af1b0b51461028b5780635536cb9b146102cd575f80fd5b806301ffc9a71461015357806305ea2183146101875780631bbb12fc146101be578063248a9ca3146101dd5780632f2ff15d14610219575f80fd5b3661014f5760405134907f347c40822e6eef789530725ec7aa62355b81752377bc28795820ab63d9bc2bf9905f90a2005b5f80fd5b34801561015e575f80fd5b5061017261016d366004611659565b6103f5565b60405190151581526020015b60405180910390f35b348015610192575f80fd5b506101a66101a1366004611680565b61042b565b6040516001600160a01b03909116815260200161017e565b3480156101c9575f80fd5b506101a66101d8366004611680565b610437565b3480156101e8575f80fd5b5061020b6101f7366004611680565b5f9081526020819052604090206001015490565b60405190815260200161017e565b348015610224575f80fd5b506102386102333660046116ab565b610443565b005b348015610245575f80fd5b506102386102543660046116ab565b61046c565b6101a66102673660046116d9565b6104d2565b348015610277575f80fd5b50610238610286366004611728565b61069c565b348015610296575f80fd5b506001546002546102ae916001600160a01b03169082565b604080516001600160a01b03909316835260208301919091520161017e565b3480156102d8575f80fd5b506102ae6102e7366004611680565b610709565b3480156102f7575f80fd5b5061020b61076a565b34801561030b575f80fd5b5061023861031a366004611766565b61077a565b34801561032a575f80fd5b5061020b610339366004611781565b61078f565b348015610349575f80fd5b506101726103583660046116ab565b6107a1565b348015610368575f80fd5b5061020b5f81565b34801561037b575f80fd5b5061020b600281565b34801561038f575f80fd5b5061020b6107c9565b3480156103a3575f80fd5b506102386103b23660046116ab565b6107d4565b3480156103c2575f80fd5b506102ae6103d13660046117fd565b6107f8565b3480156103e1575f80fd5b506102386103f0366004611833565b6108af565b5f6001600160e01b03198216637965db0b60e01b148061042557506301ffc9a760e01b6001600160e01b03198316145b92915050565b5f6104256003836108c6565b5f6104256005836108c6565b5f8281526020819052604090206001015461045d816108d1565b61046783836108de565b505050565b6104967f3735310f7cbb434a4412bb30a00c71d49f056e4bfe5a28c0b8c295a228fbbbde826107a1565b156104c457604051631868ef8960e11b81526001600160a01b03821660048201526024015b60405180910390fd5b6104ce8282610961565b5050565b5f33610511816104e56020860186611849565b90506104f46040870187611849565b905061012088013561014089013561050c8980611896565b6109db565b61051a84610ca1565b6001546001600160a01b03166105545760025434101561054f57604051630336cc6d60e51b81523460048201526024016104bb565b610573565b600254600154610573916001600160a01b039091169083903090610e8e565b5f61057e8535610709565b90935090506105ad7f8e7eec3a91568ea051efb6d35e7514ef01e4807481274e632bc3d6a704427c58846108de565b6105b8600384610ef9565b6105e057604051630db36a8f60e41b81526001600160a01b03841660048201526024016104bb565b5f6105ed600587356108c6565b90506106026001600160a01b03821683610f0d565b5060405163221809ad60e11b81526001600160a01b03851690634430135a906106339086908a908a90600401611a4c565b5f604051808303815f87803b15801561064a575f80fd5b505af115801561065c573d5f803e3d5ffd5b50506040516001600160a01b03871692507f83a48fbcfc991335314e74d0496aab6a1987e992ddc85dddbcc4d6dd6ef2e9fc91505f90a250505092915050565b5f6106a6816108d1565b6001600160a01b038416156106ce576106c96001600160a01b0385163384610fa7565b610703565b6040516001600160a01b0384169083156108fc029084905f818181858888f19350505050158015610701573d5f803e3d5ffd5b505b50505050565b5f80806107176005856108c6565b90506107236003610fd7565b60405160200161073591815260200190565b60408051601f19818403018152919052805160209091012091506107626001600160a01b03821683610fe0565b925050915091565b5f6107756005610fd7565b905090565b5f610784816108d1565b610467600583610ef9565b5f61079a8383610fec565b9392505050565b5f918252602082815260408084206001600160a01b0393909316845291905290205460ff1690565b5f6107756003610fd7565b5f828152602081905260409020600101546107ee816108d1565b61046783836110a2565b5f80838360405160200161081b929190918252151560f81b602082015260210190565b60408051601f19818403018152919052805160209091012090505f610842600560026108c6565b90505f61088d8660405160200161085b91815260200190565b60408051601f19818403018152919052805160209091012061087e60058a6108c6565b6001600160a01b031690610fe0565b90506108a36001600160a01b0383168483611106565b93505050935093915050565b5f6108b9816108d1565b8160016107038282611af3565b5f61079a8383611162565b6108db8133611188565b50565b6108e882826107a1565b6104ce575f828152602081815260408083206001600160a01b03851684529091529020805460ff1916600117905561091d3390565b6001600160a01b0316816001600160a01b0316837f2f8788117e7eff1d82e926ec794901d17c78024a50270940304540a733656f0d60405160405180910390a45050565b6001600160a01b03811633146109d15760405162461bcd60e51b815260206004820152602f60248201527f416363657373436f6e74726f6c3a2063616e206f6e6c792072656e6f756e636560448201526e103937b632b9903337b91039b2b63360891b60648201526084016104bb565b6104ce82826110a2565b610a057f3735310f7cbb434a4412bb30a00c71d49f056e4bfe5a28c0b8c295a228fbbbde886107a1565b15610a2e57604051631868ef8960e11b81526001600160a01b03881660048201526024016104bb565b610100811115610a80576040805163023d531160e01b815260048101839052602481019190915260136044820152723aba34b634bd34b733aa37b5b2b7399f191a9b60691b60648201526084016104bb565b5f5b60ff8116821115610bdb575f83838360ff16818110610aa357610aa3611b29565b9050602002016020810190610ab89190611766565b9050610ac486836111e1565b15610b4157610af37fa13b5fd39f62a16c47923a1b238b123e180d525e88a29febb32fa41cabad5798826107a1565b610b415760405163a78e4aa560e01b81527fa13b5fd39f62a16c47923a1b238b123e180d525e88a29febb32fa41cabad579860048201526001600160a01b03821660248201526044016104bb565b610b4b85836111e1565b15610bc857610b7a7f887501d93d651d0c9fdbe85f9da87d0d1fd1b1e2fa77767b6129c0bf474923ac826107a1565b610bc85760405163a78e4aa560e01b81527f887501d93d651d0c9fdbe85f9da87d0d1fd1b1e2fa77767b6129c0bf474923ac60048201526001600160a01b03821660248201526044016104bb565b5080610bd381611b51565b915050610a82565b50858114610c3a5760405163d89baa0360e01b8152600481018790526024810182905260606044820152601860648201527f746f6b656e734c656e213d696e69745265776172644c656e0000000000000000608482015260a4016104bb565b848114610c985760405163d89baa0360e01b8152600481018690526024810182905260606044820152601960648201527f746f6b656e734c656e213d696e69744465706f7369744c656e00000000000000608482015260a4016104bb565b50505050505050565b5f610cae600583356108c6565b6001600160a01b031603610cd85760405163f765bea160e01b8152813560048201526024016104bb565b806040013581602001351115610d32578060200135816040013560405163549fcbad60e11b81526004016104bb92919091825260208201526060604082018190526004908201526374696d6560e01b608082015260a00190565b806080013581606001351115610d8c5760405163549fcbad60e11b81526060808301356004830152608083013560248301526044820152600b60648201526a1cdd185ad9505b5bdd5b9d60aa1b608482015260a4016104bb565b6127108160c001351115610de15760408051632d8589e760e11b815260c083013560048201526024810191909152600f60448201526e19585c9b1e55da5d1a191c985dd85b608a1b60648201526084016104bb565b6127108160e001351115610e365760408051632d8589e760e11b815260e083013560048201526024810191909152600f60448201526e6465706f736974576974686472617760881b60648201526084016104bb565b61271081610100013511156108db5760408051632d8589e760e11b815261010083013560048201526024810191909152601060448201526f72657761726442617365506f696e747360801b60648201526084016104bb565b6040516001600160a01b03808516602483015283166044820152606481018290526107039085906323b872dd60e01b906084015b60408051601f198184030181529190526020810180516001600160e01b03166001600160e01b031990931692909217909152611208565b5f61079a836001600160a01b0384166112db565b5f763d602d80600a3d3981f3363d3d373d3d3d363d730000008360601b60e81c175f526e5af43d82803e903d91602b57fd5bf38360781b1760205281603760095ff590506001600160a01b0381166104255760405162461bcd60e51b815260206004820152601760248201527f455243313136373a2063726561746532206661696c656400000000000000000060448201526064016104bb565b6040516001600160a01b03831660248201526044810182905261046790849063a9059cbb60e01b90606401610ec2565b5f610425825490565b5f61079a838330611106565b5f61010082111561103b576040805163023d531160e01b8152600481018490526024810191909152600f60448201526e333630b3b9a632b733ba341f191a9b60891b60648201526084016104bb565b5f5b8281101561109b5783838281811061105757611057611b29565b905060200201602081019061106c9190611b6f565b15611089578015611080576001811b611083565b60015b91909117905b8061109381611b8a565b91505061103d565b5092915050565b6110ac82826107a1565b156104ce575f828152602081815260408083206001600160a01b0385168085529252808320805460ff1916905551339285917ff6391f5c32d9c69d2a47ea670b442974b53935d1edc7fd64eb21e047a839171b9190a45050565b60405160388101919091526f5af43d82803e903d91602b57fd5bf3ff60248201526014810192909252733d602d80600a3d3981f3363d3d373d3d3d363d73825260588201526037600c8201206078820152605560439091012090565b5f825f01828154811061117757611177611b29565b905f5260205f200154905092915050565b61119282826107a1565b6104ce5761119f81611327565b6111aa836020611339565b6040516020016111bb929190611bc4565b60408051601f198184030181529082905262461bcd60e51b82526104bb91600401611c38565b5f8060ff8316156111f857600160ff84161b6111fb565b60015b8481161491505092915050565b5f61125c826040518060400160405280602081526020017f5361666545524332303a206c6f772d6c6576656c2063616c6c206661696c6564815250856001600160a01b03166114cf9092919063ffffffff16565b905080515f148061127c57508080602001905181019061127c9190611c6a565b6104675760405162461bcd60e51b815260206004820152602a60248201527f5361666545524332303a204552433230206f7065726174696f6e20646964206e6044820152691bdd081cdd58d8d9595960b21b60648201526084016104bb565b5f81815260018301602052604081205461132057508154600181810184555f848152602080822090930184905584548482528286019093526040902091909155610425565b505f610425565b60606104256001600160a01b03831660145b60605f611347836002611c85565b611352906002611c9c565b67ffffffffffffffff81111561136a5761136a611caf565b6040519080825280601f01601f191660200182016040528015611394576020820181803683370190505b509050600360fc1b815f815181106113ae576113ae611b29565b60200101906001600160f81b03191690815f1a905350600f60fb1b816001815181106113dc576113dc611b29565b60200101906001600160f81b03191690815f1a9053505f6113fe846002611c85565b611409906001611c9c565b90505b6001811115611480576f181899199a1a9b1b9c1cb0b131b232b360811b85600f166010811061143d5761143d611b29565b1a60f81b82828151811061145357611453611b29565b60200101906001600160f81b03191690815f1a90535060049490941c9361147981611cc3565b905061140c565b50831561079a5760405162461bcd60e51b815260206004820181905260248201527f537472696e67733a20686578206c656e67746820696e73756666696369656e7460448201526064016104bb565b60606114dd84845f856114e5565b949350505050565b6060824710156115465760405162461bcd60e51b815260206004820152602660248201527f416464726573733a20696e73756666696369656e742062616c616e636520666f6044820152651c8818d85b1b60d21b60648201526084016104bb565b5f80866001600160a01b031685876040516115619190611cd8565b5f6040518083038185875af1925050503d805f811461159b576040519150601f19603f3d011682016040523d82523d5f602084013e6115a0565b606091505b50915091506115b1878383876115bc565b979650505050505050565b6060831561162a5782515f03611623576001600160a01b0385163b6116235760405162461bcd60e51b815260206004820152601d60248201527f416464726573733a2063616c6c20746f206e6f6e2d636f6e747261637400000060448201526064016104bb565b50816114dd565b6114dd838381511561163f5781518083602001fd5b8060405162461bcd60e51b81526004016104bb9190611c38565b5f60208284031215611669575f80fd5b81356001600160e01b03198116811461079a575f80fd5b5f60208284031215611690575f80fd5b5035919050565b6001600160a01b03811681146108db575f80fd5b5f80604083850312156116bc575f80fd5b8235915060208301356116ce81611697565b809150509250929050565b5f808284036101a08112156116ec575f80fd5b610180808212156116fb575f80fd5b849350830135905067ffffffffffffffff811115611717575f80fd5b8301606081860312156116ce575f80fd5b5f805f6060848603121561173a575f80fd5b833561174581611697565b9250602084013561175581611697565b929592945050506040919091013590565b5f60208284031215611776575f80fd5b813561079a81611697565b5f8060208385031215611792575f80fd5b823567ffffffffffffffff808211156117a9575f80fd5b818501915085601f8301126117bc575f80fd5b8135818111156117ca575f80fd5b8660208260051b85010111156117de575f80fd5b60209290920196919550909350505050565b80151581146108db575f80fd5b5f805f6060848603121561180f575f80fd5b83359250602084013591506040840135611828816117f0565b809150509250925092565b5f60408284031215611843575f80fd5b50919050565b5f808335601e1984360301811261185e575f80fd5b83018035915067ffffffffffffffff821115611878575f80fd5b6020019150600681901b360382131561188f575f80fd5b9250929050565b5f808335601e198436030181126118ab575f80fd5b83018035915067ffffffffffffffff8211156118c5575f80fd5b6020019150600581901b360382131561188f575f80fd5b80356118e781611697565b6001600160a01b031690915250565b5f808335601e1984360301811261190b575f80fd5b830160208101925035905067ffffffffffffffff81111561192a575f80fd5b8060061b360382131561188f575f80fd5b8183526020830192505f815f5b8481101561196757604080838837958601959190910190600101611948565b5093949350505050565b5f606083018235601e19843603018112611989575f80fd5b8301602081810191359067ffffffffffffffff8211156119a7575f80fd5b8160051b36038313156119b8575f80fd5b606087529281905290915f9190608087015b828410156119fa5784356119dd81611697565b6001600160a01b03168152938101936001939093019281016119ca565b611a06828801886118f6565b9550935087810382890152611a1c81868661193b565b945050505050611a2f60408401846118f6565b8583036040870152611a4283828461193b565b9695505050505050565b5f6101c060018060a01b038616835284356020840152602085013560408401526040850135606084015260608501356080840152608085013560a084015260a085013560c084015260c085013560e084015261010060e086013581850152610120818701358186015261014091508087013582860152506101608187013581860152611ade61018086018289016118dc565b5050806101a0840152611a4281840185611971565b8135611afe81611697565b81546001600160a01b0319166001600160a01b03919091161781556020919091013560019190910155565b634e487b7160e01b5f52603260045260245ffd5b634e487b7160e01b5f52601160045260245ffd5b5f60ff821660ff8103611b6657611b66611b3d565b60010192915050565b5f60208284031215611b7f575f80fd5b813561079a816117f0565b5f60018201611b9b57611b9b611b3d565b5060010190565b5f5b83811015611bbc578181015183820152602001611ba4565b50505f910152565b7f416363657373436f6e74726f6c3a206163636f756e742000000000000000000081525f8351611bfb816017850160208801611ba2565b7001034b99036b4b9b9b4b733903937b6329607d1b6017918401918201528351611c2c816028840160208801611ba2565b01602801949350505050565b602081525f8251806020840152611c56816040850160208701611ba2565b601f01601f19169190910160400192915050565b5f60208284031215611c7a575f80fd5b815161079a816117f0565b808202811582820484141761042557610425611b3d565b8082018082111561042557610425611b3d565b634e487b7160e01b5f52604160045260245ffd5b5f81611cd157611cd1611b3d565b505f190190565b5f8251611ce9818460208701611ba2565b919091019291505056fea2646970667358221220ec1ba51698cd4b55e876bcf85f66a59c007f25bba1f6684ee80d0849ee3dee8c64736f6c63430008140033",
  "devdoc": {
    "author": "Fortunna Team",
    "errors": {
      "AddressAlreadyExists(address)": [
        {
          "details": "An error to be reverted if an `enity` is already exists in some address set.",
          "params": {
            "entity": "An entity address."
          }
        }
      ],
      "AreNotEqual(uint256,uint256,string)": [
        {
          "details": "An error to be reverted if some pair of scalars is not equal, but they should be.",
          "params": {
            "comment": "Some comment as to what kind of a data structure property this is.",
            "x": "A first scalar.",
            "y": "A second scalar."
          }
        }
      ],
      "Banned(address)": [
        {
          "details": "An error to be reverted if an `account` would be banned.",
          "params": {
            "account": "A banned user."
          }
        }
      ],
      "IncorrectBasePoints(uint256,string)": [
        {
          "details": "An error to be reverted if some base points were defined out of their boundaries.",
          "params": {
            "basePoints": "An actual base points amount.",
            "comment": "Some comment as to what kind of a base points this is."
          }
        }
      ],
      "IncorrectInterval(uint256,uint256,string)": [
        {
          "details": "An error to be reverted if some Euclidean interval hasn't been defined correctly.",
          "params": {
            "comment": "Some comment as to what kind of an interval this is.",
            "finish": "An end of the interval.",
            "start": "A start of the interval."
          }
        }
      ],
      "InvalidLength(uint256,string)": [
        {
          "details": "An error to be reverted if some data structures `length` is not defined correctly.",
          "params": {
            "comment": "Some comment as to what kind of a data structure has been addressed to.",
            "length": "An actual length of the data structure."
          }
        }
      ],
      "NotAuthorized(bytes32,address)": [
        {
          "details": "An error to be reverted if an `entity` does not possess the `role`.",
          "params": {
            "entity": "An entity violating authorization.",
            "role": "A role an entity doesn't posess."
          }
        }
      ],
      "NotEnoughtPayment(uint256)": [
        {
          "details": "An error to be reverted if the pool deployer didn't payed enough for it.",
          "params": {
            "amount": "An actual amount the deployer sent."
          }
        }
      ],
      "UnknownPrototypeIndex(uint256)": [
        {
          "details": "An error to be reverted if an unknown prototype name would be used to deploy a pool or other utility smart-contract.",
          "params": {
            "prototypeIndex": "An index of prototype smart-contract."
          }
        }
      ]
    },
    "events": {
      "NativeTokenReceived(uint256)": {
        "params": {
          "amount": "An exact amount of the tokens arrived."
        }
      },
      "PoolCreated(address)": {
        "params": {
          "pool": "An address of the newly created pool."
        }
      },
      "RoleAdminChanged(bytes32,bytes32,bytes32)": {
        "details": "Emitted when `newAdminRole` is set as ``role``'s admin role, replacing `previousAdminRole` `DEFAULT_ADMIN_ROLE` is the starting admin for all roles, despite {RoleAdminChanged} not being emitted signaling this. _Available since v3.1._"
      },
      "RoleGranted(bytes32,address,address)": {
        "details": "Emitted when `account` is granted `role`. `sender` is the account that originated the contract call, an admin role bearer except when using {AccessControl-_setupRole}."
      },
      "RoleRevoked(bytes32,address,address)": {
        "details": "Emitted when `account` is revoked `role`. `sender` is the account that originated the contract call:   - if using `revokeRole`, it is the admin role bearer   - if using `renounceRole`, it is the role bearer (i.e. `account`)"
      }
    },
    "kind": "dev",
    "methods": {
      "addPrototype(address)": {
        "params": {
          "prototype": "An address of the deployed prototype."
        }
      },
      "constructor": {
        "params": {
          "paymentTokens": "An array of tokens addresses to be allowed as payment for pool deploy tokens."
        }
      },
      "createPool((uint256,uint256,uint256,uint256,uint256,uint256,uint256,uint256,uint256,bytes32,bytes32,(address)),(address[],uint256[2][],uint256[2][]))": {
        "params": {
          "poolParameters": "A scalar parameters for the pool.",
          "poolParametersArrays": "A vector parameters for the pool."
        }
      },
      "generateMask(bool[])": {
        "params": {
          "flags": "An array of booleans to be converted to a mask."
        }
      },
      "getPoolAt(uint256)": {
        "params": {
          "index": "An index in the pools enumerable set."
        }
      },
      "getPrototypeAt(uint256)": {
        "params": {
          "index": "An index in the pools enumerable set."
        }
      },
      "getRoleAdmin(bytes32)": {
        "details": "Returns the admin role that controls `role`. See {grantRole} and {revokeRole}. To change a role's admin, use {_setRoleAdmin}."
      },
      "grantRole(bytes32,address)": {
        "details": "Grants `role` to `account`. If `account` had not been already granted `role`, emits a {RoleGranted} event. Requirements: - the caller must have ``role``'s admin role. May emit a {RoleGranted} event."
      },
      "hasRole(bytes32,address)": {
        "details": "Returns `true` if `account` has been granted `role`."
      },
      "predictFortunnaTokenAddress(uint256,uint256,bool)": {
        "params": {
          "isStakingOrReward": "Is a Fortuna Dust token would be utilized as a staking or a reward token? True - staking, False - reward.",
          "poolIdx": "A specific already deployed pool index from the factory.",
          "poolProtoIdx": "A pool prototype index to which the token would be connected to."
        },
        "returns": {
          "result": "An address of the would be deployed token.",
          "salt": "A salt bytes to deploy such a token."
        }
      },
      "predictPoolAddress(uint256)": {
        "params": {
          "poolProtoIdx": "An index of the pool prototype in the factory."
        },
        "returns": {
          "result": "A predicted address of the pool.",
          "salt": "A salt bytes to deploy the pool to the predicted address."
        }
      },
      "renounceRole(bytes32,address)": {
        "details": "Revokes `role` from the calling account. Roles are often managed via {grantRole} and {revokeRole}: this function's purpose is to provide a mechanism for accounts to lose their privileges if they are compromised (such as when a trusted device is misplaced). If the calling account had been revoked `role`, emits a {RoleRevoked} event. Requirements: - the caller must be `account`. May emit a {RoleRevoked} event."
      },
      "revokeRole(bytes32,address)": {
        "details": "Revokes `role` from `account`. If `account` had been granted `role`, emits a {RoleRevoked} event. Requirements: - the caller must have ``role``'s admin role. May emit a {RoleRevoked} event."
      },
      "sendCollectedTokens(address,address,uint256)": {
        "params": {
          "amount": "An exact amount of the tokens to be sent.",
          "token": "A token to be send to.",
          "who": "A receiver of the tokens."
        }
      },
      "setPaymentInfo((address,uint256))": {
        "params": {
          "_paymentInfo": "A struct to hold new payment info."
        }
      },
      "supportsInterface(bytes4)": {
        "details": "See {IERC165-supportsInterface}."
      }
    },
    "stateVariables": {
      "paymentInfo": {
        "returns": {
          "cost": "An actual cost of the pool deploy.",
          "paymentToken": "An address of the token to be held as payment asset."
        }
      },
      "pools": {
        "details": "A set of unique deployed pools."
      },
      "prototypes": {
        "details": "A set of unique deployed prototypes."
      }
    },
    "title": "Canonical Fortunna Yield Farming pools factory",
    "version": 1
  },
  "userdoc": {
    "events": {
      "NativeTokenReceived(uint256)": {
        "notice": "An event to be fired when native tokens arrive to the fabric."
      },
      "PoolCreated(address)": {
        "notice": "An event to be emitted when the pool is created."
      }
    },
    "kind": "user",
    "methods": {
      "FORTUNNA_TOKEN_PROTO_INDEX()": {
        "notice": "An index in `prototypes` of FortunnaToken. Depends on the addition process in the initialization function."
      },
      "addPrototype(address)": {
        "notice": "An admin function to create to add deployed prototype."
      },
      "constructor": {
        "notice": "A constructor."
      },
      "createPool((uint256,uint256,uint256,uint256,uint256,uint256,uint256,uint256,uint256,bytes32,bytes32,(address)),(address[],uint256[2][],uint256[2][]))": {
        "notice": "The main public function. It is deploying the pool according to the pool parameters and it's prototype."
      },
      "generateMask(bool[])": {
        "notice": "A public helper function to make mask generation quicker."
      },
      "getPoolAt(uint256)": {
        "notice": "A public getter function to acquire a pool address at the specific index."
      },
      "getPoolsLength()": {
        "notice": "A public getter function to acquire the total amount of deployed pools."
      },
      "getPrototypeAt(uint256)": {
        "notice": "A public getter function to acquire a prototype address at the specific index."
      },
      "getPrototypesLength()": {
        "notice": "A public getter function to acquire the total amount of deployed prototypes."
      },
      "paymentInfo()": {
        "notice": "A getter function to acquire the payment info for one pool deploy."
      },
      "predictFortunnaTokenAddress(uint256,uint256,bool)": {
        "notice": "A helper function that could predict an address of the Fortuna Dust token for a specific pool."
      },
      "predictPoolAddress(uint256)": {
        "notice": "A helper function that could predict an address for the pool with a `poolProtoIdx` parameter."
      },
      "sendCollectedTokens(address,address,uint256)": {
        "notice": "An admin function to send all collected payments in any tokens to the specific receiver."
      },
      "setPaymentInfo((address,uint256))": {
        "notice": "An admin setter function to adjust payment info."
      }
    },
    "notice": "Deploys Fortunna Yield Farming pools and manages ownership and control over pool protocol fees.",
    "version": 1
  },
  "storageLayout": {
    "storage": [
      {
        "astId": 24,
        "contract": "contracts/FortunnaFactory.sol:FortunnaFactory",
        "label": "_roles",
        "offset": 0,
        "slot": "0",
        "type": "t_mapping(t_bytes32,t_struct(RoleData)19_storage)"
      },
      {
        "astId": 4587,
        "contract": "contracts/FortunnaFactory.sol:FortunnaFactory",
        "label": "paymentInfo",
        "offset": 0,
        "slot": "1",
        "type": "t_struct(PaymentInfo)8142_storage"
      },
      {
        "astId": 4591,
        "contract": "contracts/FortunnaFactory.sol:FortunnaFactory",
        "label": "pools",
        "offset": 0,
        "slot": "3",
        "type": "t_struct(AddressSet)4077_storage"
      },
      {
        "astId": 4595,
        "contract": "contracts/FortunnaFactory.sol:FortunnaFactory",
        "label": "prototypes",
        "offset": 0,
        "slot": "5",
        "type": "t_struct(AddressSet)4077_storage"
      }
    ],
    "types": {
      "t_address": {
        "encoding": "inplace",
        "label": "address",
        "numberOfBytes": "20"
      },
      "t_array(t_bytes32)dyn_storage": {
        "base": "t_bytes32",
        "encoding": "dynamic_array",
        "label": "bytes32[]",
        "numberOfBytes": "32"
      },
      "t_bool": {
        "encoding": "inplace",
        "label": "bool",
        "numberOfBytes": "1"
      },
      "t_bytes32": {
        "encoding": "inplace",
        "label": "bytes32",
        "numberOfBytes": "32"
      },
      "t_mapping(t_address,t_bool)": {
        "encoding": "mapping",
        "key": "t_address",
        "label": "mapping(address => bool)",
        "numberOfBytes": "32",
        "value": "t_bool"
      },
      "t_mapping(t_bytes32,t_struct(RoleData)19_storage)": {
        "encoding": "mapping",
        "key": "t_bytes32",
        "label": "mapping(bytes32 => struct AccessControl.RoleData)",
        "numberOfBytes": "32",
        "value": "t_struct(RoleData)19_storage"
      },
      "t_mapping(t_bytes32,t_uint256)": {
        "encoding": "mapping",
        "key": "t_bytes32",
        "label": "mapping(bytes32 => uint256)",
        "numberOfBytes": "32",
        "value": "t_uint256"
      },
      "t_struct(AddressSet)4077_storage": {
        "encoding": "inplace",
        "label": "struct EnumerableSet.AddressSet",
        "members": [
          {
            "astId": 4076,
            "contract": "contracts/FortunnaFactory.sol:FortunnaFactory",
            "label": "_inner",
            "offset": 0,
            "slot": "0",
            "type": "t_struct(Set)3762_storage"
          }
        ],
        "numberOfBytes": "64"
      },
      "t_struct(PaymentInfo)8142_storage": {
        "encoding": "inplace",
        "label": "struct FortunnaLib.PaymentInfo",
        "members": [
          {
            "astId": 8139,
            "contract": "contracts/FortunnaFactory.sol:FortunnaFactory",
            "label": "paymentToken",
            "offset": 0,
            "slot": "0",
            "type": "t_address"
          },
          {
            "astId": 8141,
            "contract": "contracts/FortunnaFactory.sol:FortunnaFactory",
            "label": "cost",
            "offset": 0,
            "slot": "1",
            "type": "t_uint256"
          }
        ],
        "numberOfBytes": "64"
      },
      "t_struct(RoleData)19_storage": {
        "encoding": "inplace",
        "label": "struct AccessControl.RoleData",
        "members": [
          {
            "astId": 16,
            "contract": "contracts/FortunnaFactory.sol:FortunnaFactory",
            "label": "members",
            "offset": 0,
            "slot": "0",
            "type": "t_mapping(t_address,t_bool)"
          },
          {
            "astId": 18,
            "contract": "contracts/FortunnaFactory.sol:FortunnaFactory",
            "label": "adminRole",
            "offset": 0,
            "slot": "1",
            "type": "t_bytes32"
          }
        ],
        "numberOfBytes": "64"
      },
      "t_struct(Set)3762_storage": {
        "encoding": "inplace",
        "label": "struct EnumerableSet.Set",
        "members": [
          {
            "astId": 3757,
            "contract": "contracts/FortunnaFactory.sol:FortunnaFactory",
            "label": "_values",
            "offset": 0,
            "slot": "0",
            "type": "t_array(t_bytes32)dyn_storage"
          },
          {
            "astId": 3761,
            "contract": "contracts/FortunnaFactory.sol:FortunnaFactory",
            "label": "_indexes",
            "offset": 0,
            "slot": "1",
            "type": "t_mapping(t_bytes32,t_uint256)"
          }
        ],
        "numberOfBytes": "64"
      },
      "t_uint256": {
        "encoding": "inplace",
        "label": "uint256",
        "numberOfBytes": "32"
      }
    }
  }
}