{
  "address": "0x8eF5BeC6A468685fb5d4C375EF9392461834B275",
  "abi": [
    {
      "inputs": [],
      "name": "ALLOWED_EXTERNAL_TOKEN_ROLE",
      "outputs": [
        {
          "internalType": "bytes32",
          "name": "",
          "type": "bytes32"
        }
      ],
      "stateMutability": "view",
      "type": "function"
    },
    {
      "inputs": [],
      "name": "ALLOWED_PAYMENT_TOKEN_ROLE",
      "outputs": [
        {
          "internalType": "bytes32",
          "name": "",
          "type": "bytes32"
        }
      ],
      "stateMutability": "view",
      "type": "function"
    },
    {
      "inputs": [],
      "name": "ALLOWED_REWARD_TOKEN_ROLE",
      "outputs": [
        {
          "internalType": "bytes32",
          "name": "",
          "type": "bytes32"
        }
      ],
      "stateMutability": "view",
      "type": "function"
    },
    {
      "inputs": [],
      "name": "ALLOWED_STAKING_TOKEN_ROLE",
      "outputs": [
        {
          "internalType": "bytes32",
          "name": "",
          "type": "bytes32"
        }
      ],
      "stateMutability": "view",
      "type": "function"
    },
    {
      "inputs": [],
      "name": "BANNED_ROLE",
      "outputs": [
        {
          "internalType": "bytes32",
          "name": "",
          "type": "bytes32"
        }
      ],
      "stateMutability": "view",
      "type": "function"
    },
    {
      "inputs": [],
      "name": "BASE_POINTS_MAX",
      "outputs": [
        {
          "internalType": "uint256",
          "name": "",
          "type": "uint256"
        }
      ],
      "stateMutability": "view",
      "type": "function"
    },
    {
      "inputs": [],
      "name": "DEAD_ADDRESS",
      "outputs": [
        {
          "internalType": "address",
          "name": "",
          "type": "address"
        }
      ],
      "stateMutability": "view",
      "type": "function"
    },
    {
      "inputs": [],
      "name": "FORTUNNA_POOL_UNISWAP_V3_FEE_TYPE",
      "outputs": [
        {
          "internalType": "uint24",
          "name": "",
          "type": "uint24"
        }
      ],
      "stateMutability": "view",
      "type": "function"
    },
    {
      "inputs": [],
      "name": "FORTUNNA_POOL_UNISWAP_V3_TICK_SPACING",
      "outputs": [
        {
          "internalType": "int24",
          "name": "",
          "type": "int24"
        }
      ],
      "stateMutability": "view",
      "type": "function"
    },
    {
      "inputs": [],
      "name": "LP_MINTER_BURNER_ROLE",
      "outputs": [
        {
          "internalType": "bytes32",
          "name": "",
          "type": "bytes32"
        }
      ],
      "stateMutability": "view",
      "type": "function"
    },
    {
      "inputs": [],
      "name": "POOL_REWARDS_PROVIDER",
      "outputs": [
        {
          "internalType": "bytes32",
          "name": "",
          "type": "bytes32"
        }
      ],
      "stateMutability": "view",
      "type": "function"
    },
    {
      "inputs": [],
      "name": "PRECISION",
      "outputs": [
        {
          "internalType": "uint256",
          "name": "",
          "type": "uint256"
        }
      ],
      "stateMutability": "view",
      "type": "function"
    }
  ],
  "transactionHash": "0xc6633b78ea1de348aec88c763e2caa38d341323e89bb7ae5d57530aa9b9b9371",
  "args": [],
  "numDeployments": 1,
  "solcInputHash": "c70e35da5a3ba30924d460ee899b21b6",
  "bytecode": "0x610288610035600b8282823980515f1a60731461002957634e487b7160e01b5f525f60045260245ffd5b305f52607381538281f3fe73000000000000000000000000000000000000000030146080604052600436106100bc575f3560e01c8063a7950d1e11610079578063a7950d1e146101ab578063aaf5eb68146101c8578063afd4138c146101d4578063dcb6b0d0146101dd578063f86b8d5514610204578063feedbbd01461022b575f80fd5b806319c3c90c146100c05780632a07c57c146100fa5780632e9c3943146101215780633d0c4c0f146101485780634e6fd6c41461016f578063923729cc14610190575b5f80fd5b6100e77f508ce835b993083d562083854a88de07ecc701522f232cada7863173dfc40df381565b6040519081526020015b60405180910390f35b6100e77ff2006e6ab5b724adc71b981e8b898a8359b6397c6778f9a7aa161ce3e24fee4481565b6100e77fa13b5fd39f62a16c47923a1b238b123e180d525e88a29febb32fa41cabad579881565b6100e77f8e7eec3a91568ea051efb6d35e7514ef01e4807481274e632bc3d6a704427c5881565b61017861dead81565b6040516001600160a01b0390911681526020016100f1565b610198603c81565b60405160029190910b81526020016100f1565b6101b4610bb881565b60405162ffffff90911681526020016100f1565b6100e76402540be40081565b6100e761271081565b6100e77f185fa0fa3354ff548ee95bc7375967e5e2cdbd00e7211f15ee5ea68c1d5dbae581565b6100e77f3735310f7cbb434a4412bb30a00c71d49f056e4bfe5a28c0b8c295a228fbbbde81565b6100e77f887501d93d651d0c9fdbe85f9da87d0d1fd1b1e2fa77767b6129c0bf474923ac8156fea2646970667358221220fb1a718bd9c0ef048f4eb798ed4cecf5b2272da9df4114266c06397e36b94b5764736f6c63430008140033",
  "devdoc": {
    "author": "Fortunna Team",
    "kind": "dev",
    "methods": {},
    "title": "Canonical Fortunna Yield Farming pools lib",
    "version": 1
  },
  "userdoc": {
    "kind": "user",
    "methods": {
      "ALLOWED_EXTERNAL_TOKEN_ROLE()": {
        "notice": "A role hash to mark addresses to be held as external reward tokens from another protocols."
      },
      "ALLOWED_PAYMENT_TOKEN_ROLE()": {
        "notice": "A role hash to mark addresses to be held as payment for pool deploy tokens."
      },
      "ALLOWED_REWARD_TOKEN_ROLE()": {
        "notice": "A role hash to mark addresses to be held as reward tokens."
      },
      "ALLOWED_STAKING_TOKEN_ROLE()": {
        "notice": "A role hash to mark addresses to be held as staking tokens."
      },
      "BANNED_ROLE()": {
        "notice": "A role hash to mark addresses to be held as banned users."
      },
      "BASE_POINTS_MAX()": {
        "notice": "A max of base points. (ex. Like 100 in percents)"
      },
      "DEAD_ADDRESS()": {
        "notice": "A dead address for floor tokens to be minted."
      },
      "FORTUNNA_POOL_UNISWAP_V3_FEE_TYPE()": {
        "notice": "A fee type of the UniswapV3-based pools would invest users money to."
      },
      "FORTUNNA_POOL_UNISWAP_V3_TICK_SPACING()": {
        "notice": "A tick spacing of the UniswapV3-based pools would invest users money to."
      },
      "LP_MINTER_BURNER_ROLE()": {
        "notice": "A role hash to indicate who can mint and burn the `FortunnaToken`'s."
      },
      "POOL_REWARDS_PROVIDER()": {
        "notice": "A role hash to indicate who can mint and burn the `FortunnaToken`'s."
      },
      "PRECISION()": {
        "notice": "A given precision for math operations."
      }
    },
    "notice": "A lib holding default errors, helpers functions and constants.",
    "version": 1
  },
  "storageLayout": {
    "storage": [],
    "types": null
  }
}