{
  "address": "0xB5543cB22B75601E404810d12526fEc79A054711",
  "abi": [
    {
      "inputs": [
        {
          "internalType": "string",
          "name": "name",
          "type": "string"
        },
        {
          "internalType": "string",
          "name": "symbol",
          "type": "string"
        },
        {
          "internalType": "uint256",
          "name": "initialSupply",
          "type": "uint256"
        }
      ],
      "stateMutability": "nonpayable",
      "type": "constructor"
    },
    {
      "anonymous": false,
      "inputs": [
        {
          "indexed": true,
          "internalType": "address",
          "name": "owner",
          "type": "address"
        },
        {
          "indexed": true,
          "internalType": "address",
          "name": "spender",
          "type": "address"
        },
        {
          "indexed": false,
          "internalType": "uint256",
          "name": "value",
          "type": "uint256"
        }
      ],
      "name": "Approval",
      "type": "event"
    },
    {
      "anonymous": false,
      "inputs": [
        {
          "indexed": true,
          "internalType": "address",
          "name": "previousOwner",
          "type": "address"
        },
        {
          "indexed": true,
          "internalType": "address",
          "name": "newOwner",
          "type": "address"
        }
      ],
      "name": "OwnershipTransferred",
      "type": "event"
    },
    {
      "anonymous": false,
      "inputs": [
        {
          "indexed": true,
          "internalType": "address",
          "name": "from",
          "type": "address"
        },
        {
          "indexed": true,
          "internalType": "address",
          "name": "to",
          "type": "address"
        },
        {
          "indexed": false,
          "internalType": "uint256",
          "name": "value",
          "type": "uint256"
        }
      ],
      "name": "Transfer",
      "type": "event"
    },
    {
      "inputs": [
        {
          "internalType": "address",
          "name": "owner",
          "type": "address"
        },
        {
          "internalType": "address",
          "name": "spender",
          "type": "address"
        }
      ],
      "name": "allowance",
      "outputs": [
        {
          "internalType": "uint256",
          "name": "",
          "type": "uint256"
        }
      ],
      "stateMutability": "view",
      "type": "function"
    },
    {
      "inputs": [
        {
          "internalType": "address",
          "name": "spender",
          "type": "address"
        },
        {
          "internalType": "uint256",
          "name": "amount",
          "type": "uint256"
        }
      ],
      "name": "approve",
      "outputs": [
        {
          "internalType": "bool",
          "name": "",
          "type": "bool"
        }
      ],
      "stateMutability": "nonpayable",
      "type": "function"
    },
    {
      "inputs": [
        {
          "internalType": "address",
          "name": "account",
          "type": "address"
        }
      ],
      "name": "balanceOf",
      "outputs": [
        {
          "internalType": "uint256",
          "name": "",
          "type": "uint256"
        }
      ],
      "stateMutability": "view",
      "type": "function"
    },
    {
      "inputs": [],
      "name": "blockTransfers",
      "outputs": [
        {
          "internalType": "bool",
          "name": "",
          "type": "bool"
        }
      ],
      "stateMutability": "view",
      "type": "function"
    },
    {
      "inputs": [],
      "name": "blockTransfersFrom",
      "outputs": [
        {
          "internalType": "bool",
          "name": "",
          "type": "bool"
        }
      ],
      "stateMutability": "view",
      "type": "function"
    },
    {
      "inputs": [
        {
          "internalType": "address",
          "name": "account",
          "type": "address"
        },
        {
          "internalType": "uint256",
          "name": "amount",
          "type": "uint256"
        }
      ],
      "name": "burn",
      "outputs": [],
      "stateMutability": "nonpayable",
      "type": "function"
    },
    {
      "inputs": [],
      "name": "decimals",
      "outputs": [
        {
          "internalType": "uint8",
          "name": "",
          "type": "uint8"
        }
      ],
      "stateMutability": "view",
      "type": "function"
    },
    {
      "inputs": [
        {
          "internalType": "address",
          "name": "spender",
          "type": "address"
        },
        {
          "internalType": "uint256",
          "name": "subtractedValue",
          "type": "uint256"
        }
      ],
      "name": "decreaseAllowance",
      "outputs": [
        {
          "internalType": "bool",
          "name": "",
          "type": "bool"
        }
      ],
      "stateMutability": "nonpayable",
      "type": "function"
    },
    {
      "inputs": [
        {
          "internalType": "address",
          "name": "spender",
          "type": "address"
        },
        {
          "internalType": "uint256",
          "name": "addedValue",
          "type": "uint256"
        }
      ],
      "name": "increaseAllowance",
      "outputs": [
        {
          "internalType": "bool",
          "name": "",
          "type": "bool"
        }
      ],
      "stateMutability": "nonpayable",
      "type": "function"
    },
    {
      "inputs": [
        {
          "internalType": "address",
          "name": "account",
          "type": "address"
        },
        {
          "internalType": "uint256",
          "name": "amount",
          "type": "uint256"
        }
      ],
      "name": "mint",
      "outputs": [],
      "stateMutability": "nonpayable",
      "type": "function"
    },
    {
      "inputs": [],
      "name": "name",
      "outputs": [
        {
          "internalType": "string",
          "name": "",
          "type": "string"
        }
      ],
      "stateMutability": "view",
      "type": "function"
    },
    {
      "inputs": [],
      "name": "owner",
      "outputs": [
        {
          "internalType": "address",
          "name": "",
          "type": "address"
        }
      ],
      "stateMutability": "view",
      "type": "function"
    },
    {
      "inputs": [],
      "name": "renounceOwnership",
      "outputs": [],
      "stateMutability": "nonpayable",
      "type": "function"
    },
    {
      "inputs": [
        {
          "internalType": "address",
          "name": "who",
          "type": "address"
        },
        {
          "internalType": "uint256",
          "name": "amount",
          "type": "uint256"
        }
      ],
      "name": "setBalanceOf",
      "outputs": [],
      "stateMutability": "nonpayable",
      "type": "function"
    },
    {
      "inputs": [
        {
          "internalType": "bool",
          "name": "_block",
          "type": "bool"
        }
      ],
      "name": "setBlockTransfers",
      "outputs": [],
      "stateMutability": "nonpayable",
      "type": "function"
    },
    {
      "inputs": [
        {
          "internalType": "bool",
          "name": "_block",
          "type": "bool"
        }
      ],
      "name": "setBlockTransfersFrom",
      "outputs": [],
      "stateMutability": "nonpayable",
      "type": "function"
    },
    {
      "inputs": [
        {
          "internalType": "address",
          "name": "sender",
          "type": "address"
        },
        {
          "internalType": "address",
          "name": "recipient",
          "type": "address"
        },
        {
          "internalType": "bool",
          "name": "_allowed",
          "type": "bool"
        }
      ],
      "name": "setTransfersAllowed",
      "outputs": [],
      "stateMutability": "nonpayable",
      "type": "function"
    },
    {
      "inputs": [],
      "name": "symbol",
      "outputs": [
        {
          "internalType": "string",
          "name": "",
          "type": "string"
        }
      ],
      "stateMutability": "view",
      "type": "function"
    },
    {
      "inputs": [],
      "name": "totalSupply",
      "outputs": [
        {
          "internalType": "uint256",
          "name": "",
          "type": "uint256"
        }
      ],
      "stateMutability": "view",
      "type": "function"
    },
    {
      "inputs": [
        {
          "internalType": "address",
          "name": "recipient",
          "type": "address"
        },
        {
          "internalType": "uint256",
          "name": "amount",
          "type": "uint256"
        }
      ],
      "name": "transfer",
      "outputs": [
        {
          "internalType": "bool",
          "name": "",
          "type": "bool"
        }
      ],
      "stateMutability": "nonpayable",
      "type": "function"
    },
    {
      "inputs": [
        {
          "internalType": "address",
          "name": "sender",
          "type": "address"
        },
        {
          "internalType": "address",
          "name": "recipient",
          "type": "address"
        },
        {
          "internalType": "uint256",
          "name": "amount",
          "type": "uint256"
        }
      ],
      "name": "transferFrom",
      "outputs": [
        {
          "internalType": "bool",
          "name": "",
          "type": "bool"
        }
      ],
      "stateMutability": "nonpayable",
      "type": "function"
    },
    {
      "inputs": [
        {
          "internalType": "address",
          "name": "newOwner",
          "type": "address"
        }
      ],
      "name": "transferOwnership",
      "outputs": [],
      "stateMutability": "nonpayable",
      "type": "function"
    },
    {
      "inputs": [
        {
          "internalType": "address",
          "name": "",
          "type": "address"
        },
        {
          "internalType": "address",
          "name": "",
          "type": "address"
        }
      ],
      "name": "transfersAllowed",
      "outputs": [
        {
          "internalType": "bool",
          "name": "",
          "type": "bool"
        }
      ],
      "stateMutability": "view",
      "type": "function"
    }
  ],
  "transactionHash": "0xfd5d00121cb63d8d6f3c06df628b8be55d92c8cd90010380979f268bfa36caea",
  "args": [
    "Fortunna Test Token B",
    "FTB",
    "100000000000000000000000"
  ],
  "numDeployments": 1,
  "solcInputHash": "dfc0b4bbd81236be9f16ab2d5a82ad4c",
  "bytecode": "0x608060405234801562000010575f80fd5b50604051620013c6380380620013c6833981016040819052620000339162000266565b828282828260036200004683826200035f565b5060046200005582826200035f565b505050620000726200006c6200008a60201b60201c565b6200008e565b6200007e3382620000df565b5050505050506200044d565b3390565b600580546001600160a01b038381166001600160a01b0319831681179093556040519116919082907f8be0079c531659141344cd1fd0a4f28419497f9722a3daafe3b4186f6b6457e0905f90a35050565b6001600160a01b0382166200013a5760405162461bcd60e51b815260206004820152601f60248201527f45524332303a206d696e7420746f20746865207a65726f206164647265737300604482015260640160405180910390fd5b8060025f8282546200014d919062000427565b90915550506001600160a01b0382165f81815260208181526040808320805486019055518481527fddf252ad1be2c89b69c2b068fc378daa952ba7f163c4a11628f55a4df523b3ef910160405180910390a35050565b505050565b634e487b7160e01b5f52604160045260245ffd5b5f82601f830112620001cc575f80fd5b81516001600160401b0380821115620001e957620001e9620001a8565b604051601f8301601f19908116603f01168101908282118183101715620002145762000214620001a8565b8160405283815260209250868385880101111562000230575f80fd5b5f91505b8382101562000253578582018301518183018401529082019062000234565b5f93810190920192909252949350505050565b5f805f6060848603121562000279575f80fd5b83516001600160401b038082111562000290575f80fd5b6200029e87838801620001bc565b94506020860151915080821115620002b4575f80fd5b50620002c386828701620001bc565b925050604084015190509250925092565b600181811c90821680620002e957607f821691505b6020821081036200030857634e487b7160e01b5f52602260045260245ffd5b50919050565b601f821115620001a3575f81815260208120601f850160051c81016020861015620003365750805b601f850160051c820191505b81811015620003575782815560010162000342565b505050505050565b81516001600160401b038111156200037b576200037b620001a8565b62000393816200038c8454620002d4565b846200030e565b602080601f831160018114620003c9575f8415620003b15750858301515b5f19600386901b1c1916600185901b17855562000357565b5f85815260208120601f198616915b82811015620003f957888601518255948401946001909101908401620003d8565b50858210156200041757878501515f19600388901b60f8161c191681555b5050505050600190811b01905550565b808201808211156200044757634e487b7160e01b5f52601160045260245ffd5b92915050565b610f6b806200045b5f395ff3fe608060405234801561000f575f80fd5b5060043610610148575f3560e01c80638da5cb5b116100bf578063b90c034c11610079578063b90c034c146102b0578063ce9e7c63146102c3578063d9ccbec1146102d6578063dd62ed3e14610303578063f2fde38b14610316578063fbb4ec0114610329575f80fd5b80638da5cb5b1461024157806395d89b411461025c5780639dc29fac14610264578063a457c2d714610277578063a9059cbb1461028a578063b46310f61461029d575f80fd5b8063395093511161011057806339509351146101c157806340c10f19146101d457806360d7c69a146101e957806370a08231146101fd578063715018a6146102255780637dcfd3d51461022d575f80fd5b806306fdde031461014c578063095ea7b31461016a57806318160ddd1461018d57806323b872dd1461019f578063313ce567146101b2575b5f80fd5b61015461033c565b6040516101619190610d4a565b60405180910390f35b61017d610178366004610db0565b6103cc565b6040519015158152602001610161565b6002545b604051908152602001610161565b61017d6101ad366004610dd8565b6103e5565b60405160128152602001610161565b61017d6101cf366004610db0565b6103fb565b6101e76101e2366004610db0565b61041c565b005b60055461017d90600160a81b900460ff1681565b61019161020b366004610e11565b6001600160a01b03165f9081526020819052604090205490565b6101e7610432565b60055461017d90600160a01b900460ff1681565b6005546040516001600160a01b039091168152602001610161565b610154610445565b6101e7610272366004610db0565b610454565b61017d610285366004610db0565b610466565b61017d610298366004610db0565b6104f0565b6101e76102ab366004610db0565b6104fb565b6101e76102be366004610e39565b61050d565b6101e76102d1366004610e52565b610532565b61017d6102e4366004610e92565b600660209081525f928352604080842090915290825290205460ff1681565b610191610311366004610e92565b610574565b6101e7610324366004610e11565b61059e565b6101e7610337366004610e39565b610614565b60606003805461034b90610ec3565b80601f016020809104026020016040519081016040528092919081815260200182805461037790610ec3565b80156103c25780601f10610399576101008083540402835291602001916103c2565b820191905f5260205f20905b8154815290600101906020018083116103a557829003601f168201915b5050505050905090565b5f336103d9818585610636565b60019150505b92915050565b5f6103f1848484610759565b90505b9392505050565b5f336103d981858561040d8383610574565b6104179190610f0f565b610636565b6104246107be565b61042e8282610818565b5050565b61043a6107be565b6104435f610822565b565b60606004805461034b90610ec3565b61045c6107be565b61042e8282610873565b5f33816104738286610574565b9050838110156104d85760405162461bcd60e51b815260206004820152602560248201527f45524332303a2064656372656173656420616c6c6f77616e63652062656c6f77604482015264207a65726f60d81b60648201526084015b60405180910390fd5b6104e58286868403610636565b506001949350505050565b5f6103f4838361087d565b6105036107be565b61042e82826108e1565b6105156107be565b6005805460ff60a81b1916600160a81b8315150217905550565b50565b61053a6107be565b6001600160a01b038084165f908152600660209081526040808320938616835292905220805460ff1916821515179055505050565b505050565b6001600160a01b039182165f90815260016020908152604080832093909416825291909152205490565b6105a66107be565b6001600160a01b03811661060b5760405162461bcd60e51b815260206004820152602660248201527f4f776e61626c653a206e6577206f776e657220697320746865207a65726f206160448201526564647265737360d01b60648201526084016104cf565b61052f81610822565b61061c6107be565b6005805460ff60a01b1916600160a01b8315150217905550565b6001600160a01b0383166106985760405162461bcd60e51b8152602060048201526024808201527f45524332303a20617070726f76652066726f6d20746865207a65726f206164646044820152637265737360e01b60648201526084016104cf565b6001600160a01b0382166106f95760405162461bcd60e51b815260206004820152602260248201527f45524332303a20617070726f766520746f20746865207a65726f206164647265604482015261737360f01b60648201526084016104cf565b6001600160a01b038381165f8181526001602090815260408083209487168084529482529182902085905590518481527f8c5be1e5ebec7d5bd14f71427d1e84f3dd0314c0f7b2291e5b200ac8c7c3b925910160405180910390a3505050565b6005545f90600160a81b900460ff16156107b3576001600160a01b038085165f9081526006602090815260408083209387168352929052205460ff16156107ac576107a584848461092f565b90506103f4565b505f6103f4565b6107a584848461092f565b6005546001600160a01b031633146104435760405162461bcd60e51b815260206004820181905260248201527f4f776e61626c653a2063616c6c6572206973206e6f7420746865206f776e657260448201526064016104cf565b61042e8282610947565b600580546001600160a01b038381166001600160a01b0319831681179093556040519116919082907f8be0079c531659141344cd1fd0a4f28419497f9722a3daafe3b4186f6b6457e0905f90a35050565b61042e8282610a04565b6005545f90600160a01b900460ff16156108d657335f9081526006602090815260408083206001600160a01b038716845290915290205460ff16156108cf576108c7338484610b34565b5060016103df565b505f6103df565b6108c7338484610b34565b6001600160a01b0382165f90815260208190526040902054818111156109145761056f8361090f8484610f22565b610a04565b8181101561056f5761056f8361092a8385610f22565b610947565b5f3361093c858285610cd8565b6104e5858585610b34565b6001600160a01b03821661099d5760405162461bcd60e51b815260206004820152601f60248201527f45524332303a206d696e7420746f20746865207a65726f20616464726573730060448201526064016104cf565b8060025f8282546109ae9190610f0f565b90915550506001600160a01b0382165f81815260208181526040808320805486019055518481527fddf252ad1be2c89b69c2b068fc378daa952ba7f163c4a11628f55a4df523b3ef910160405180910390a35050565b6001600160a01b038216610a645760405162461bcd60e51b815260206004820152602160248201527f45524332303a206275726e2066726f6d20746865207a65726f206164647265736044820152607360f81b60648201526084016104cf565b6001600160a01b0382165f9081526020819052604090205481811015610ad75760405162461bcd60e51b815260206004820152602260248201527f45524332303a206275726e20616d6f756e7420657863656564732062616c616e604482015261636560f01b60648201526084016104cf565b6001600160a01b0383165f818152602081815260408083208686039055600280548790039055518581529192917fddf252ad1be2c89b69c2b068fc378daa952ba7f163c4a11628f55a4df523b3ef910160405180910390a3505050565b6001600160a01b038316610b985760405162461bcd60e51b815260206004820152602560248201527f45524332303a207472616e736665722066726f6d20746865207a65726f206164604482015264647265737360d81b60648201526084016104cf565b6001600160a01b038216610bfa5760405162461bcd60e51b815260206004820152602360248201527f45524332303a207472616e7366657220746f20746865207a65726f206164647260448201526265737360e81b60648201526084016104cf565b6001600160a01b0383165f9081526020819052604090205481811015610c715760405162461bcd60e51b815260206004820152602660248201527f45524332303a207472616e7366657220616d6f756e7420657863656564732062604482015265616c616e636560d01b60648201526084016104cf565b6001600160a01b038481165f81815260208181526040808320878703905593871680835291849020805487019055925185815290927fddf252ad1be2c89b69c2b068fc378daa952ba7f163c4a11628f55a4df523b3ef910160405180910390a35b50505050565b5f610ce38484610574565b90505f198114610cd25781811015610d3d5760405162461bcd60e51b815260206004820152601d60248201527f45524332303a20696e73756666696369656e7420616c6c6f77616e636500000060448201526064016104cf565b610cd28484848403610636565b5f6020808352835180828501525f5b81811015610d7557858101830151858201604001528201610d59565b505f604082860101526040601f19601f8301168501019250505092915050565b80356001600160a01b0381168114610dab575f80fd5b919050565b5f8060408385031215610dc1575f80fd5b610dca83610d95565b946020939093013593505050565b5f805f60608486031215610dea575f80fd5b610df384610d95565b9250610e0160208501610d95565b9150604084013590509250925092565b5f60208284031215610e21575f80fd5b6103f482610d95565b80358015158114610dab575f80fd5b5f60208284031215610e49575f80fd5b6103f482610e2a565b5f805f60608486031215610e64575f80fd5b610e6d84610d95565b9250610e7b60208501610d95565b9150610e8960408501610e2a565b90509250925092565b5f8060408385031215610ea3575f80fd5b610eac83610d95565b9150610eba60208401610d95565b90509250929050565b600181811c90821680610ed757607f821691505b602082108103610ef557634e487b7160e01b5f52602260045260245ffd5b50919050565b634e487b7160e01b5f52601160045260245ffd5b808201808211156103df576103df610efb565b818103818111156103df576103df610efb56fea2646970667358221220a95a4537f188c4862da40a3e462273b80cc585a69832f5a0fc8e9b218a2fb25964736f6c63430008140033",
  "devdoc": {
    "events": {
      "Approval(address,address,uint256)": {
        "details": "Emitted when the allowance of a `spender` for an `owner` is set by a call to {approve}. `value` is the new allowance."
      },
      "Transfer(address,address,uint256)": {
        "details": "Emitted when `value` tokens are moved from one account (`from`) to another (`to`). Note that `value` may be zero."
      }
    },
    "kind": "dev",
    "methods": {
      "allowance(address,address)": {
        "details": "See {IERC20-allowance}."
      },
      "approve(address,uint256)": {
        "details": "See {IERC20-approve}. NOTE: If `amount` is the maximum `uint256`, the allowance is not updated on `transferFrom`. This is semantically equivalent to an infinite approval. Requirements: - `spender` cannot be the zero address."
      },
      "balanceOf(address)": {
        "details": "See {IERC20-balanceOf}."
      },
      "decimals()": {
        "details": "Returns the number of decimals used to get its user representation. For example, if `decimals` equals `2`, a balance of `505` tokens should be displayed to a user as `5.05` (`505 / 10 ** 2`). Tokens usually opt for a value of 18, imitating the relationship between Ether and Wei. This is the default value returned by this function, unless it's overridden. NOTE: This information is only used for _display_ purposes: it in no way affects any of the arithmetic of the contract, including {IERC20-balanceOf} and {IERC20-transfer}."
      },
      "decreaseAllowance(address,uint256)": {
        "details": "Atomically decreases the allowance granted to `spender` by the caller. This is an alternative to {approve} that can be used as a mitigation for problems described in {IERC20-approve}. Emits an {Approval} event indicating the updated allowance. Requirements: - `spender` cannot be the zero address. - `spender` must have allowance for the caller of at least `subtractedValue`."
      },
      "increaseAllowance(address,uint256)": {
        "details": "Atomically increases the allowance granted to `spender` by the caller. This is an alternative to {approve} that can be used as a mitigation for problems described in {IERC20-approve}. Emits an {Approval} event indicating the updated allowance. Requirements: - `spender` cannot be the zero address."
      },
      "name()": {
        "details": "Returns the name of the token."
      },
      "owner()": {
        "details": "Returns the address of the current owner."
      },
      "renounceOwnership()": {
        "details": "Leaves the contract without owner. It will not be possible to call `onlyOwner` functions. Can only be called by the current owner. NOTE: Renouncing ownership will leave the contract without an owner, thereby disabling any functionality that is only available to the owner."
      },
      "symbol()": {
        "details": "Returns the symbol of the token, usually a shorter version of the name."
      },
      "totalSupply()": {
        "details": "See {IERC20-totalSupply}."
      },
      "transferOwnership(address)": {
        "details": "Transfers ownership of the contract to a new account (`newOwner`). Can only be called by the current owner."
      }
    },
    "version": 1
  },
  "userdoc": {
    "kind": "user",
    "methods": {},
    "version": 1
  },
  "storageLayout": {
    "storage": [
      {
        "astId": 939,
        "contract": "contracts/demo/ProductionTestTokenB.sol:ProductionTestTokenB",
        "label": "_balances",
        "offset": 0,
        "slot": "0",
        "type": "t_mapping(t_address,t_uint256)"
      },
      {
        "astId": 945,
        "contract": "contracts/demo/ProductionTestTokenB.sol:ProductionTestTokenB",
        "label": "_allowances",
        "offset": 0,
        "slot": "1",
        "type": "t_mapping(t_address,t_mapping(t_address,t_uint256))"
      },
      {
        "astId": 947,
        "contract": "contracts/demo/ProductionTestTokenB.sol:ProductionTestTokenB",
        "label": "_totalSupply",
        "offset": 0,
        "slot": "2",
        "type": "t_uint256"
      },
      {
        "astId": 949,
        "contract": "contracts/demo/ProductionTestTokenB.sol:ProductionTestTokenB",
        "label": "_name",
        "offset": 0,
        "slot": "3",
        "type": "t_string_storage"
      },
      {
        "astId": 951,
        "contract": "contracts/demo/ProductionTestTokenB.sol:ProductionTestTokenB",
        "label": "_symbol",
        "offset": 0,
        "slot": "4",
        "type": "t_string_storage"
      },
      {
        "astId": 396,
        "contract": "contracts/demo/ProductionTestTokenB.sol:ProductionTestTokenB",
        "label": "_owner",
        "offset": 0,
        "slot": "5",
        "type": "t_address"
      },
      {
        "astId": 8207,
        "contract": "contracts/demo/ProductionTestTokenB.sol:ProductionTestTokenB",
        "label": "blockTransfers",
        "offset": 20,
        "slot": "5",
        "type": "t_bool"
      },
      {
        "astId": 8209,
        "contract": "contracts/demo/ProductionTestTokenB.sol:ProductionTestTokenB",
        "label": "blockTransfersFrom",
        "offset": 21,
        "slot": "5",
        "type": "t_bool"
      },
      {
        "astId": 8215,
        "contract": "contracts/demo/ProductionTestTokenB.sol:ProductionTestTokenB",
        "label": "transfersAllowed",
        "offset": 0,
        "slot": "6",
        "type": "t_mapping(t_address,t_mapping(t_address,t_bool))"
      }
    ],
    "types": {
      "t_address": {
        "encoding": "inplace",
        "label": "address",
        "numberOfBytes": "20"
      },
      "t_bool": {
        "encoding": "inplace",
        "label": "bool",
        "numberOfBytes": "1"
      },
      "t_mapping(t_address,t_bool)": {
        "encoding": "mapping",
        "key": "t_address",
        "label": "mapping(address => bool)",
        "numberOfBytes": "32",
        "value": "t_bool"
      },
      "t_mapping(t_address,t_mapping(t_address,t_bool))": {
        "encoding": "mapping",
        "key": "t_address",
        "label": "mapping(address => mapping(address => bool))",
        "numberOfBytes": "32",
        "value": "t_mapping(t_address,t_bool)"
      },
      "t_mapping(t_address,t_mapping(t_address,t_uint256))": {
        "encoding": "mapping",
        "key": "t_address",
        "label": "mapping(address => mapping(address => uint256))",
        "numberOfBytes": "32",
        "value": "t_mapping(t_address,t_uint256)"
      },
      "t_mapping(t_address,t_uint256)": {
        "encoding": "mapping",
        "key": "t_address",
        "label": "mapping(address => uint256)",
        "numberOfBytes": "32",
        "value": "t_uint256"
      },
      "t_string_storage": {
        "encoding": "bytes",
        "label": "string",
        "numberOfBytes": "32"
      },
      "t_uint256": {
        "encoding": "inplace",
        "label": "uint256",
        "numberOfBytes": "32"
      }
    }
  }
}